{"abi":[{"type":"function","name":"approve","inputs":[{"name":"","type":"address","internalType":"address"},{"name":"","type":"uint256","internalType":"uint256"}],"outputs":[{"name":"","type":"bool","internalType":"bool"}],"stateMutability":"pure"},{"type":"function","name":"balanceOf","inputs":[{"name":"","type":"address","internalType":"address"}],"outputs":[{"name":"","type":"uint256","internalType":"uint256"}],"stateMutability":"pure"},{"type":"function","name":"transferFrom","inputs":[{"name":"","type":"address","internalType":"address"},{"name":"","type":"address","internalType":"address"},{"name":"","type":"uint256","internalType":"uint256"}],"outputs":[{"name":"","type":"bool","internalType":"bool"}],"stateMutability":"pure"}],"bytecode":{"object":"0x608060405234801561000f575f80fd5b506102c78061001d5f395ff3fe608060405234801561000f575f80fd5b506004361061003f575f3560e01c8063095ea7b31461004357806323b872dd1461007357806370a08231146100a3575b5f80fd5b61005d6004803603810190610058919061017d565b6100d3565b60405161006a91906101d5565b60405180910390f35b61008d600480360381019061008891906101ee565b6100de565b60405161009a91906101d5565b60405180910390f35b6100bd60048036038101906100b8919061023e565b6100e6565b6040516100ca9190610278565b60405180910390f35b5f6001905092915050565b5f9392505050565b5f919050565b5f80fd5b5f73ffffffffffffffffffffffffffffffffffffffff82169050919050565b5f610119826100f0565b9050919050565b6101298161010f565b8114610133575f80fd5b50565b5f8135905061014481610120565b92915050565b5f819050919050565b61015c8161014a565b8114610166575f80fd5b50565b5f8135905061017781610153565b92915050565b5f8060408385031215610193576101926100ec565b5b5f6101a085828601610136565b92505060206101b185828601610169565b9150509250929050565b5f8115159050919050565b6101cf816101bb565b82525050565b5f6020820190506101e85f8301846101c6565b92915050565b5f805f60608486031215610205576102046100ec565b5b5f61021286828701610136565b935050602061022386828701610136565b925050604061023486828701610169565b9150509250925092565b5f60208284031215610253576102526100ec565b5b5f61026084828501610136565b91505092915050565b6102728161014a565b82525050565b5f60208201905061028b5f830184610269565b9291505056fea2646970667358221220fd1bee489f2395c6e275fae44b6c292ff0ab456cee8cd957e275a84adbd2c42864736f6c63430008180033","linkReferences":{}},"methodIdentifiers":{"approve(address,uint256)":"095ea7b3","balanceOf(address)":"70a08231","transferFrom(address,address,uint256)":"23b872dd"},"id":41}