{"abi":[{"type":"constructor","inputs":[{"name":"tokenAddress","type":"address","internalType":"address"},{"name":"shopTreasury","type":"address","internalType":"address"}],"stateMutability":"nonpayable"},{"type":"function","name":"PRICE","inputs":[],"outputs":[{"name":"","type":"uint256","internalType":"uint256"}],"stateMutability":"view"},{"type":"function","name":"TOKEN","inputs":[],"outputs":[{"name":"","type":"address","internalType":"contract ITokenLike"}],"stateMutability":"view"},{"type":"function","name":"TREASURY","inputs":[],"outputs":[{"name":"","type":"address","internalType":"address"}],"stateMutability":"view"},{"type":"function","name":"hasItem","inputs":[{"name":"","type":"address","internalType":"address"}],"outputs":[{"name":"","type":"bool","internalType":"bool"}],"stateMutability":"view"},{"type":"function","name":"purchase","inputs":[],"outputs":[],"stateMutability":"nonpayable"}],"bytecode":{"object":"0x60c060405234801561000f575f80fd5b506040516106d43803806106d4833981810160405281019061003191906100fe565b8173ffffffffffffffffffffffffffffffffffffffff1660808173ffffffffffffffffffffffffffffffffffffffff16815250508073ffffffffffffffffffffffffffffffffffffffff1660a08173ffffffffffffffffffffffffffffffffffffffff1681525050505061013c565b5f80fd5b5f73ffffffffffffffffffffffffffffffffffffffff82169050919050565b5f6100cd826100a4565b9050919050565b6100dd816100c3565b81146100e7575f80fd5b50565b5f815190506100f8816100d4565b92915050565b5f8060408385031215610114576101136100a0565b5b5f610121858286016100ea565b9250506020610132858286016100ea565b9150509250929050565b60805160a05161056a61016a5f395f818160ef015261015001525f81816101130152610266015261056a5ff3fe608060405234801561000f575f80fd5b5060043610610055575f3560e01c80632d2c55651461005957806364edfbf01461007757806382bfefc8146100815780638d859f3e1461009f57806393507143146100bd575b5f80fd5b6100616100ed565b60405161006e91906102e8565b60405180910390f35b61007f610111565b005b610089610264565b604051610096919061035c565b60405180910390f35b6100a7610288565b6040516100b4919061038d565b60405180910390f35b6100d760048036038101906100d291906103d4565b61028d565b6040516100e49190610419565b60405180910390f35b7f000000000000000000000000000000000000000000000000000000000000000081565b7f000000000000000000000000000000000000000000000000000000000000000073ffffffffffffffffffffffffffffffffffffffff166323b872dd337f000000000000000000000000000000000000000000000000000000000000000060646040518463ffffffff1660e01b815260040161018f93929190610432565b6020604051808303815f875af11580156101ab573d5f803e3d5ffd5b505050506040513d601f19601f820116820180604052508101906101cf9190610491565b61020e576040517f08c379a000000000000000000000000000000000000000000000000000000000815260040161020590610516565b60405180910390fd5b60015f803373ffffffffffffffffffffffffffffffffffffffff1673ffffffffffffffffffffffffffffffffffffffff1681526020019081526020015f205f6101000a81548160ff021916908315150217905550565b7f000000000000000000000000000000000000000000000000000000000000000081565b606481565b5f602052805f5260405f205f915054906101000a900460ff1681565b5f73ffffffffffffffffffffffffffffffffffffffff82169050919050565b5f6102d2826102a9565b9050919050565b6102e2816102c8565b82525050565b5f6020820190506102fb5f8301846102d9565b92915050565b5f819050919050565b5f61032461031f61031a846102a9565b610301565b6102a9565b9050919050565b5f6103358261030a565b9050919050565b5f6103468261032b565b9050919050565b6103568161033c565b82525050565b5f60208201905061036f5f83018461034d565b92915050565b5f819050919050565b61038781610375565b82525050565b5f6020820190506103a05f83018461037e565b92915050565b5f80fd5b6103b3816102c8565b81146103bd575f80fd5b50565b5f813590506103ce816103aa565b92915050565b5f602082840312156103e9576103e86103a6565b5b5f6103f6848285016103c0565b91505092915050565b5f8115159050919050565b610413816103ff565b82525050565b5f60208201905061042c5f83018461040a565b92915050565b5f6060820190506104455f8301866102d9565b61045260208301856102d9565b61045f604083018461037e565b949350505050565b610470816103ff565b811461047a575f80fd5b50565b5f8151905061048b81610467565b92915050565b5f602082840312156104a6576104a56103a6565b5b5f6104b38482850161047d565b91505092915050565b5f82825260208201905092915050565b7f7061796d656e74206661696c65640000000000000000000000000000000000005f82015250565b5f610500600e836104bc565b915061050b826104cc565b602082019050919050565b5f6020820190508181035f83015261052d816104f4565b905091905056fea2646970667358221220d2e0bbf63045281e6264208d518d44e97009d3a14903e8995679a0a8cd50d62564736f6c63430008180033","linkReferences":{}},"methodIdentifiers":{"PRICE()":"8d859f3e","TOKEN()":"82bfefc8","TREASURY()":"2d2c5565","hasItem(address)":"93507143","purchase()":"64edfbf0"},"id":41}