{"abi":[{"type":"function","name":"allowances","inputs":[{"name":"","type":"address","internalType":"address"},{"name":"","type":"address","internalType":"address"}],"outputs":[{"name":"","type":"uint256","internalType":"uint256"}],"stateMutability":"view"},{"type":"function","name":"approve","inputs":[{"name":"spender","type":"address","internalType":"address"},{"name":"amount","type":"uint256","internalType":"uint256"}],"outputs":[{"name":"","type":"bool","internalType":"bool"}],"stateMutability":"nonpayable"},{"type":"function","name":"balanceOf","inputs":[{"name":"account","type":"address","internalType":"address"}],"outputs":[{"name":"","type":"uint256","internalType":"uint256"}],"stateMutability":"view"},{"type":"function","name":"balances","inputs":[{"name":"","type":"address","internalType":"address"}],"outputs":[{"name":"","type":"uint256","internalType":"uint256"}],"stateMutability":"view"},{"type":"function","name":"mint","inputs":[{"name":"to","type":"address","internalType":"address"},{"name":"amount","type":"uint256","internalType":"uint256"}],"outputs":[],"stateMutability":"nonpayable"},{"type":"function","name":"transferFrom","inputs":[{"name":"from","type":"address","internalType":"address"},{"name":"to","type":"address","internalType":"address"},{"name":"amount","type":"uint256","internalType":"uint256"}],"outputs":[{"name":"","type":"bool","internalType":"bool"}],"stateMutability":"nonpayable"}],"bytecode":{"object":"0x608060405234801561000f575f80fd5b506107808061001d5f395ff3fe608060405234801561000f575f80fd5b5060043610610060575f3560e01c8063095ea7b31461006457806323b872dd1461009457806327e235e3146100c457806340c10f19146100f457806355b6ed5c1461011057806370a0823114610140575b5f80fd5b61007e60048036038101906100799190610565565b610170565b60405161008b91906105bd565b60405180910390f35b6100ae60048036038101906100a991906105d6565b6101f8565b6040516100bb91906105bd565b60405180910390f35b6100de60048036038101906100d99190610626565b610405565b6040516100eb9190610660565b60405180910390f35b61010e60048036038101906101099190610565565b610419565b005b61012a60048036038101906101259190610679565b61046f565b6040516101379190610660565b60405180910390f35b61015a60048036038101906101559190610626565b61048f565b6040516101679190610660565b60405180910390f35b5f8160015f3373ffffffffffffffffffffffffffffffffffffffff1673ffffffffffffffffffffffffffffffffffffffff1681526020019081526020015f205f8573ffffffffffffffffffffffffffffffffffffffff1673ffffffffffffffffffffffffffffffffffffffff1681526020019081526020015f20819055506001905092915050565b5f815f808673ffffffffffffffffffffffffffffffffffffffff1673ffffffffffffffffffffffffffffffffffffffff1681526020019081526020015f205410806102ba57508160015f8673ffffffffffffffffffffffffffffffffffffffff1673ffffffffffffffffffffffffffffffffffffffff1681526020019081526020015f205f3373ffffffffffffffffffffffffffffffffffffffff1673ffffffffffffffffffffffffffffffffffffffff1681526020019081526020015f2054105b156102c7575f90506103fe565b8160015f8673ffffffffffffffffffffffffffffffffffffffff1673ffffffffffffffffffffffffffffffffffffffff1681526020019081526020015f205f3373ffffffffffffffffffffffffffffffffffffffff1673ffffffffffffffffffffffffffffffffffffffff1681526020019081526020015f205f82825461034e91906106e4565b92505081905550815f808673ffffffffffffffffffffffffffffffffffffffff1673ffffffffffffffffffffffffffffffffffffffff1681526020019081526020015f205f8282546103a091906106e4565b92505081905550815f808573ffffffffffffffffffffffffffffffffffffffff1673ffffffffffffffffffffffffffffffffffffffff1681526020019081526020015f205f8282546103f29190610717565b92505081905550600190505b9392505050565b5f602052805f5260405f205f915090505481565b805f808473ffffffffffffffffffffffffffffffffffffffff1673ffffffffffffffffffffffffffffffffffffffff1681526020019081526020015f205f8282546104649190610717565b925050819055505050565b6001602052815f5260405f20602052805f5260405f205f91509150505481565b5f805f8373ffffffffffffffffffffffffffffffffffffffff1673ffffffffffffffffffffffffffffffffffffffff1681526020019081526020015f20549050919050565b5f80fd5b5f73ffffffffffffffffffffffffffffffffffffffff82169050919050565b5f610501826104d8565b9050919050565b610511816104f7565b811461051b575f80fd5b50565b5f8135905061052c81610508565b92915050565b5f819050919050565b61054481610532565b811461054e575f80fd5b50565b5f8135905061055f8161053b565b92915050565b5f806040838503121561057b5761057a6104d4565b5b5f6105888582860161051e565b925050602061059985828601610551565b9150509250929050565b5f8115159050919050565b6105b7816105a3565b82525050565b5f6020820190506105d05f8301846105ae565b92915050565b5f805f606084860312156105ed576105ec6104d4565b5b5f6105fa8682870161051e565b935050602061060b8682870161051e565b925050604061061c86828701610551565b9150509250925092565b5f6020828403121561063b5761063a6104d4565b5b5f6106488482850161051e565b91505092915050565b61065a81610532565b82525050565b5f6020820190506106735f830184610651565b92915050565b5f806040838503121561068f5761068e6104d4565b5b5f61069c8582860161051e565b92505060206106ad8582860161051e565b9150509250929050565b7f4e487b71000000000000000000000000000000000000000000000000000000005f52601160045260245ffd5b5f6106ee82610532565b91506106f983610532565b9250828203905081811115610711576107106106b7565b5b92915050565b5f61072182610532565b915061072c83610532565b9250828201905080821115610744576107436106b7565b5b9291505056fea2646970667358221220863b0f0e88461c2464cca96392b31e621b7e3c1600946e1780685e35ad5baf9464736f6c63430008180033","linkReferences":{}},"methodIdentifiers":{"allowances(address,address)":"55b6ed5c","approve(address,uint256)":"095ea7b3","balanceOf(address)":"70a08231","balances(address)":"27e235e3","mint(address,uint256)":"40c10f19","transferFrom(address,address,uint256)":"23b872dd"},"id":41}