{"abi":[{"type":"constructor","inputs":[{"name":"initialHolder","type":"address","internalType":"address"}],"stateMutability":"nonpayable"},{"type":"function","name":"balanceOf","inputs":[{"name":"account","type":"address","internalType":"address"}],"outputs":[{"name":"","type":"uint256","internalType":"uint256"}],"stateMutability":"view"},{"type":"function","name":"balances","inputs":[{"name":"","type":"address","internalType":"address"}],"outputs":[{"name":"","type":"uint256","internalType":"uint256"}],"stateMutability":"view"},{"type":"function","name":"transferFrom","inputs":[{"name":"from","type":"address","internalType":"address"},{"name":"to","type":"address","internalType":"address"},{"name":"amount","type":"uint256","internalType":"uint256"}],"outputs":[{"name":"","type":"bool","internalType":"bool"}],"stateMutability":"nonpayable"}],"bytecode":{"object":"0x608060405234801561000f575f80fd5b50604051610568380380610568833981810160405281019061003191906100d7565b60645f808373ffffffffffffffffffffffffffffffffffffffff1673ffffffffffffffffffffffffffffffffffffffff1681526020019081526020015f208190555050610102565b5f80fd5b5f73ffffffffffffffffffffffffffffffffffffffff82169050919050565b5f6100a68261007d565b9050919050565b6100b68161009c565b81146100c0575f80fd5b50565b5f815190506100d1816100ad565b92915050565b5f602082840312156100ec576100eb610079565b5b5f6100f9848285016100c3565b91505092915050565b6104598061010f5f395ff3fe608060405234801561000f575f80fd5b506004361061003f575f3560e01c806323b872dd1461004357806327e235e31461007357806370a08231146100a3575b5f80fd5b61005d600480360381019061005891906102ba565b6100d3565b60405161006a9190610324565b60405180910390f35b61008d6004803603810190610088919061033d565b6101d0565b60405161009a9190610377565b60405180910390f35b6100bd60048036038101906100b8919061033d565b6101e4565b6040516100ca9190610377565b60405180910390f35b5f815f808673ffffffffffffffffffffffffffffffffffffffff1673ffffffffffffffffffffffffffffffffffffffff1681526020019081526020015f20541015610120575f90506101c9565b815f808673ffffffffffffffffffffffffffffffffffffffff1673ffffffffffffffffffffffffffffffffffffffff1681526020019081526020015f205f82825461016b91906103bd565b92505081905550815f808573ffffffffffffffffffffffffffffffffffffffff1673ffffffffffffffffffffffffffffffffffffffff1681526020019081526020015f205f8282546101bd91906103f0565b92505081905550600190505b9392505050565b5f602052805f5260405f205f915090505481565b5f805f8373ffffffffffffffffffffffffffffffffffffffff1673ffffffffffffffffffffffffffffffffffffffff1681526020019081526020015f20549050919050565b5f80fd5b5f73ffffffffffffffffffffffffffffffffffffffff82169050919050565b5f6102568261022d565b9050919050565b6102668161024c565b8114610270575f80fd5b50565b5f813590506102818161025d565b92915050565b5f819050919050565b61029981610287565b81146102a3575f80fd5b50565b5f813590506102b481610290565b92915050565b5f805f606084860312156102d1576102d0610229565b5b5f6102de86828701610273565b93505060206102ef86828701610273565b9250506040610300868287016102a6565b9150509250925092565b5f8115159050919050565b61031e8161030a565b82525050565b5f6020820190506103375f830184610315565b92915050565b5f6020828403121561035257610351610229565b5b5f61035f84828501610273565b91505092915050565b61037181610287565b82525050565b5f60208201905061038a5f830184610368565b92915050565b7f4e487b71000000000000000000000000000000000000000000000000000000005f52601160045260245ffd5b5f6103c782610287565b91506103d283610287565b92508282039050818111156103ea576103e9610390565b5b92915050565b5f6103fa82610287565b915061040583610287565b925082820190508082111561041d5761041c610390565b5b9291505056fea2646970667358221220b11c583da1e5a41457c1481a374aa74bd3caa741482745f969e98ec6cda4223b64736f6c63430008180033","linkReferences":{}},"methodIdentifiers":{"balanceOf(address)":"70a08231","balances(address)":"27e235e3","transferFrom(address,address,uint256)":"23b872dd"},"id":21}