{"abi":[{"type":"constructor","inputs":[{"name":"initialHolder","type":"address","internalType":"address"}],"stateMutability":"nonpayable"},{"type":"function","name":"balances","inputs":[{"name":"","type":"address","internalType":"address"}],"outputs":[{"name":"","type":"uint256","internalType":"uint256"}],"stateMutability":"view"},{"type":"function","name":"transferFrom","inputs":[{"name":"from","type":"address","internalType":"address"},{"name":"to","type":"address","internalType":"address"},{"name":"amount","type":"uint256","internalType":"uint256"}],"outputs":[{"name":"","type":"bool","internalType":"bool"}],"stateMutability":"nonpayable"}],"bytecode":{"object":"0x608060405234801561000f575f80fd5b506040516104e83803806104e8833981810160405281019061003191906100d7565b60645f808373ffffffffffffffffffffffffffffffffffffffff1673ffffffffffffffffffffffffffffffffffffffff1681526020019081526020015f208190555050610102565b5f80fd5b5f73ffffffffffffffffffffffffffffffffffffffff82169050919050565b5f6100a68261007d565b9050919050565b6100b68161009c565b81146100c0575f80fd5b50565b5f815190506100d1816100ad565b92915050565b5f602082840312156100ec576100eb610079565b5b5f6100f9848285016100c3565b91505092915050565b6103d98061010f5f395ff3fe608060405234801561000f575f80fd5b5060043610610034575f3560e01c806323b872dd1461003857806327e235e314610068575b5f80fd5b610052600480360381019061004d919061023a565b610098565b60405161005f91906102a4565b60405180910390f35b610082600480360381019061007d91906102bd565b610195565b60405161008f91906102f7565b60405180910390f35b5f815f808673ffffffffffffffffffffffffffffffffffffffff1673ffffffffffffffffffffffffffffffffffffffff1681526020019081526020015f205410156100e5575f905061018e565b815f808673ffffffffffffffffffffffffffffffffffffffff1673ffffffffffffffffffffffffffffffffffffffff1681526020019081526020015f205f828254610130919061033d565b92505081905550815f808573ffffffffffffffffffffffffffffffffffffffff1673ffffffffffffffffffffffffffffffffffffffff1681526020019081526020015f205f8282546101829190610370565b92505081905550600190505b9392505050565b5f602052805f5260405f205f915090505481565b5f80fd5b5f73ffffffffffffffffffffffffffffffffffffffff82169050919050565b5f6101d6826101ad565b9050919050565b6101e6816101cc565b81146101f0575f80fd5b50565b5f81359050610201816101dd565b92915050565b5f819050919050565b61021981610207565b8114610223575f80fd5b50565b5f8135905061023481610210565b92915050565b5f805f60608486031215610251576102506101a9565b5b5f61025e868287016101f3565b935050602061026f868287016101f3565b925050604061028086828701610226565b9150509250925092565b5f8115159050919050565b61029e8161028a565b82525050565b5f6020820190506102b75f830184610295565b92915050565b5f602082840312156102d2576102d16101a9565b5b5f6102df848285016101f3565b91505092915050565b6102f181610207565b82525050565b5f60208201905061030a5f8301846102e8565b92915050565b7f4e487b71000000000000000000000000000000000000000000000000000000005f52601160045260245ffd5b5f61034782610207565b915061035283610207565b925082820390508181111561036a57610369610310565b5b92915050565b5f61037a82610207565b915061038583610207565b925082820190508082111561039d5761039c610310565b5b9291505056fea2646970667358221220102c99ee9974430ad412ad2bceaddd45b8a20e225a57378baf843959bf1410b164736f6c63430008180033","linkReferences":{}},"methodIdentifiers":{"balances(address)":"27e235e3","transferFrom(address,address,uint256)":"23b872dd"},"id":19}