{"abi":[{"type":"constructor","inputs":[{"name":"shopTreasury","type":"address","internalType":"address"}],"stateMutability":"nonpayable"},{"type":"function","name":"PRICE","inputs":[],"outputs":[{"name":"","type":"uint256","internalType":"uint256"}],"stateMutability":"view"},{"type":"function","name":"TOKEN","inputs":[],"outputs":[{"name":"","type":"address","internalType":"contract MockedToken"}],"stateMutability":"view"},{"type":"function","name":"TREASURY","inputs":[],"outputs":[{"name":"","type":"address","internalType":"address"}],"stateMutability":"view"},{"type":"function","name":"hasItem","inputs":[{"name":"","type":"address","internalType":"address"}],"outputs":[{"name":"","type":"bool","internalType":"bool"}],"stateMutability":"view"},{"type":"function","name":"purchase","inputs":[],"outputs":[],"stateMutability":"nonpayable"}],"bytecode":{"object":"0x60c060405234801561000f575f80fd5b50604051610c11380380610c118339818101604052810190610031919061013e565b808073ffffffffffffffffffffffffffffffffffffffff1660a08173ffffffffffffffffffffffffffffffffffffffff168152505060a051604051610075906100d3565b61007f9190610178565b604051809103905ff080158015610098573d5f803e3d5ffd5b5073ffffffffffffffffffffffffffffffffffffffff1660808173ffffffffffffffffffffffffffffffffffffffff16815250505050610191565b6104e88061072983390190565b5f80fd5b5f73ffffffffffffffffffffffffffffffffffffffff82169050919050565b5f61010d826100e4565b9050919050565b61011d81610103565b8114610127575f80fd5b50565b5f8151905061013881610114565b92915050565b5f60208284031215610153576101526100e0565b5b5f6101608482850161012a565b91505092915050565b61017281610103565b82525050565b5f60208201905061018b5f830184610169565b92915050565b60805160a05161056a6101bf5f395f818160ef015261015001525f81816101130152610266015261056a5ff3fe608060405234801561000f575f80fd5b5060043610610055575f3560e01c80632d2c55651461005957806364edfbf01461007757806382bfefc8146100815780638d859f3e1461009f57806393507143146100bd575b5f80fd5b6100616100ed565b60405161006e91906102e8565b60405180910390f35b61007f610111565b005b610089610264565b604051610096919061035c565b60405180910390f35b6100a7610288565b6040516100b4919061038d565b60405180910390f35b6100d760048036038101906100d291906103d4565b61028d565b6040516100e49190610419565b60405180910390f35b7f000000000000000000000000000000000000000000000000000000000000000081565b7f000000000000000000000000000000000000000000000000000000000000000073ffffffffffffffffffffffffffffffffffffffff166323b872dd337f000000000000000000000000000000000000000000000000000000000000000060016040518463ffffffff1660e01b815260040161018f93929190610432565b6020604051808303815f875af11580156101ab573d5f803e3d5ffd5b505050506040513d601f19601f820116820180604052508101906101cf9190610491565b61020e576040517f08c379a000000000000000000000000000000000000000000000000000000000815260040161020590610516565b60405180910390fd5b60015f803373ffffffffffffffffffffffffffffffffffffffff1673ffffffffffffffffffffffffffffffffffffffff1681526020019081526020015f205f6101000a81548160ff021916908315150217905550565b7f000000000000000000000000000000000000000000000000000000000000000081565b600181565b5f602052805f5260405f205f915054906101000a900460ff1681565b5f73ffffffffffffffffffffffffffffffffffffffff82169050919050565b5f6102d2826102a9565b9050919050565b6102e2816102c8565b82525050565b5f6020820190506102fb5f8301846102d9565b92915050565b5f819050919050565b5f61032461031f61031a846102a9565b610301565b6102a9565b9050919050565b5f6103358261030a565b9050919050565b5f6103468261032b565b9050919050565b6103568161033c565b82525050565b5f60208201905061036f5f83018461034d565b92915050565b5f819050919050565b61038781610375565b82525050565b5f6020820190506103a05f83018461037e565b92915050565b5f80fd5b6103b3816102c8565b81146103bd575f80fd5b50565b5f813590506103ce816103aa565b92915050565b5f602082840312156103e9576103e86103a6565b5b5f6103f6848285016103c0565b91505092915050565b5f8115159050919050565b610413816103ff565b82525050565b5f60208201905061042c5f83018461040a565b92915050565b5f6060820190506104455f8301866102d9565b61045260208301856102d9565b61045f604083018461037e565b949350505050565b610470816103ff565b811461047a575f80fd5b50565b5f8151905061048b81610467565b92915050565b5f602082840312156104a6576104a56103a6565b5b5f6104b38482850161047d565b91505092915050565b5f82825260208201905092915050565b7f7061796d656e74206661696c65640000000000000000000000000000000000005f82015250565b5f610500600e836104bc565b915061050b826104cc565b602082019050919050565b5f6020820190508181035f83015261052d816104f4565b905091905056fea2646970667358221220bbb21a86ee0535fea0917763d7374eb53c6452e5c8cc271a4e17a9e01db6263a64736f6c63430008180033608060405234801561000f575f80fd5b506040516104e83803806104e8833981810160405281019061003191906100d7565b60645f808373ffffffffffffffffffffffffffffffffffffffff1673ffffffffffffffffffffffffffffffffffffffff1681526020019081526020015f208190555050610102565b5f80fd5b5f73ffffffffffffffffffffffffffffffffffffffff82169050919050565b5f6100a68261007d565b9050919050565b6100b68161009c565b81146100c0575f80fd5b50565b5f815190506100d1816100ad565b92915050565b5f602082840312156100ec576100eb610079565b5b5f6100f9848285016100c3565b91505092915050565b6103d98061010f5f395ff3fe608060405234801561000f575f80fd5b5060043610610034575f3560e01c806323b872dd1461003857806327e235e314610068575b5f80fd5b610052600480360381019061004d919061023a565b610098565b60405161005f91906102a4565b60405180910390f35b610082600480360381019061007d91906102bd565b610195565b60405161008f91906102f7565b60405180910390f35b5f815f808673ffffffffffffffffffffffffffffffffffffffff1673ffffffffffffffffffffffffffffffffffffffff1681526020019081526020015f205410156100e5575f905061018e565b815f808673ffffffffffffffffffffffffffffffffffffffff1673ffffffffffffffffffffffffffffffffffffffff1681526020019081526020015f205f828254610130919061033d565b92505081905550815f808573ffffffffffffffffffffffffffffffffffffffff1673ffffffffffffffffffffffffffffffffffffffff1681526020019081526020015f205f8282546101829190610370565b92505081905550600190505b9392505050565b5f602052805f5260405f205f915090505481565b5f80fd5b5f73ffffffffffffffffffffffffffffffffffffffff82169050919050565b5f6101d6826101ad565b9050919050565b6101e6816101cc565b81146101f0575f80fd5b50565b5f81359050610201816101dd565b92915050565b5f819050919050565b61021981610207565b8114610223575f80fd5b50565b5f8135905061023481610210565b92915050565b5f805f60608486031215610251576102506101a9565b5b5f61025e868287016101f3565b935050602061026f868287016101f3565b925050604061028086828701610226565b9150509250925092565b5f8115159050919050565b61029e8161028a565b82525050565b5f6020820190506102b75f830184610295565b92915050565b5f602082840312156102d2576102d16101a9565b5b5f6102df848285016101f3565b91505092915050565b6102f181610207565b82525050565b5f60208201905061030a5f8301846102e8565b92915050565b7f4e487b71000000000000000000000000000000000000000000000000000000005f52601160045260245ffd5b5f61034782610207565b915061035283610207565b925082820390508181111561036a57610369610310565b5b92915050565b5f61037a82610207565b915061038583610207565b925082820190508082111561039d5761039c610310565b5b9291505056fea2646970667358221220102c99ee9974430ad412ad2bceaddd45b8a20e225a57378baf843959bf1410b164736f6c63430008180033","linkReferences":{}},"methodIdentifiers":{"PRICE()":"8d859f3e","TOKEN()":"82bfefc8","TREASURY()":"2d2c5565","hasItem(address)":"93507143","purchase()":"64edfbf0"},"id":19}