{"abi":[{"type":"constructor","inputs":[{"name":"targetAddress","type":"address","internalType":"address"}],"stateMutability":"nonpayable"},{"type":"function","name":"TARGET","inputs":[],"outputs":[{"name":"","type":"address","internalType":"contract VulnerableTokenShop"}],"stateMutability":"view"},{"type":"function","name":"attack","inputs":[],"outputs":[],"stateMutability":"nonpayable"}],"bytecode":{"object":"0x60a060405234801561000f575f80fd5b506040516102db3803806102db833981810160405281019061003191906100c9565b8073ffffffffffffffffffffffffffffffffffffffff1660808173ffffffffffffffffffffffffffffffffffffffff1681525050506100f4565b5f80fd5b5f73ffffffffffffffffffffffffffffffffffffffff82169050919050565b5f6100988261006f565b9050919050565b6100a88161008e565b81146100b2575f80fd5b50565b5f815190506100c38161009f565b92915050565b5f602082840312156100de576100dd61006b565b5b5f6100eb848285016100b5565b91505092915050565b6080516101ca6101115f395f81816062015260df01526101ca5ff3fe608060405234801561000f575f80fd5b5060043610610034575f3560e01c80639e5faafc14610038578063cc1f2afa14610042575b5f80fd5b610040610060565b005b61004a6100dd565b604051610057919061017b565b60405180910390f35b7f000000000000000000000000000000000000000000000000000000000000000073ffffffffffffffffffffffffffffffffffffffff166364edfbf06040518163ffffffff1660e01b81526004015f604051808303815f87803b1580156100c5575f80fd5b505af11580156100d7573d5f803e3d5ffd5b50505050565b7f000000000000000000000000000000000000000000000000000000000000000081565b5f73ffffffffffffffffffffffffffffffffffffffff82169050919050565b5f819050919050565b5f61014361013e61013984610101565b610120565b610101565b9050919050565b5f61015482610129565b9050919050565b5f6101658261014a565b9050919050565b6101758161015b565b82525050565b5f60208201905061018e5f83018461016c565b9291505056fea264697066735822122013308be55435fa3ee53226c5fd32504e8ce0e052ac22002f5fa46596daf4ad0464736f6c63430008180033","linkReferences":{}},"methodIdentifiers":{"TARGET()":"cc1f2afa","attack()":"9e5faafc"},"id":19}