{"abi":[{"type":"constructor","inputs":[{"name":"targetAddress","type":"address","internalType":"address"}],"stateMutability":"nonpayable"},{"type":"receive","stateMutability":"payable"},{"type":"function","name":"TARGET","inputs":[],"outputs":[{"name":"","type":"address","internalType":"contract FixedCheckedVault"}],"stateMutability":"view"},{"type":"function","name":"attack","inputs":[],"outputs":[],"stateMutability":"payable"}],"bytecode":{"object":"0x60a060405234801561000f575f80fd5b5060405161049b38038061049b833981810160405281019061003191906100c9565b8073ffffffffffffffffffffffffffffffffffffffff1660808173ffffffffffffffffffffffffffffffffffffffff1681525050506100f4565b5f80fd5b5f73ffffffffffffffffffffffffffffffffffffffff82169050919050565b5f6100988261006f565b9050919050565b6100a88161008e565b81146100b2575f80fd5b50565b5f815190506100c38161009f565b92915050565b5f602082840312156100de576100dd61006b565b5b5f6100eb848285016100b5565b91505092915050565b6080516103826101195f395f818160b70152818161013401526101c401526103825ff3fe60806040526004361061002c575f3560e01c80639e5faafc14610037578063cc1f2afa1461004157610033565b3661003357005b5f80fd5b61003f61006b565b005b34801561004c575f80fd5b506100556101c2565b6040516100629190610260565b60405180910390f35b670de0b6b3a764000034146100b5576040517f08c379a00000000000000000000000000000000000000000000000000000000081526004016100ac906102d3565b60405180910390fd5b7f000000000000000000000000000000000000000000000000000000000000000073ffffffffffffffffffffffffffffffffffffffff1663d0e30db0346040518263ffffffff1660e01b81526004015f604051808303818588803b15801561011b575f80fd5b505af115801561012d573d5f803e3d5ffd5b50505050507f000000000000000000000000000000000000000000000000000000000000000073ffffffffffffffffffffffffffffffffffffffff16632e1a7d4d671bc16d674ec800006040518263ffffffff1660e01b81526004016101939190610333565b5f604051808303815f87803b1580156101aa575f80fd5b505af11580156101bc573d5f803e3d5ffd5b50505050565b7f000000000000000000000000000000000000000000000000000000000000000081565b5f73ffffffffffffffffffffffffffffffffffffffff82169050919050565b5f819050919050565b5f61022861022361021e846101e6565b610205565b6101e6565b9050919050565b5f6102398261020e565b9050919050565b5f61024a8261022f565b9050919050565b61025a81610240565b82525050565b5f6020820190506102735f830184610251565b92915050565b5f82825260208201905092915050565b7f73656564206d75737420626520312065746865720000000000000000000000005f82015250565b5f6102bd601483610279565b91506102c882610289565b602082019050919050565b5f6020820190508181035f8301526102ea816102b1565b9050919050565b5f819050919050565b5f819050919050565b5f61031d610318610313846102f1565b610205565b6102fa565b9050919050565b61032d81610303565b82525050565b5f6020820190506103465f830184610324565b9291505056fea26469706673582212202a2862340c72032d521daae3ad5965d7d3da3f7e513bb62e0a2999cac488eca964736f6c63430008180033","linkReferences":{}},"methodIdentifiers":{"TARGET()":"cc1f2afa","attack()":"9e5faafc"},"id":21}