{"abi":[{"type":"constructor","inputs":[{"name":"oracleAddress","type":"address","internalType":"address"}],"stateMutability":"payable"},{"type":"function","name":"ORACLE","inputs":[],"outputs":[{"name":"","type":"address","internalType":"contract FixedTrustedOracle"}],"stateMutability":"view"},{"type":"function","name":"borrow","inputs":[{"name":"amountEth","type":"uint256","internalType":"uint256"}],"outputs":[],"stateMutability":"nonpayable"},{"type":"function","name":"collateralEth","inputs":[{"name":"","type":"address","internalType":"address"}],"outputs":[{"name":"","type":"uint256","internalType":"uint256"}],"stateMutability":"view"},{"type":"function","name":"debtEth","inputs":[{"name":"","type":"address","internalType":"address"}],"outputs":[{"name":"","type":"uint256","internalType":"uint256"}],"stateMutability":"view"},{"type":"function","name":"depositCollateral","inputs":[],"outputs":[],"stateMutability":"payable"},{"type":"function","name":"fundPool","inputs":[],"outputs":[],"stateMutability":"payable"}],"bytecode":{"object":"0x60a060405260405161096d38038061096d833981810160405281019061002591906100bd565b8073ffffffffffffffffffffffffffffffffffffffff1660808173ffffffffffffffffffffffffffffffffffffffff1681525050506100e8565b5f80fd5b5f73ffffffffffffffffffffffffffffffffffffffff82169050919050565b5f61008c82610063565b9050919050565b61009c81610082565b81146100a6575f80fd5b50565b5f815190506100b781610093565b92915050565b5f602082840312156100d2576100d161005f565b5b5f6100df848285016100a9565b91505092915050565b6080516108666101075f395f818161014c01526101e601526108665ff3fe608060405260043610610054575f3560e01c8063291150121461005857806338013f02146100945780636e23c465146100be5780636f758140146100fa57806370f37d2714610104578063c5ebeaec1461010e575b5f80fd5b348015610063575f80fd5b5061007e600480360381019061007991906104ad565b610136565b60405161008b91906104f0565b60405180910390f35b34801561009f575f80fd5b506100a861014a565b6040516100b59190610564565b60405180910390f35b3480156100c9575f80fd5b506100e460048036038101906100df91906104ad565b61016e565b6040516100f191906104f0565b60405180910390f35b610102610183565b005b61010c6101d7565b005b348015610119575f80fd5b50610134600480360381019061012f91906105a7565b6101d9565b005b5f602052805f5260405f205f915090505481565b7f000000000000000000000000000000000000000000000000000000000000000081565b6001602052805f5260405f205f915090505481565b345f803373ffffffffffffffffffffffffffffffffffffffff1673ffffffffffffffffffffffffffffffffffffffff1681526020019081526020015f205f8282546101ce91906105ff565b92505081905550565b565b5f68d8d726b7177a8000007f000000000000000000000000000000000000000000000000000000000000000073ffffffffffffffffffffffffffffffffffffffff16633a06703c6040518163ffffffff1660e01b8152600401602060405180830381865afa15801561024d573d5f803e3d5ffd5b505050506040513d601f19601f820116820180604052508101906102719190610646565b5f803373ffffffffffffffffffffffffffffffffffffffff1673ffffffffffffffffffffffffffffffffffffffff1681526020019081526020015f20546102b89190610671565b6102c291906106df565b9050808260015f3373ffffffffffffffffffffffffffffffffffffffff1673ffffffffffffffffffffffffffffffffffffffff1681526020019081526020015f205461030e91906105ff565b111561034f576040517f08c379a000000000000000000000000000000000000000000000000000000000815260040161034690610769565b60405180910390fd5b8160015f3373ffffffffffffffffffffffffffffffffffffffff1673ffffffffffffffffffffffffffffffffffffffff1681526020019081526020015f205f82825461039b91906105ff565b925050819055505f3373ffffffffffffffffffffffffffffffffffffffff16836040516103c7906107b4565b5f6040518083038185875af1925050503d805f8114610401576040519150601f19603f3d011682016040523d82523d5f602084013e610406565b606091505b505090508061044a576040517f08c379a000000000000000000000000000000000000000000000000000000000815260040161044190610812565b60405180910390fd5b505050565b5f80fd5b5f73ffffffffffffffffffffffffffffffffffffffff82169050919050565b5f61047c82610453565b9050919050565b61048c81610472565b8114610496575f80fd5b50565b5f813590506104a781610483565b92915050565b5f602082840312156104c2576104c161044f565b5b5f6104cf84828501610499565b91505092915050565b5f819050919050565b6104ea816104d8565b82525050565b5f6020820190506105035f8301846104e1565b92915050565b5f819050919050565b5f61052c61052761052284610453565b610509565b610453565b9050919050565b5f61053d82610512565b9050919050565b5f61054e82610533565b9050919050565b61055e81610544565b82525050565b5f6020820190506105775f830184610555565b92915050565b610586816104d8565b8114610590575f80fd5b50565b5f813590506105a18161057d565b92915050565b5f602082840312156105bc576105bb61044f565b5b5f6105c984828501610593565b91505092915050565b7f4e487b71000000000000000000000000000000000000000000000000000000005f52601160045260245ffd5b5f610609826104d8565b9150610614836104d8565b925082820190508082111561062c5761062b6105d2565b5b92915050565b5f815190506106408161057d565b92915050565b5f6020828403121561065b5761065a61044f565b5b5f61066884828501610632565b91505092915050565b5f61067b826104d8565b9150610686836104d8565b9250828202610694816104d8565b915082820484148315176106ab576106aa6105d2565b5b5092915050565b7f4e487b71000000000000000000000000000000000000000000000000000000005f52601260045260245ffd5b5f6106e9826104d8565b91506106f4836104d8565b925082610704576107036106b2565b5b828204905092915050565b5f82825260208201905092915050565b7f696e73756666696369656e7420636f6c6c61746572616c0000000000000000005f82015250565b5f61075360178361070f565b915061075e8261071f565b602082019050919050565b5f6020820190508181035f83015261078081610747565b9050919050565b5f81905092915050565b50565b5f61079f5f83610787565b91506107aa82610791565b5f82019050919050565b5f6107be82610794565b9150819050919050565b7f626f72726f77207472616e73666572206661696c6564000000000000000000005f82015250565b5f6107fc60168361070f565b9150610807826107c8565b602082019050919050565b5f6020820190508181035f830152610829816107f0565b905091905056fea26469706673582212200416321e749f02f6ead03fcdcf8c8bb413e304c7bf6f856f4e0641b219ae723464736f6c63430008180033","linkReferences":{}},"methodIdentifiers":{"ORACLE()":"38013f02","borrow(uint256)":"c5ebeaec","collateralEth(address)":"29115012","debtEth(address)":"6e23c465","depositCollateral()":"6f758140","fundPool()":"70f37d27"},"id":27}