{"abi":[{"type":"constructor","inputs":[{"name":"oracleOwner","type":"address","internalType":"address"}],"stateMutability":"nonpayable"},{"type":"function","name":"OWNER","inputs":[],"outputs":[{"name":"","type":"address","internalType":"address"}],"stateMutability":"view"},{"type":"function","name":"priceE18","inputs":[],"outputs":[{"name":"","type":"uint256","internalType":"uint256"}],"stateMutability":"view"},{"type":"function","name":"setPrice","inputs":[{"name":"newPriceE18","type":"uint256","internalType":"uint256"}],"outputs":[],"stateMutability":"nonpayable"}],"bytecode":{"object":"0x60a0604052686c6b935b8bbd4000005f5534801561001b575f80fd5b50604051610408380380610408833981810160405281019061003d91906100d5565b8073ffffffffffffffffffffffffffffffffffffffff1660808173ffffffffffffffffffffffffffffffffffffffff168152505050610100565b5f80fd5b5f73ffffffffffffffffffffffffffffffffffffffff82169050919050565b5f6100a48261007b565b9050919050565b6100b48161009a565b81146100be575f80fd5b50565b5f815190506100cf816100ab565b92915050565b5f602082840312156100ea576100e9610077565b5b5f6100f7848285016100c1565b91505092915050565b6080516102eb61011d5f395f8181609d015260c601526102eb5ff3fe608060405234801561000f575f80fd5b506004361061003f575f3560e01c8063117803e3146100435780633a06703c1461006157806391b7f5ed1461007f575b5f80fd5b61004b61009b565b604051610058919061019a565b60405180910390f35b6100696100bf565b60405161007691906101cb565b60405180910390f35b61009960048036038101906100949190610212565b6100c4565b005b7f000000000000000000000000000000000000000000000000000000000000000081565b5f5481565b7f000000000000000000000000000000000000000000000000000000000000000073ffffffffffffffffffffffffffffffffffffffff163373ffffffffffffffffffffffffffffffffffffffff1614610152576040517f08c379a000000000000000000000000000000000000000000000000000000000815260040161014990610297565b60405180910390fd5b805f8190555050565b5f73ffffffffffffffffffffffffffffffffffffffff82169050919050565b5f6101848261015b565b9050919050565b6101948161017a565b82525050565b5f6020820190506101ad5f83018461018b565b92915050565b5f819050919050565b6101c5816101b3565b82525050565b5f6020820190506101de5f8301846101bc565b92915050565b5f80fd5b6101f1816101b3565b81146101fb575f80fd5b50565b5f8135905061020c816101e8565b92915050565b5f60208284031215610227576102266101e4565b5b5f610234848285016101fe565b91505092915050565b5f82825260208201905092915050565b7f6e6f74206f776e657200000000000000000000000000000000000000000000005f82015250565b5f61028160098361023d565b915061028c8261024d565b602082019050919050565b5f6020820190508181035f8301526102ae81610275565b905091905056fea2646970667358221220ca60e4572e84e43d4381b1c2e6141666dd8d78afdc52334c2001304ccf9fc25864736f6c63430008180033","linkReferences":{}},"methodIdentifiers":{"OWNER()":"117803e3","priceE18()":"3a06703c","setPrice(uint256)":"91b7f5ed"},"id":27}