{"abi":[{"type":"function","name":"hashWithEncode","inputs":[{"name":"values","type":"uint256[]","internalType":"uint256[]"}],"outputs":[{"name":"result","type":"bytes32","internalType":"bytes32"}],"stateMutability":"pure"},{"type":"function","name":"hashWithEncodePacked","inputs":[{"name":"values","type":"uint256[]","internalType":"uint256[]"}],"outputs":[{"name":"result","type":"bytes32","internalType":"bytes32"}],"stateMutability":"pure"}],"bytecode":{"object":"0x608060405234801561000f575f80fd5b5061035c8061001d5f395ff3fe608060405234801561000f575f80fd5b5060043610610034575f3560e01c806353f2337914610038578063b9b29c8d14610068575b5f80fd5b610052600480360381019061004d91906101d3565b610098565b60405161005f9190610236565b60405180910390f35b610082600480360381019061007d91906101d3565b610101565b60405161008f9190610236565b60405180910390f35b5f808383905090505f5b818110156100f957828585838181106100be576100bd61024f565b5b905060200201356040516020016100d6929190610294565b6040516020818303038152906040528051906020012092508060010190506100a2565b505092915050565b5f808383905090505f5b8181101561016257828585838181106101275761012661024f565b5b9050602002013560405160200161013f9291906102fb565b60405160208183030381529060405280519060200120925080600101905061010b565b505092915050565b5f80fd5b5f80fd5b5f80fd5b5f80fd5b5f80fd5b5f8083601f84011261019357610192610172565b5b8235905067ffffffffffffffff8111156101b0576101af610176565b5b6020830191508360208202830111156101cc576101cb61017a565b5b9250929050565b5f80602083850312156101e9576101e861016a565b5b5f83013567ffffffffffffffff8111156102065761020561016e565b5b6102128582860161017e565b92509250509250929050565b5f819050919050565b6102308161021e565b82525050565b5f6020820190506102495f830184610227565b92915050565b7f4e487b71000000000000000000000000000000000000000000000000000000005f52603260045260245ffd5b5f819050919050565b61028e8161027c565b82525050565b5f6040820190506102a75f830185610227565b6102b46020830184610285565b9392505050565b5f819050919050565b6102d56102d08261021e565b6102bb565b82525050565b5f819050919050565b6102f56102f08261027c565b6102db565b82525050565b5f61030682856102c4565b60208201915061031682846102e4565b602082019150819050939250505056fea26469706673582212203cf21b07fd3f6900c1c1e72ffda574b3ea6c08a03a880aef907285dbf64dcfe764736f6c63430008180033","linkReferences":{}},"methodIdentifiers":{"hashWithEncode(uint256[])":"53f23379","hashWithEncodePacked(uint256[])":"b9b29c8d"},"id":19}