{"abi":[{"type":"constructor","inputs":[],"stateMutability":"nonpayable"},{"type":"function","name":"removeWithShift","inputs":[{"name":"index","type":"uint256","internalType":"uint256"}],"outputs":[],"stateMutability":"nonpayable"},{"type":"function","name":"removeWithSwapAndPop","inputs":[{"name":"index","type":"uint256","internalType":"uint256"}],"outputs":[],"stateMutability":"nonpayable"}],"bytecode":{"object":"0x608060405234801561000f575f80fd5b505f600190505b60088111610054575f81908060018154018082558091505060019003905f5260205f20015f90919091909150558061004d90610090565b9050610016565b506100d7565b7f4e487b71000000000000000000000000000000000000000000000000000000005f52601160045260245ffd5b5f819050919050565b5f61009a82610087565b91507fffffffffffffffffffffffffffffffffffffffffffffffffffffffffffffffff82036100cc576100cb61005a565b5b600182019050919050565b610308806100e45f395ff3fe608060405234801561000f575f80fd5b5060043610610034575f3560e01c80634fa92ae414610038578063dde435e814610054575b5f80fd5b610052600480360381019061004d91906101ba565b610070565b005b61006e600480360381019061006991906101ba565b61010c565b005b5f808054905090505f8290505b60018261008a9190610212565b8110156100e3575f60018261009f9190610245565b815481106100b0576100af610278565b5b905f5260205f2001545f82815481106100cc576100cb610278565b5b905f5260205f20018190555080600101905061007d565b505f8054806100f5576100f46102a5565b5b600190038181905f5260205f20015f905590555050565b5f808054905090505f6001826101229190610212565b8154811061013357610132610278565b5b905f5260205f2001545f838154811061014f5761014e610278565b5b905f5260205f2001819055505f80548061016c5761016b6102a5565b5b600190038181905f5260205f20015f905590555050565b5f80fd5b5f819050919050565b61019981610187565b81146101a3575f80fd5b50565b5f813590506101b481610190565b92915050565b5f602082840312156101cf576101ce610183565b5b5f6101dc848285016101a6565b91505092915050565b7f4e487b71000000000000000000000000000000000000000000000000000000005f52601160045260245ffd5b5f61021c82610187565b915061022783610187565b925082820390508181111561023f5761023e6101e5565b5b92915050565b5f61024f82610187565b915061025a83610187565b9250828201905080821115610272576102716101e5565b5b92915050565b7f4e487b71000000000000000000000000000000000000000000000000000000005f52603260045260245ffd5b7f4e487b71000000000000000000000000000000000000000000000000000000005f52603160045260245ffdfea26469706673582212203109ed572d7c9deca18bdcf30239849cbf186e26512b1540f0f2382958baee4664736f6c63430008180033","linkReferences":{}},"methodIdentifiers":{"removeWithShift(uint256)":"4fa92ae4","removeWithSwapAndPop(uint256)":"dde435e8"},"id":19}