{"abi":[{"type":"constructor","inputs":[],"stateMutability":"nonpayable"},{"type":"function","name":"sumCalldata","inputs":[{"name":"values","type":"uint256[]","internalType":"uint256[]"}],"outputs":[{"name":"total","type":"uint256","internalType":"uint256"}],"stateMutability":"pure"},{"type":"function","name":"sumMemory","inputs":[{"name":"values","type":"uint256[]","internalType":"uint256[]"}],"outputs":[{"name":"total","type":"uint256","internalType":"uint256"}],"stateMutability":"pure"},{"type":"function","name":"sumStorage","inputs":[],"outputs":[{"name":"total","type":"uint256","internalType":"uint256"}],"stateMutability":"view"}],"bytecode":{"object":"0x608060405234801561000f575f80fd5b505f6001908060018154018082558091505060019003905f5260205f20015f909190919091505561050d806100435f395ff3fe608060405234801561000f575f80fd5b506004361061003f575f3560e01c806313201b5d146100435780637bc2e5ac14610073578063c990e172146100a3575b5f80fd5b61005d60048036038101906100589190610337565b6100c1565b60405161006a919061038d565b60405180910390f35b61008d600480360381019061008891906103ff565b61010b565b60405161009a919061038d565b60405180910390f35b6100ab610157565b6040516100b8919061038d565b60405180910390f35b5f80825190505f5b81811015610104578381815181106100e4576100e361044a565b5b6020026020010151836100f791906104a4565b92508060010190506100c9565b5050919050565b5f808383905090505f5b8181101561014f578484828181106101305761012f61044a565b5b905060200201358361014291906104a4565b9250806001019050610115565b505092915050565b5f805f8054905090505f5b8181101561019e575f818154811061017d5761017c61044a565b5b905f5260205f2001548361019191906104a4565b9250806001019050610162565b505090565b5f604051905090565b5f80fd5b5f80fd5b5f80fd5b5f601f19601f8301169050919050565b7f4e487b71000000000000000000000000000000000000000000000000000000005f52604160045260245ffd5b6101fe826101b8565b810181811067ffffffffffffffff8211171561021d5761021c6101c8565b5b80604052505050565b5f61022f6101a3565b905061023b82826101f5565b919050565b5f67ffffffffffffffff82111561025a576102596101c8565b5b602082029050602081019050919050565b5f80fd5b5f819050919050565b6102818161026f565b811461028b575f80fd5b50565b5f8135905061029c81610278565b92915050565b5f6102b46102af84610240565b610226565b905080838252602082019050602084028301858111156102d7576102d661026b565b5b835b8181101561030057806102ec888261028e565b8452602084019350506020810190506102d9565b5050509392505050565b5f82601f83011261031e5761031d6101b4565b5b813561032e8482602086016102a2565b91505092915050565b5f6020828403121561034c5761034b6101ac565b5b5f82013567ffffffffffffffff811115610369576103686101b0565b5b6103758482850161030a565b91505092915050565b6103878161026f565b82525050565b5f6020820190506103a05f83018461037e565b92915050565b5f80fd5b5f8083601f8401126103bf576103be6101b4565b5b8235905067ffffffffffffffff8111156103dc576103db6103a6565b5b6020830191508360208202830111156103f8576103f761026b565b5b9250929050565b5f8060208385031215610415576104146101ac565b5b5f83013567ffffffffffffffff811115610432576104316101b0565b5b61043e858286016103aa565b92509250509250929050565b7f4e487b71000000000000000000000000000000000000000000000000000000005f52603260045260245ffd5b7f4e487b71000000000000000000000000000000000000000000000000000000005f52601160045260245ffd5b5f6104ae8261026f565b91506104b98361026f565b92508282019050808211156104d1576104d0610477565b5b9291505056fea2646970667358221220e460860b641df73348352cf47abe5684d914348b408a4cfcf1d4a18c3cbddb3464736f6c63430008180033","linkReferences":{}},"methodIdentifiers":{"sumCalldata(uint256[])":"7bc2e5ac","sumMemory(uint256[])":"13201b5d","sumStorage()":"c990e172"},"id":19}