{"abi":[{"type":"function","name":"checkThenExpensive","inputs":[{"name":"amount","type":"uint256","internalType":"uint256"},{"name":"payload","type":"bytes","internalType":"bytes"}],"outputs":[{"name":"digest","type":"bytes32","internalType":"bytes32"}],"stateMutability":"pure"},{"type":"function","name":"expensiveThenCheck","inputs":[{"name":"amount","type":"uint256","internalType":"uint256"},{"name":"payload","type":"bytes","internalType":"bytes"}],"outputs":[{"name":"digest","type":"bytes32","internalType":"bytes32"}],"stateMutability":"pure"}],"bytecode":{"object":"0x608060405234801561000f575f80fd5b506103908061001d5f395ff3fe608060405234801561000f575f80fd5b5060043610610034575f3560e01c80631d17eb0a146100385780637adc963014610068575b5f80fd5b610052600480360381019061004d9190610200565b610098565b60405161005f9190610275565b60405180910390f35b610082600480360381019061007d9190610200565b6100fe565b60405161008f9190610275565b60405180910390f35b5f82826040516100a99291906102ca565b6040518091039020905060648411156100f7576040517f08c379a00000000000000000000000000000000000000000000000000000000081526004016100ee9061033c565b60405180910390fd5b9392505050565b5f6064841115610143576040517f08c379a000000000000000000000000000000000000000000000000000000000815260040161013a9061033c565b60405180910390fd5b82826040516101539291906102ca565b604051809103902090509392505050565b5f80fd5b5f80fd5b5f819050919050565b61017e8161016c565b8114610188575f80fd5b50565b5f8135905061019981610175565b92915050565b5f80fd5b5f80fd5b5f80fd5b5f8083601f8401126101c0576101bf61019f565b5b8235905067ffffffffffffffff8111156101dd576101dc6101a3565b5b6020830191508360018202830111156101f9576101f86101a7565b5b9250929050565b5f805f6040848603121561021757610216610164565b5b5f6102248682870161018b565b935050602084013567ffffffffffffffff81111561024557610244610168565b5b610251868287016101ab565b92509250509250925092565b5f819050919050565b61026f8161025d565b82525050565b5f6020820190506102885f830184610266565b92915050565b5f81905092915050565b828183375f83830152505050565b5f6102b1838561028e565b93506102be838584610298565b82840190509392505050565b5f6102d68284866102a6565b91508190509392505050565b5f82825260208201905092915050565b7f616d6f756e7420746f6f206869676800000000000000000000000000000000005f82015250565b5f610326600f836102e2565b9150610331826102f2565b602082019050919050565b5f6020820190508181035f8301526103538161031a565b905091905056fea264697066735822122043d86b920b7ab77250dc2317775a8f20c2328bc5b1f3b914a3b81cf42e839f4564736f6c63430008180033","linkReferences":{}},"methodIdentifiers":{"checkThenExpensive(uint256,bytes)":"7adc9630","expensiveThenCheck(uint256,bytes)":"1d17eb0a"},"id":19}