{"abi":[{"type":"constructor","inputs":[],"stateMutability":"nonpayable"},{"type":"function","name":"DENOMINATOR_CONSTANT","inputs":[],"outputs":[{"name":"","type":"uint256","internalType":"uint256"}],"stateMutability":"view"},{"type":"function","name":"denominatorImmutable","inputs":[],"outputs":[{"name":"","type":"uint256","internalType":"uint256"}],"stateMutability":"view"},{"type":"function","name":"denominatorStorage","inputs":[],"outputs":[{"name":"","type":"uint256","internalType":"uint256"}],"stateMutability":"view"},{"type":"function","name":"feeBpsStorage","inputs":[],"outputs":[{"name":"","type":"uint256","internalType":"uint256"}],"stateMutability":"view"},{"type":"function","name":"quoteWithConstantConfig","inputs":[{"name":"amount","type":"uint256","internalType":"uint256"}],"outputs":[{"name":"","type":"uint256","internalType":"uint256"}],"stateMutability":"view"},{"type":"function","name":"quoteWithImmutableConfig","inputs":[{"name":"amount","type":"uint256","internalType":"uint256"}],"outputs":[{"name":"","type":"uint256","internalType":"uint256"}],"stateMutability":"view"},{"type":"function","name":"quoteWithStorageConfig","inputs":[{"name":"amount","type":"uint256","internalType":"uint256"}],"outputs":[{"name":"","type":"uint256","internalType":"uint256"}],"stateMutability":"view"}],"bytecode":{"object":"0x60a0604052601e5f55612710600155348015610019575f80fd5b50612710608081815250506080516103cb6100435f395f8181610195015261020301526103cb5ff3fe608060405234801561000f575f80fd5b506004361061007b575f3560e01c80638578b88b116100595780638578b88b146100d957806388908a4614610109578063a6b69f6214610139578063b0d621bb146101575761007b565b806302a220ab1461007f5780633c8a1dbc1461009d5780637bc7aaf2146100bb575b5f80fd5b610087610187565b6040516100949190610258565b60405180910390f35b6100a561018d565b6040516100b29190610258565b60405180910390f35b6100c3610193565b6040516100d09190610258565b60405180910390f35b6100f360048036038101906100ee919061029f565b6101b7565b6040516101009190610258565b60405180910390f35b610123600480360381019061011e919061029f565b6101d9565b6040516101309190610258565b60405180910390f35b6101416101fb565b60405161014e9190610258565b60405180910390f35b610171600480360381019061016c919061029f565b610200565b60405161017e9190610258565b60405180910390f35b60015481565b61271081565b7f000000000000000000000000000000000000000000000000000000000000000081565b5f6001545f54836101c891906102f7565b6101d29190610365565b9050919050565b5f6127105f54836101ea91906102f7565b6101f49190610365565b9050919050565b5f5481565b5f7f00000000000000000000000000000000000000000000000000000000000000005f548361022f91906102f7565b6102399190610365565b9050919050565b5f819050919050565b61025281610240565b82525050565b5f60208201905061026b5f830184610249565b92915050565b5f80fd5b61027e81610240565b8114610288575f80fd5b50565b5f8135905061029981610275565b92915050565b5f602082840312156102b4576102b3610271565b5b5f6102c18482850161028b565b91505092915050565b7f4e487b71000000000000000000000000000000000000000000000000000000005f52601160045260245ffd5b5f61030182610240565b915061030c83610240565b925082820261031a81610240565b91508282048414831517610331576103306102ca565b5b5092915050565b7f4e487b71000000000000000000000000000000000000000000000000000000005f52601260045260245ffd5b5f61036f82610240565b915061037a83610240565b92508261038a57610389610338565b5b82820490509291505056fea2646970667358221220bfc9a914394e090db4b210df8436344a7aad2e41a4d188dc4913f5641bcb4afe64736f6c63430008180033","linkReferences":{}},"methodIdentifiers":{"DENOMINATOR_CONSTANT()":"3c8a1dbc","denominatorImmutable()":"7bc7aaf2","denominatorStorage()":"02a220ab","feeBpsStorage()":"a6b69f62","quoteWithConstantConfig(uint256)":"88908a46","quoteWithImmutableConfig(uint256)":"b0d621bb","quoteWithStorageConfig(uint256)":"8578b88b"},"id":19}