{"abi":[{"type":"function","name":"setWithCustomError","inputs":[{"name":"newValue","type":"uint256","internalType":"uint256"}],"outputs":[],"stateMutability":"nonpayable"},{"type":"function","name":"setWithRequire","inputs":[{"name":"newValue","type":"uint256","internalType":"uint256"}],"outputs":[],"stateMutability":"nonpayable"},{"type":"function","name":"setWithRequireWithALongErrorMessage","inputs":[{"name":"newValue","type":"uint256","internalType":"uint256"}],"outputs":[],"stateMutability":"nonpayable"},{"type":"function","name":"value","inputs":[],"outputs":[{"name":"","type":"uint256","internalType":"uint256"}],"stateMutability":"view"},{"type":"error","name":"ValueTooLarge","inputs":[{"name":"provided","type":"uint256","internalType":"uint256"},{"name":"maxAllowed","type":"uint256","internalType":"uint256"}]}],"bytecode":{"object":"0x608060405234801561000f575f80fd5b506103e08061001d5f395ff3fe608060405234801561000f575f80fd5b506004361061004a575f3560e01c80633fa4f2451461004e5780634fa5b4ed1461006c578063adc1368514610088578063db2944af146100a4575b5f80fd5b6100566100c0565b60405161006391906101c9565b60405180910390f35b61008660048036038101906100819190610210565b6100c5565b005b6100a2600480360381019061009d9190610210565b610112565b005b6100be60048036038101906100b99190610210565b610164565b005b5f5481565b6064811115610109576040517f08c379a000000000000000000000000000000000000000000000000000000000815260040161010090610295565b60405180910390fd5b805f8190555050565b606481111561015b578060646040517f280b172c0000000000000000000000000000000000000000000000000000000081526004016101529291906102f5565b60405180910390fd5b805f8190555050565b60648111156101a8576040517f08c379a000000000000000000000000000000000000000000000000000000000815260040161019f9061038c565b60405180910390fd5b805f8190555050565b5f819050919050565b6101c3816101b1565b82525050565b5f6020820190506101dc5f8301846101ba565b92915050565b5f80fd5b6101ef816101b1565b81146101f9575f80fd5b50565b5f8135905061020a816101e6565b92915050565b5f60208284031215610225576102246101e2565b5b5f610232848285016101fc565b91505092915050565b5f82825260208201905092915050565b7f546f6f206c6172676500000000000000000000000000000000000000000000005f82015250565b5f61027f60098361023b565b915061028a8261024b565b602082019050919050565b5f6020820190508181035f8301526102ac81610273565b9050919050565b5f819050919050565b5f819050919050565b5f6102df6102da6102d5846102b3565b6102bc565b6101b1565b9050919050565b6102ef816102c5565b82525050565b5f6040820190506103085f8301856101ba565b61031560208301846102e6565b9392505050565b7f76616c756520746f6f206c617267652c20616e642074686973206572726f72205f8201527f6d65737361676520697320616c736f2076657279206c61616161726765000000602082015250565b5f610376603d8361023b565b91506103818261031c565b604082019050919050565b5f6020820190508181035f8301526103a38161036a565b905091905056fea2646970667358221220ee29d484eb4d221f70874ec77b76cac9c97549163853e624463ff430346eff1c64736f6c63430008180033","linkReferences":{}},"methodIdentifiers":{"setWithCustomError(uint256)":"adc13685","setWithRequire(uint256)":"4fa5b4ed","setWithRequireWithALongErrorMessage(uint256)":"db2944af","value()":"3fa4f245"},"id":19}