{"abi":[{"type":"function","name":"emitLean","inputs":[{"name":"to","type":"address","internalType":"address"},{"name":"amount","type":"uint256","internalType":"uint256"}],"outputs":[],"stateMutability":"nonpayable"},{"type":"function","name":"emitVerbose","inputs":[{"name":"to","type":"address","internalType":"address"},{"name":"amount","type":"uint256","internalType":"uint256"}],"outputs":[],"stateMutability":"nonpayable"},{"type":"event","name":"TransferLean","inputs":[{"name":"from","type":"address","indexed":true,"internalType":"address"},{"name":"to","type":"address","indexed":true,"internalType":"address"},{"name":"amount","type":"uint256","indexed":false,"internalType":"uint256"}],"anonymous":false},{"type":"event","name":"TransferVerbose","inputs":[{"name":"from","type":"address","indexed":true,"internalType":"address"},{"name":"to","type":"address","indexed":true,"internalType":"address"},{"name":"toBackup","type":"address","indexed":true,"internalType":"address"},{"name":"amount","type":"uint256","indexed":false,"internalType":"uint256"}],"anonymous":false}],"bytecode":{"object":"0x608060405234801561000f575f80fd5b506102868061001d5f395ff3fe608060405234801561000f575f80fd5b5060043610610034575f3560e01c8063a238485414610038578063a2488e1914610054575b5f80fd5b610052600480360381019061004d91906101ea565b610070565b005b61006e600480360381019061006991906101ea565b6100d9565b005b8173ffffffffffffffffffffffffffffffffffffffff163373ffffffffffffffffffffffffffffffffffffffff167f3e000adb401b8feaf740fbf21c04e839a4378b3fcfb2e3b273da3538a45caca4836040516100cd9190610237565b60405180910390a35050565b8173ffffffffffffffffffffffffffffffffffffffff168273ffffffffffffffffffffffffffffffffffffffff163373ffffffffffffffffffffffffffffffffffffffff167fc16db79e6e4b7faa7ebb85fde204e4e7c0e58f6bdded68bda37b44e1bc9dee908460405161014d9190610237565b60405180910390a45050565b5f80fd5b5f73ffffffffffffffffffffffffffffffffffffffff82169050919050565b5f6101868261015d565b9050919050565b6101968161017c565b81146101a0575f80fd5b50565b5f813590506101b18161018d565b92915050565b5f819050919050565b6101c9816101b7565b81146101d3575f80fd5b50565b5f813590506101e4816101c0565b92915050565b5f8060408385031215610200576101ff610159565b5b5f61020d858286016101a3565b925050602061021e858286016101d6565b9150509250929050565b610231816101b7565b82525050565b5f60208201905061024a5f830184610228565b9291505056fea264697066735822122055482096baab1dc05d16ff8bc4bbfd33691b1aca1258e8e773ace9f510006ba664736f6c63430008180033","linkReferences":{}},"methodIdentifiers":{"emitLean(address,uint256)":"a2384854","emitVerbose(address,uint256)":"a2488e19"},"id":19}