{"abi":[{"type":"function","name":"byBytes32","inputs":[{"name":"","type":"bytes32","internalType":"bytes32"}],"outputs":[{"name":"","type":"uint256","internalType":"uint256"}],"stateMutability":"view"},{"type":"function","name":"byString","inputs":[{"name":"","type":"string","internalType":"string"}],"outputs":[{"name":"","type":"uint256","internalType":"uint256"}],"stateMutability":"view"},{"type":"function","name":"setByBytes32","inputs":[{"name":"id","type":"bytes32","internalType":"bytes32"},{"name":"value","type":"uint256","internalType":"uint256"}],"outputs":[],"stateMutability":"nonpayable"},{"type":"function","name":"setByString","inputs":[{"name":"id","type":"string","internalType":"string"},{"name":"value","type":"uint256","internalType":"uint256"}],"outputs":[],"stateMutability":"nonpayable"}],"bytecode":{"object":"0x608060405234801561000f575f80fd5b5061052b8061001d5f395ff3fe608060405234801561000f575f80fd5b506004361061004a575f3560e01c806318942f171461004e5780637ff5a8ce1461007e578063ef6eccad146100ae578063f2bd9155146100ca575b5f80fd5b610068600480360381019061006391906101ae565b6100e6565b60405161007591906101f1565b60405180910390f35b61009860048036038101906100939190610346565b6100fb565b6040516100a591906101f1565b60405180910390f35b6100c860048036038101906100c39190610414565b610127565b005b6100e460048036038101906100df9190610471565b610150565b005b6001602052805f5260405f205f915090505481565b5f818051602081018201805184825260208301602085012081835280955050505050505f915090505481565b805f84846040516101399291906104dd565b908152602001604051809103902081905550505050565b8060015f8481526020019081526020015f20819055505050565b5f604051905090565b5f80fd5b5f80fd5b5f819050919050565b61018d8161017b565b8114610197575f80fd5b50565b5f813590506101a881610184565b92915050565b5f602082840312156101c3576101c2610173565b5b5f6101d08482850161019a565b91505092915050565b5f819050919050565b6101eb816101d9565b82525050565b5f6020820190506102045f8301846101e2565b92915050565b5f80fd5b5f80fd5b5f601f19601f8301169050919050565b7f4e487b71000000000000000000000000000000000000000000000000000000005f52604160045260245ffd5b61025882610212565b810181811067ffffffffffffffff8211171561027757610276610222565b5b80604052505050565b5f61028961016a565b9050610295828261024f565b919050565b5f67ffffffffffffffff8211156102b4576102b3610222565b5b6102bd82610212565b9050602081019050919050565b828183375f83830152505050565b5f6102ea6102e58461029a565b610280565b9050828152602081018484840111156103065761030561020e565b5b6103118482856102ca565b509392505050565b5f82601f83011261032d5761032c61020a565b5b813561033d8482602086016102d8565b91505092915050565b5f6020828403121561035b5761035a610173565b5b5f82013567ffffffffffffffff81111561037857610377610177565b5b61038484828501610319565b91505092915050565b5f80fd5b5f80fd5b5f8083601f8401126103aa576103a961020a565b5b8235905067ffffffffffffffff8111156103c7576103c661038d565b5b6020830191508360018202830111156103e3576103e2610391565b5b9250929050565b6103f3816101d9565b81146103fd575f80fd5b50565b5f8135905061040e816103ea565b92915050565b5f805f6040848603121561042b5761042a610173565b5b5f84013567ffffffffffffffff81111561044857610447610177565b5b61045486828701610395565b9350935050602061046786828701610400565b9150509250925092565b5f806040838503121561048757610486610173565b5b5f6104948582860161019a565b92505060206104a585828601610400565b9150509250929050565b5f81905092915050565b5f6104c483856104af565b93506104d18385846102ca565b82840190509392505050565b5f6104e98284866104b9565b9150819050939250505056fea2646970667358221220fd6cc6bbd8e6fdbf515f3522e6f2fcabba69bdcf414e5421a68ae86dd14aba8664736f6c63430008180033","linkReferences":{}},"methodIdentifiers":{"byBytes32(bytes32)":"18942f17","byString(string)":"7ff5a8ce","setByBytes32(bytes32,uint256)":"f2bd9155","setByString(string,uint256)":"ef6eccad"},"id":19}