{"abi":[{"type":"function","name":"sumChecked","inputs":[{"name":"limit","type":"uint256","internalType":"uint256"}],"outputs":[{"name":"total","type":"uint256","internalType":"uint256"}],"stateMutability":"pure"},{"type":"function","name":"sumUnchecked","inputs":[{"name":"limit","type":"uint256","internalType":"uint256"}],"outputs":[{"name":"total","type":"uint256","internalType":"uint256"}],"stateMutability":"pure"}],"bytecode":{"object":"0x608060405234801561000f575f80fd5b506102128061001d5f395ff3fe608060405234801561000f575f80fd5b5060043610610034575f3560e01c80631ad1f56014610038578063859198d614610068575b5f80fd5b610052600480360381019061004d9190610129565b610098565b60405161005f9190610163565b60405180910390f35b610082600480360381019061007d9190610129565b6100c5565b60405161008f9190610163565b60405180910390f35b5f805f90505b828110156100bf5780826100b291906101a9565b915080600101905061009e565b50919050565b5f805f90505b828110156100ec5780826100df91906101a9565b91508060010190506100cb565b50919050565b5f80fd5b5f819050919050565b610108816100f6565b8114610112575f80fd5b50565b5f81359050610123816100ff565b92915050565b5f6020828403121561013e5761013d6100f2565b5b5f61014b84828501610115565b91505092915050565b61015d816100f6565b82525050565b5f6020820190506101765f830184610154565b92915050565b7f4e487b71000000000000000000000000000000000000000000000000000000005f52601160045260245ffd5b5f6101b3826100f6565b91506101be836100f6565b92508282019050808211156101d6576101d561017c565b5b9291505056fea2646970667358221220eb4b3574530396d54b21d2df17c1482f1d04f2dace1eb098d87a14bc9d6199bd64736f6c63430008180033","linkReferences":{}},"methodIdentifiers":{"sumChecked(uint256)":"1ad1f560","sumUnchecked(uint256)":"859198d6"},"id":19}