{"abi":[{"type":"function","name":"packed","inputs":[],"outputs":[{"name":"amount","type":"uint128","internalType":"uint128"},{"name":"lastUpdated","type":"uint64","internalType":"uint64"},{"name":"active","type":"bool","internalType":"bool"}],"stateMutability":"view"},{"type":"function","name":"unpacked","inputs":[],"outputs":[{"name":"amount","type":"uint256","internalType":"uint256"},{"name":"lastUpdated","type":"uint256","internalType":"uint256"},{"name":"active","type":"bool","internalType":"bool"}],"stateMutability":"view"},{"type":"function","name":"writePacked","inputs":[{"name":"amount","type":"uint128","internalType":"uint128"},{"name":"active","type":"bool","internalType":"bool"},{"name":"lastUpdated","type":"uint64","internalType":"uint64"}],"outputs":[],"stateMutability":"nonpayable"},{"type":"function","name":"writeUnpacked","inputs":[{"name":"amount","type":"uint256","internalType":"uint256"},{"name":"active","type":"bool","internalType":"bool"},{"name":"lastUpdated","type":"uint256","internalType":"uint256"}],"outputs":[],"stateMutability":"nonpayable"}],"bytecode":{"object":"0x608060405234801561000f575f80fd5b506104c68061001d5f395ff3fe608060405234801561000f575f80fd5b506004361061004a575f3560e01c80633356a0231461004e5780633ab0bb421461006a57806376d04cf2146100865780638f23d5f6146100a6575b5f80fd5b610068600480360381019061006391906102c8565b6100c6565b005b610084600480360381019061007f919061039a565b61011d565b005b61008e6101e9565b60405161009d93929190610408565b60405180910390f35b6100ae61020b565b6040516100bd9392919061045b565b60405180910390f35b60405180606001604052808481526020018281526020018315158152505f80820151815f0155602082015181600101556040820151816002015f6101000a81548160ff021916908315150217905550905050505050565b6040518060600160405280846fffffffffffffffffffffffffffffffff1681526020018267ffffffffffffffff16815260200183151581525060035f820151815f015f6101000a8154816fffffffffffffffffffffffffffffffff02191690836fffffffffffffffffffffffffffffffff1602179055506020820151815f0160106101000a81548167ffffffffffffffff021916908367ffffffffffffffff1602179055506040820151815f0160186101000a81548160ff021916908315150217905550905050505050565b5f805f015490806001015490806002015f9054906101000a900460ff16905083565b6003805f015f9054906101000a90046fffffffffffffffffffffffffffffffff1690805f0160109054906101000a900467ffffffffffffffff1690805f0160189054906101000a900460ff16905083565b5f80fd5b5f819050919050565b61027281610260565b811461027c575f80fd5b50565b5f8135905061028d81610269565b92915050565b5f8115159050919050565b6102a781610293565b81146102b1575f80fd5b50565b5f813590506102c28161029e565b92915050565b5f805f606084860312156102df576102de61025c565b5b5f6102ec8682870161027f565b93505060206102fd868287016102b4565b925050604061030e8682870161027f565b9150509250925092565b5f6fffffffffffffffffffffffffffffffff82169050919050565b61033c81610318565b8114610346575f80fd5b50565b5f8135905061035781610333565b92915050565b5f67ffffffffffffffff82169050919050565b6103798161035d565b8114610383575f80fd5b50565b5f8135905061039481610370565b92915050565b5f805f606084860312156103b1576103b061025c565b5b5f6103be86828701610349565b93505060206103cf868287016102b4565b92505060406103e086828701610386565b9150509250925092565b6103f381610260565b82525050565b61040281610293565b82525050565b5f60608201905061041b5f8301866103ea565b61042860208301856103ea565b61043560408301846103f9565b949350505050565b61044681610318565b82525050565b6104558161035d565b82525050565b5f60608201905061046e5f83018661043d565b61047b602083018561044c565b61048860408301846103f9565b94935050505056fea2646970667358221220c9a2930775001179513905642ab0f251ce3dbe7200b3f9b1e41d880b570498f364736f6c63430008180033","linkReferences":{}},"methodIdentifiers":{"packed()":"8f23d5f6","unpacked()":"76d04cf2","writePacked(uint128,bool,uint64)":"3ab0bb42","writeUnpacked(uint256,bool,uint256)":"3356a023"},"id":19}