{"abi":[{"type":"function","name":"total","inputs":[],"outputs":[{"name":"","type":"uint256","internalType":"uint256"}],"stateMutability":"view"},{"type":"function","name":"writeMultipleTimes","inputs":[{"name":"amount","type":"uint256","internalType":"uint256"}],"outputs":[],"stateMutability":"nonpayable"},{"type":"function","name":"writeOnce","inputs":[{"name":"amount","type":"uint256","internalType":"uint256"}],"outputs":[],"stateMutability":"nonpayable"}],"bytecode":{"object":"0x608060405234801561000f575f80fd5b5061020c8061001d5f395ff3fe608060405234801561000f575f80fd5b506004361061003f575f3560e01c8063130c0ce8146100435780632ddbd13a1461005f5780635ba9c8fc1461007d575b5f80fd5b61005d60048036038101906100589190610123565b610099565b005b6100676100bf565b604051610074919061015d565b60405180910390f35b61009760048036038101906100929190610123565b6100c4565b005b5f6001825f546100a991906101a3565b6100b391906101a3565b9050805f819055505050565b5f5481565b805f546100d191906101a3565b5f8190555060015f546100e491906101a3565b5f8190555050565b5f80fd5b5f819050919050565b610102816100f0565b811461010c575f80fd5b50565b5f8135905061011d816100f9565b92915050565b5f60208284031215610138576101376100ec565b5b5f6101458482850161010f565b91505092915050565b610157816100f0565b82525050565b5f6020820190506101705f83018461014e565b92915050565b7f4e487b71000000000000000000000000000000000000000000000000000000005f52601160045260245ffd5b5f6101ad826100f0565b91506101b8836100f0565b92508282019050808211156101d0576101cf610176565b5b9291505056fea264697066735822122019fdc83771c0a7a6de5920669f84710870d9a9aef240892893758ee6fcd8c00c64736f6c63430008180033","linkReferences":{}},"methodIdentifiers":{"total()":"2ddbd13a","writeMultipleTimes(uint256)":"5ba9c8fc","writeOnce(uint256)":"130c0ce8"},"id":19}