{"abi":[{"type":"function","name":"amountA","inputs":[],"outputs":[{"name":"","type":"uint256","internalType":"uint256"}],"stateMutability":"view"},{"type":"function","name":"amountB","inputs":[],"outputs":[{"name":"","type":"uint256","internalType":"uint256"}],"stateMutability":"view"},{"type":"function","name":"feeBps","inputs":[],"outputs":[{"name":"","type":"uint256","internalType":"uint256"}],"stateMutability":"view"},{"type":"function","name":"quoteWithCache","inputs":[],"outputs":[{"name":"totalFee","type":"uint256","internalType":"uint256"}],"stateMutability":"view"},{"type":"function","name":"quoteWithoutCache","inputs":[],"outputs":[{"name":"totalFee","type":"uint256","internalType":"uint256"}],"stateMutability":"view"}],"bytecode":{"object":"0x6080604052601e5f55671bc16d674ec80000600155673782dace9d90000060025534801561002b575f80fd5b5061030d806100395f395ff3fe608060405234801561000f575f80fd5b5060043610610055575f3560e01c8063156dcbf01461005957806324a9d853146100775780632efe91ef1461009557806399a71e80146100b3578063c0c28fad146100d1575b5f80fd5b6100616100ef565b60405161006e91906101c0565b60405180910390f35b61007f6100f5565b60405161008c91906101c0565b60405180910390f35b61009d6100fa565b6040516100aa91906101c0565b60405180910390f35b6100bb610100565b6040516100c891906101c0565b60405180910390f35b6100d9610156565b6040516100e691906101c0565b60405180910390f35b60015481565b5f5481565b60025481565b5f805f5490505f612710826001546101189190610206565b6101229190610274565b90505f612710836002546101369190610206565b6101409190610274565b9050808261014e91906102a4565b935050505090565b5f806127105f5460015461016a9190610206565b6101749190610274565b90505f6127105f546002546101899190610206565b6101939190610274565b905080826101a191906102a4565b9250505090565b5f819050919050565b6101ba816101a8565b82525050565b5f6020820190506101d35f8301846101b1565b92915050565b7f4e487b71000000000000000000000000000000000000000000000000000000005f52601160045260245ffd5b5f610210826101a8565b915061021b836101a8565b9250828202610229816101a8565b915082820484148315176102405761023f6101d9565b5b5092915050565b7f4e487b71000000000000000000000000000000000000000000000000000000005f52601260045260245ffd5b5f61027e826101a8565b9150610289836101a8565b92508261029957610298610247565b5b828204905092915050565b5f6102ae826101a8565b91506102b9836101a8565b92508282019050808211156102d1576102d06101d9565b5b9291505056fea2646970667358221220df7a342a8a992aa4600b468ca66f8639c03c9bcaf4e7a0b9c35a86719c47f35364736f6c63430008180033","linkReferences":{}},"methodIdentifiers":{"amountA()":"156dcbf0","amountB()":"2efe91ef","feeBps()":"24a9d853","quoteWithCache()":"99a71e80","quoteWithoutCache()":"c0c28fad"},"id":19}