{"abi":[{"type":"function","name":"sumExternal","inputs":[{"name":"values","type":"uint256[]","internalType":"uint256[]"}],"outputs":[{"name":"total","type":"uint256","internalType":"uint256"}],"stateMutability":"pure"},{"type":"function","name":"sumPublic","inputs":[{"name":"values","type":"uint256[]","internalType":"uint256[]"}],"outputs":[{"name":"total","type":"uint256","internalType":"uint256"}],"stateMutability":"pure"}],"bytecode":{"object":"0x608060405234801561000f575f80fd5b506102d88061001d5f395ff3fe608060405234801561000f575f80fd5b5060043610610034575f3560e01c80638283bf6414610038578063cc3c75c914610068575b5f80fd5b610052600480360381019061004d9190610199565b610098565b60405161005f91906101fc565b60405180910390f35b610082600480360381019061007d9190610199565b6100e4565b60405161008f91906101fc565b60405180910390f35b5f808383905090505f5b818110156100dc578484828181106100bd576100bc610215565b5b90506020020135836100cf919061026f565b92508060010190506100a2565b505092915050565b5f808383905090505f5b818110156101285784848281811061010957610108610215565b5b905060200201358361011b919061026f565b92508060010190506100ee565b505092915050565b5f80fd5b5f80fd5b5f80fd5b5f80fd5b5f80fd5b5f8083601f84011261015957610158610138565b5b8235905067ffffffffffffffff8111156101765761017561013c565b5b60208301915083602082028301111561019257610191610140565b5b9250929050565b5f80602083850312156101af576101ae610130565b5b5f83013567ffffffffffffffff8111156101cc576101cb610134565b5b6101d885828601610144565b92509250509250929050565b5f819050919050565b6101f6816101e4565b82525050565b5f60208201905061020f5f8301846101ed565b92915050565b7f4e487b71000000000000000000000000000000000000000000000000000000005f52603260045260245ffd5b7f4e487b71000000000000000000000000000000000000000000000000000000005f52601160045260245ffd5b5f610279826101e4565b9150610284836101e4565b925082820190508082111561029c5761029b610242565b5b9291505056fea2646970667358221220a5e8c17e21206b886baac57ad89ba22ac0eabc57c9eac4ec5b34a34936da1f6564736f6c63430008180033","linkReferences":{}},"methodIdentifiers":{"sumExternal(uint256[])":"cc3c75c9","sumPublic(uint256[])":"8283bf64"},"id":19}