{"abi":[{"type":"constructor","inputs":[{"name":"targetAddress","type":"address","internalType":"address"}],"stateMutability":"nonpayable"},{"type":"receive","stateMutability":"payable"},{"type":"function","name":"TARGET","inputs":[],"outputs":[{"name":"","type":"address","internalType":"contract FixedEtherVault"}],"stateMutability":"view"},{"type":"function","name":"attack","inputs":[],"outputs":[],"stateMutability":"payable"},{"type":"function","name":"attackAmount","inputs":[],"outputs":[{"name":"","type":"uint256","internalType":"uint256"}],"stateMutability":"view"}],"bytecode":{"object":"0x60a060405234801561000f575f80fd5b5060405161055e38038061055e833981810160405281019061003191906100c9565b8073ffffffffffffffffffffffffffffffffffffffff1660808173ffffffffffffffffffffffffffffffffffffffff1681525050506100f4565b5f80fd5b5f73ffffffffffffffffffffffffffffffffffffffff82169050919050565b5f6100988261006f565b9050919050565b6100a88161008e565b81146100b2575f80fd5b50565b5f815190506100c38161009f565b92915050565b5f602082840312156100de576100dd61006b565b5b5f6100eb848285016100b5565b91505092915050565b6080516104386101265f395f8181604001528181607d015281816101aa0152818161022701526102a401526104385ff3fe608060405260043610610037575f3560e01c806388193565146100fd5780639e5faafc14610127578063cc1f2afa14610131576100f9565b366100f9575f547f000000000000000000000000000000000000000000000000000000000000000073ffffffffffffffffffffffffffffffffffffffff1631106100f7577f000000000000000000000000000000000000000000000000000000000000000073ffffffffffffffffffffffffffffffffffffffff16633ccfd60b6040518163ffffffff1660e01b81526004015f604051808303815f87803b1580156100e0575f80fd5b505af11580156100f2573d5f803e3d5ffd5b505050505b005b5f80fd5b348015610108575f80fd5b5061011161015b565b60405161011e91906102de565b60405180910390f35b61012f610160565b005b34801561013c575f80fd5b506101456102a2565b6040516101529190610371565b60405180910390f35b5f5481565b5f34116101a2576040517f08c379a0000000000000000000000000000000000000000000000000000000008152600401610199906103e4565b60405180910390fd5b345f819055507f000000000000000000000000000000000000000000000000000000000000000073ffffffffffffffffffffffffffffffffffffffff1663d0e30db0346040518263ffffffff1660e01b81526004015f604051808303818588803b15801561020e575f80fd5b505af1158015610220573d5f803e3d5ffd5b50505050507f000000000000000000000000000000000000000000000000000000000000000073ffffffffffffffffffffffffffffffffffffffff16633ccfd60b6040518163ffffffff1660e01b81526004015f604051808303815f87803b15801561028a575f80fd5b505af115801561029c573d5f803e3d5ffd5b50505050565b7f000000000000000000000000000000000000000000000000000000000000000081565b5f819050919050565b6102d8816102c6565b82525050565b5f6020820190506102f15f8301846102cf565b92915050565b5f73ffffffffffffffffffffffffffffffffffffffff82169050919050565b5f819050919050565b5f61033961033461032f846102f7565b610316565b6102f7565b9050919050565b5f61034a8261031f565b9050919050565b5f61035b82610340565b9050919050565b61036b81610351565b82525050565b5f6020820190506103845f830184610362565b92915050565b5f82825260208201905092915050565b7f73656564207265717569726564000000000000000000000000000000000000005f82015250565b5f6103ce600d8361038a565b91506103d98261039a565b602082019050919050565b5f6020820190508181035f8301526103fb816103c2565b905091905056fea26469706673582212203225ea42f08cf1ce173b8a8f1a68a65d1ffea80069a9362faf5bd73a5e2d5aeb64736f6c63430008180033","linkReferences":{}},"methodIdentifiers":{"TARGET()":"cc1f2afa","attack()":"9e5faafc","attackAmount()":"88193565"},"id":29}