{"abi":[{"type":"function","name":"balances","inputs":[{"name":"","type":"address","internalType":"address"}],"outputs":[{"name":"","type":"uint256","internalType":"uint256"}],"stateMutability":"view"},{"type":"function","name":"deposit","inputs":[],"outputs":[],"stateMutability":"payable"},{"type":"function","name":"vaultBalance","inputs":[],"outputs":[{"name":"","type":"uint256","internalType":"uint256"}],"stateMutability":"view"},{"type":"function","name":"withdraw","inputs":[],"outputs":[],"stateMutability":"nonpayable"}],"bytecode":{"object":"0x608060405234801561000f575f80fd5b5061060a8061001d5f395ff3fe60806040526004361061003e575f3560e01c80630bf6cc081461004257806327e235e31461006c5780633ccfd60b146100a8578063d0e30db0146100be575b5f80fd5b34801561004d575f80fd5b506100566100c8565b6040516100639190610349565b60405180910390f35b348015610077575f80fd5b50610092600480360381019061008d91906103c0565b6100cf565b60405161009f9190610349565b60405180910390f35b3480156100b3575f80fd5b506100bc6100e3565b005b6100c661016e565b005b5f47905090565b5f602052805f5260405f205f915090505481565b60015f9054906101000a900460ff1615610132576040517f08c379a000000000000000000000000000000000000000000000000000000000815260040161012990610445565b60405180910390fd5b6001805f6101000a81548160ff0219169083151502179055506101536101c2565b5f60015f6101000a81548160ff021916908315150217905550565b345f803373ffffffffffffffffffffffffffffffffffffffff1673ffffffffffffffffffffffffffffffffffffffff1681526020019081526020015f205f8282546101b99190610490565b92505081905550565b5f805f3373ffffffffffffffffffffffffffffffffffffffff1673ffffffffffffffffffffffffffffffffffffffff1681526020019081526020015f205490505f8111610244576040517f08c379a000000000000000000000000000000000000000000000000000000000815260040161023b9061050d565b60405180910390fd5b5f3373ffffffffffffffffffffffffffffffffffffffff168260405161026990610558565b5f6040518083038185875af1925050503d805f81146102a3576040519150601f19603f3d011682016040523d82523d5f602084013e6102a8565b606091505b50509050806102ec576040517f08c379a00000000000000000000000000000000000000000000000000000000081526004016102e3906105b6565b60405180910390fd5b5f805f3373ffffffffffffffffffffffffffffffffffffffff1673ffffffffffffffffffffffffffffffffffffffff1681526020019081526020015f20819055505050565b5f819050919050565b61034381610331565b82525050565b5f60208201905061035c5f83018461033a565b92915050565b5f80fd5b5f73ffffffffffffffffffffffffffffffffffffffff82169050919050565b5f61038f82610366565b9050919050565b61039f81610385565b81146103a9575f80fd5b50565b5f813590506103ba81610396565b92915050565b5f602082840312156103d5576103d4610362565b5b5f6103e2848285016103ac565b91505092915050565b5f82825260208201905092915050565b7f7265656e7472616e742063616c6c0000000000000000000000000000000000005f82015250565b5f61042f600e836103eb565b915061043a826103fb565b602082019050919050565b5f6020820190508181035f83015261045c81610423565b9050919050565b7f4e487b71000000000000000000000000000000000000000000000000000000005f52601160045260245ffd5b5f61049a82610331565b91506104a583610331565b92508282019050808211156104bd576104bc610463565b5b92915050565b7f6e6f7468696e6720746f207769746864726177000000000000000000000000005f82015250565b5f6104f76013836103eb565b9150610502826104c3565b602082019050919050565b5f6020820190508181035f830152610524816104eb565b9050919050565b5f81905092915050565b50565b5f6105435f8361052b565b915061054e82610535565b5f82019050919050565b5f61056282610538565b9150819050919050565b7f73656e64206661696c65640000000000000000000000000000000000000000005f82015250565b5f6105a0600b836103eb565b91506105ab8261056c565b602082019050919050565b5f6020820190508181035f8301526105cd81610594565b905091905056fea2646970667358221220ab7a74e183c1fe1978348f36d08efb631dd5f29ce4a51a8b6ed652641e9f32db64736f6c63430008180033","linkReferences":{}},"methodIdentifiers":{"balances(address)":"27e235e3","deposit()":"d0e30db0","vaultBalance()":"0bf6cc08","withdraw()":"3ccfd60b"},"id":19}