{"abi":[{"type":"constructor","inputs":[{"name":"walletOwner","type":"address","internalType":"address"}],"stateMutability":"payable"},{"type":"receive","stateMutability":"payable"},{"type":"function","name":"OWNER","inputs":[],"outputs":[{"name":"","type":"address","internalType":"address"}],"stateMutability":"view"},{"type":"function","name":"transferAll","inputs":[{"name":"recipient","type":"address","internalType":"address payable"}],"outputs":[],"stateMutability":"nonpayable"}],"bytecode":{"object":"0x60a0604052604051610505380380610505833981810160405281019061002591906100bd565b8073ffffffffffffffffffffffffffffffffffffffff1660808173ffffffffffffffffffffffffffffffffffffffff1681525050506100e8565b5f80fd5b5f73ffffffffffffffffffffffffffffffffffffffff82169050919050565b5f61008c82610063565b9050919050565b61009c81610082565b81146100a6575f80fd5b50565b5f815190506100b781610093565b92915050565b5f602082840312156100d2576100d161005f565b5b5f6100df848285016100a9565b91505092915050565b6080516104006101055f395f8181608b015260af01526104005ff3fe60806040526004361061002c575f3560e01c8063117803e314610037578063a3a7e7f31461006157610033565b3661003357005b5f80fd5b348015610042575f80fd5b5061004b610089565b6040516100589190610226565b60405180910390f35b34801561006c575f80fd5b506100876004803603810190610082919061027e565b6100ad565b005b7f000000000000000000000000000000000000000000000000000000000000000081565b7f000000000000000000000000000000000000000000000000000000000000000073ffffffffffffffffffffffffffffffffffffffff163373ffffffffffffffffffffffffffffffffffffffff161461013b576040517f08c379a000000000000000000000000000000000000000000000000000000000815260040161013290610303565b60405180910390fd5b5f8173ffffffffffffffffffffffffffffffffffffffff16476040516101609061034e565b5f6040518083038185875af1925050503d805f811461019a576040519150601f19603f3d011682016040523d82523d5f602084013e61019f565b606091505b50509050806101e3576040517f08c379a00000000000000000000000000000000000000000000000000000000081526004016101da906103ac565b60405180910390fd5b5050565b5f73ffffffffffffffffffffffffffffffffffffffff82169050919050565b5f610210826101e7565b9050919050565b61022081610206565b82525050565b5f6020820190506102395f830184610217565b92915050565b5f80fd5b5f61024d826101e7565b9050919050565b61025d81610243565b8114610267575f80fd5b50565b5f8135905061027881610254565b92915050565b5f602082840312156102935761029261023f565b5b5f6102a08482850161026a565b91505092915050565b5f82825260208201905092915050565b7f6e6f74206f776e65722073656e646572000000000000000000000000000000005f82015250565b5f6102ed6010836102a9565b91506102f8826102b9565b602082019050919050565b5f6020820190508181035f83015261031a816102e1565b9050919050565b5f81905092915050565b50565b5f6103395f83610321565b91506103448261032b565b5f82019050919050565b5f6103588261032e565b9150819050919050565b7f7472616e73666572206661696c656400000000000000000000000000000000005f82015250565b5f610396600f836102a9565b91506103a182610362565b602082019050919050565b5f6020820190508181035f8301526103c38161038a565b905091905056fea264697066735822122049d0ada0e524cb245ef1866b4b86af20c6ca823a8a1a089cbe11e3b0993b255864736f6c63430008180033","linkReferences":{}},"methodIdentifiers":{"OWNER()":"117803e3","transferAll(address)":"a3a7e7f3"},"id":37}