{"abi":[{"type":"constructor","inputs":[{"name":"walletOwner","type":"address","internalType":"address"}],"stateMutability":"payable"},{"type":"receive","stateMutability":"payable"},{"type":"function","name":"OWNER","inputs":[],"outputs":[{"name":"","type":"address","internalType":"address"}],"stateMutability":"view"},{"type":"function","name":"transferAll","inputs":[{"name":"recipient","type":"address","internalType":"address payable"}],"outputs":[],"stateMutability":"nonpayable"}],"bytecode":{"object":"0x60a0604052604051610510380380610510833981810160405281019061002591906100bd565b8073ffffffffffffffffffffffffffffffffffffffff1660808173ffffffffffffffffffffffffffffffffffffffff1681525050506100e8565b5f80fd5b5f73ffffffffffffffffffffffffffffffffffffffff82169050919050565b5f61008c82610063565b9050919050565b61009c81610082565b81146100a6575f80fd5b50565b5f815190506100b781610093565b92915050565b5f602082840312156100d2576100d161005f565b5b5f6100df848285016100a9565b91505092915050565b60805161040a6101065f395f8181608b0152610163015261040a5ff3fe60806040526004361061002c575f3560e01c8063117803e314610037578063a3a7e7f31461006157610033565b3661003357005b5f80fd5b348015610042575f80fd5b5061004b610089565b6040516100589190610230565b60405180910390f35b34801561006c575f80fd5b5061008760048036038101906100829190610288565b6100ad565b005b7f000000000000000000000000000000000000000000000000000000000000000081565b6100b5610161565b5f8173ffffffffffffffffffffffffffffffffffffffff16476040516100da906102e0565b5f6040518083038185875af1925050503d805f8114610114576040519150601f19603f3d011682016040523d82523d5f602084013e610119565b606091505b505090508061015d576040517f08c379a00000000000000000000000000000000000000000000000000000000081526004016101549061034e565b60405180910390fd5b5050565b7f000000000000000000000000000000000000000000000000000000000000000073ffffffffffffffffffffffffffffffffffffffff163273ffffffffffffffffffffffffffffffffffffffff16146101ef576040517f08c379a00000000000000000000000000000000000000000000000000000000081526004016101e6906103b6565b60405180910390fd5b565b5f73ffffffffffffffffffffffffffffffffffffffff82169050919050565b5f61021a826101f1565b9050919050565b61022a81610210565b82525050565b5f6020820190506102435f830184610221565b92915050565b5f80fd5b5f610257826101f1565b9050919050565b6102678161024d565b8114610271575f80fd5b50565b5f813590506102828161025e565b92915050565b5f6020828403121561029d5761029c610249565b5b5f6102aa84828501610274565b91505092915050565b5f81905092915050565b50565b5f6102cb5f836102b3565b91506102d6826102bd565b5f82019050919050565b5f6102ea826102c0565b9150819050919050565b5f82825260208201905092915050565b7f7472616e73666572206661696c656400000000000000000000000000000000005f82015250565b5f610338600f836102f4565b915061034382610304565b602082019050919050565b5f6020820190508181035f8301526103658161032c565b9050919050565b7f6e6f74206f776e6572206f726967696e000000000000000000000000000000005f82015250565b5f6103a06010836102f4565b91506103ab8261036c565b602082019050919050565b5f6020820190508181035f8301526103cd81610394565b905091905056fea264697066735822122026d64a6bbe4df0eeca3c8fe13eb593d82a0dad592b6e8f8690eac63ebc4caee764736f6c63430008180033","linkReferences":{}},"methodIdentifiers":{"OWNER()":"117803e3","transferAll(address)":"a3a7e7f3"},"id":19}