{"abi":[{"type":"constructor","inputs":[{"name":"vaultOwner","type":"address","internalType":"address"}],"stateMutability":"nonpayable"},{"type":"function","name":"OWNER","inputs":[],"outputs":[{"name":"","type":"address","internalType":"address"}],"stateMutability":"view"},{"type":"function","name":"deposit","inputs":[],"outputs":[],"stateMutability":"payable"},{"type":"function","name":"sweep","inputs":[{"name":"to","type":"address","internalType":"address payable"}],"outputs":[],"stateMutability":"nonpayable"}],"bytecode":{"object":"0x60a060405234801561000f575f80fd5b5060405161051e38038061051e833981810160405281019061003191906100c9565b8073ffffffffffffffffffffffffffffffffffffffff1660808173ffffffffffffffffffffffffffffffffffffffff1681525050506100f4565b5f80fd5b5f73ffffffffffffffffffffffffffffffffffffffff82169050919050565b5f6100988261006f565b9050919050565b6100a88161008e565b81146100b2575f80fd5b50565b5f815190506100c38161009f565b92915050565b5f602082840312156100de576100dd61006b565b5b5f6100eb848285016100b5565b91505092915050565b60805161040c6101125f395f8181609501526101cf015261040c5ff3fe608060405260043610610033575f3560e01c806301681a6214610037578063117803e31461005f578063d0e30db014610089575b5f80fd5b348015610042575f80fd5b5061005d60048036038101906100589190610251565b610093565b005b34801561006a575f80fd5b506100736101cd565b604051610080919061029c565b60405180910390f35b6100916101f1565b005b7f000000000000000000000000000000000000000000000000000000000000000073ffffffffffffffffffffffffffffffffffffffff163373ffffffffffffffffffffffffffffffffffffffff1614610121576040517f08c379a00000000000000000000000000000000000000000000000000000000081526004016101189061030f565b60405180910390fd5b5f8173ffffffffffffffffffffffffffffffffffffffff16476040516101469061035a565b5f6040518083038185875af1925050503d805f8114610180576040519150601f19603f3d011682016040523d82523d5f602084013e610185565b606091505b50509050806101c9576040517f08c379a00000000000000000000000000000000000000000000000000000000081526004016101c0906103b8565b60405180910390fd5b5050565b7f000000000000000000000000000000000000000000000000000000000000000081565b565b5f80fd5b5f73ffffffffffffffffffffffffffffffffffffffff82169050919050565b5f610220826101f7565b9050919050565b61023081610216565b811461023a575f80fd5b50565b5f8135905061024b81610227565b92915050565b5f60208284031215610266576102656101f3565b5b5f6102738482850161023d565b91505092915050565b5f610286826101f7565b9050919050565b6102968161027c565b82525050565b5f6020820190506102af5f83018461028d565b92915050565b5f82825260208201905092915050565b7f6e6f74206f776e657200000000000000000000000000000000000000000000005f82015250565b5f6102f96009836102b5565b9150610304826102c5565b602082019050919050565b5f6020820190508181035f830152610326816102ed565b9050919050565b5f81905092915050565b50565b5f6103455f8361032d565b915061035082610337565b5f82019050919050565b5f6103648261033a565b9150819050919050565b7f7472616e73666572206661696c656400000000000000000000000000000000005f82015250565b5f6103a2600f836102b5565b91506103ad8261036e565b602082019050919050565b5f6020820190508181035f8301526103cf81610396565b905091905056fea2646970667358221220b760ca4dee8da20302530a0b9b50bb04d6c5f499ae5ac14c3dbf0aed9586770864736f6c63430008180033","linkReferences":{}},"methodIdentifiers":{"OWNER()":"117803e3","deposit()":"d0e30db0","sweep(address)":"01681a62"},"id":19}