{"abi":[{"type":"constructor","inputs":[{"name":"vaultOwner","type":"address","internalType":"address"}],"stateMutability":"nonpayable"},{"type":"function","name":"OWNER","inputs":[],"outputs":[{"name":"","type":"address","internalType":"address"}],"stateMutability":"view"},{"type":"function","name":"deposit","inputs":[],"outputs":[],"stateMutability":"payable"},{"type":"function","name":"initialize","inputs":[{"name":"","type":"address","internalType":"address"}],"outputs":[],"stateMutability":"pure"},{"type":"function","name":"owner","inputs":[],"outputs":[{"name":"","type":"address","internalType":"address"}],"stateMutability":"view"},{"type":"function","name":"sweep","inputs":[{"name":"to","type":"address","internalType":"address payable"}],"outputs":[],"stateMutability":"nonpayable"}],"bytecode":{"object":"0x60a060405234801561000f575f80fd5b5060405161069a38038061069a833981810160405281019061003191906100c9565b8073ffffffffffffffffffffffffffffffffffffffff1660808173ffffffffffffffffffffffffffffffffffffffff1681525050506100f4565b5f80fd5b5f73ffffffffffffffffffffffffffffffffffffffff82169050919050565b5f6100988261006f565b9050919050565b6100a88161008e565b81146100b2575f80fd5b50565b5f815190506100c38161009f565b92915050565b5f602082840312156100de576100dd61006b565b5b5f6100eb848285016100b5565b91505092915050565b60805161058e61010c5f395f610236015261058e5ff3fe608060405260043610610049575f3560e01c806301681a621461004d578063117803e3146100755780638da5cb5b1461009f578063c4d66de8146100c9578063d0e30db0146100f1575b5f80fd5b348015610058575f80fd5b50610073600480360381019061006e9190610316565b6100fb565b005b348015610080575f80fd5b50610089610234565b6040516100969190610361565b60405180910390f35b3480156100aa575f80fd5b506100b3610258565b6040516100c09190610361565b60405180910390f35b3480156100d4575f80fd5b506100ef60048036038101906100ea91906103a4565b61027b565b005b6100f96102b6565b005b5f8054906101000a900473ffffffffffffffffffffffffffffffffffffffff1673ffffffffffffffffffffffffffffffffffffffff163373ffffffffffffffffffffffffffffffffffffffff1614610188576040517f08c379a000000000000000000000000000000000000000000000000000000000815260040161017f90610429565b60405180910390fd5b5f8173ffffffffffffffffffffffffffffffffffffffff16476040516101ad90610474565b5f6040518083038185875af1925050503d805f81146101e7576040519150601f19603f3d011682016040523d82523d5f602084013e6101ec565b606091505b5050905080610230576040517f08c379a0000000000000000000000000000000000000000000000000000000008152600401610227906104d2565b60405180910390fd5b5050565b7f000000000000000000000000000000000000000000000000000000000000000081565b5f8054906101000a900473ffffffffffffffffffffffffffffffffffffffff1681565b6040517f08c379a00000000000000000000000000000000000000000000000000000000081526004016102ad9061053a565b60405180910390fd5b565b5f80fd5b5f73ffffffffffffffffffffffffffffffffffffffff82169050919050565b5f6102e5826102bc565b9050919050565b6102f5816102db565b81146102ff575f80fd5b50565b5f81359050610310816102ec565b92915050565b5f6020828403121561032b5761032a6102b8565b5b5f61033884828501610302565b91505092915050565b5f61034b826102bc565b9050919050565b61035b81610341565b82525050565b5f6020820190506103745f830184610352565b92915050565b61038381610341565b811461038d575f80fd5b50565b5f8135905061039e8161037a565b92915050565b5f602082840312156103b9576103b86102b8565b5b5f6103c684828501610390565b91505092915050565b5f82825260208201905092915050565b7f6e6f74206f776e657200000000000000000000000000000000000000000000005f82015250565b5f6104136009836103cf565b915061041e826103df565b602082019050919050565b5f6020820190508181035f83015261044081610407565b9050919050565b5f81905092915050565b50565b5f61045f5f83610447565b915061046a82610451565b5f82019050919050565b5f61047e82610454565b9150819050919050565b7f7472616e73666572206661696c656400000000000000000000000000000000005f82015250565b5f6104bc600f836103cf565b91506104c782610488565b602082019050919050565b5f6020820190508181035f8301526104e9816104b0565b9050919050565b7f616c726561647920696e697469616c697a6564000000000000000000000000005f82015250565b5f6105246013836103cf565b915061052f826104f0565b602082019050919050565b5f6020820190508181035f83015261055181610518565b905091905056fea26469706673582212205513a9cf9b30413ce8e9253eece30530b3f873ba359ca75afc4eff5136ff002d64736f6c63430008180033","linkReferences":{}},"methodIdentifiers":{"OWNER()":"117803e3","deposit()":"d0e30db0","initialize(address)":"c4d66de8","owner()":"8da5cb5b","sweep(address)":"01681a62"},"id":19}