{"abi":[{"type":"function","name":"deposit","inputs":[],"outputs":[],"stateMutability":"payable"},{"type":"function","name":"initialize","inputs":[{"name":"newOwner","type":"address","internalType":"address"}],"outputs":[],"stateMutability":"nonpayable"},{"type":"function","name":"owner","inputs":[],"outputs":[{"name":"","type":"address","internalType":"address"}],"stateMutability":"view"},{"type":"function","name":"sweep","inputs":[{"name":"to","type":"address","internalType":"address payable"}],"outputs":[],"stateMutability":"nonpayable"}],"bytecode":{"object":"0x608060405234801561000f575f80fd5b506105c98061001d5f395ff3fe60806040526004361061003e575f3560e01c806301681a62146100425780638da5cb5b1461006a578063c4d66de814610094578063d0e30db0146100bc575b5f80fd5b34801561004d575f80fd5b5061006860048036038101906100639190610351565b6100c6565b005b348015610075575f80fd5b5061007e6101ff565b60405161008b919061039c565b60405180910390f35b34801561009f575f80fd5b506100ba60048036038101906100b591906103df565b610222565b005b6100c46102f1565b005b5f8054906101000a900473ffffffffffffffffffffffffffffffffffffffff1673ffffffffffffffffffffffffffffffffffffffff163373ffffffffffffffffffffffffffffffffffffffff1614610153576040517f08c379a000000000000000000000000000000000000000000000000000000000815260040161014a90610464565b60405180910390fd5b5f8173ffffffffffffffffffffffffffffffffffffffff1647604051610178906104af565b5f6040518083038185875af1925050503d805f81146101b2576040519150601f19603f3d011682016040523d82523d5f602084013e6101b7565b606091505b50509050806101fb576040517f08c379a00000000000000000000000000000000000000000000000000000000081526004016101f29061050d565b60405180910390fd5b5050565b5f8054906101000a900473ffffffffffffffffffffffffffffffffffffffff1681565b5f73ffffffffffffffffffffffffffffffffffffffff165f8054906101000a900473ffffffffffffffffffffffffffffffffffffffff1673ffffffffffffffffffffffffffffffffffffffff16146102af576040517f08c379a00000000000000000000000000000000000000000000000000000000081526004016102a690610575565b60405180910390fd5b805f806101000a81548173ffffffffffffffffffffffffffffffffffffffff021916908373ffffffffffffffffffffffffffffffffffffffff16021790555050565b565b5f80fd5b5f73ffffffffffffffffffffffffffffffffffffffff82169050919050565b5f610320826102f7565b9050919050565b61033081610316565b811461033a575f80fd5b50565b5f8135905061034b81610327565b92915050565b5f60208284031215610366576103656102f3565b5b5f6103738482850161033d565b91505092915050565b5f610386826102f7565b9050919050565b6103968161037c565b82525050565b5f6020820190506103af5f83018461038d565b92915050565b6103be8161037c565b81146103c8575f80fd5b50565b5f813590506103d9816103b5565b92915050565b5f602082840312156103f4576103f36102f3565b5b5f610401848285016103cb565b91505092915050565b5f82825260208201905092915050565b7f6e6f74206f776e657200000000000000000000000000000000000000000000005f82015250565b5f61044e60098361040a565b91506104598261041a565b602082019050919050565b5f6020820190508181035f83015261047b81610442565b9050919050565b5f81905092915050565b50565b5f61049a5f83610482565b91506104a58261048c565b5f82019050919050565b5f6104b98261048f565b9150819050919050565b7f7472616e73666572206661696c656400000000000000000000000000000000005f82015250565b5f6104f7600f8361040a565b9150610502826104c3565b602082019050919050565b5f6020820190508181035f830152610524816104eb565b9050919050565b7f616c726561647920696e697469616c697a6564000000000000000000000000005f82015250565b5f61055f60138361040a565b915061056a8261052b565b602082019050919050565b5f6020820190508181035f83015261058c81610553565b905091905056fea2646970667358221220b6ac94f11710f80d94071fd9607fd909c327b53b39cd214513791cf334233d5b64736f6c63430008180033","linkReferences":{}},"methodIdentifiers":{"deposit()":"d0e30db0","initialize(address)":"c4d66de8","owner()":"8da5cb5b","sweep(address)":"01681a62"},"id":19}