{"abi":[{"type":"function","name":"balances","inputs":[{"name":"","type":"address","internalType":"address"}],"outputs":[{"name":"","type":"uint256","internalType":"uint256"}],"stateMutability":"view"},{"type":"function","name":"deposit","inputs":[],"outputs":[],"stateMutability":"payable"},{"type":"function","name":"totalDeposits","inputs":[],"outputs":[{"name":"","type":"uint256","internalType":"uint256"}],"stateMutability":"view"},{"type":"function","name":"withdraw","inputs":[{"name":"amount","type":"uint256","internalType":"uint256"}],"outputs":[],"stateMutability":"nonpayable"}],"bytecode":{"object":"0x608060405234801561000f575f80fd5b506106a68061001d5f395ff3fe60806040526004361061003e575f3560e01c806327e235e3146100425780632e1a7d4d1461007e5780637d882097146100a6578063d0e30db0146100d0575b5f80fd5b34801561004d575f80fd5b50610068600480360381019061006391906103a3565b6100da565b60405161007591906103e6565b60405180910390f35b348015610089575f80fd5b506100a4600480360381019061009f9190610429565b6100ee565b005b3480156100b1575f80fd5b506100ba61020d565b6040516100c791906103e6565b60405180910390f35b6100d8610213565b005b5f602052805f5260405f205f915090505481565b6100f78161027f565b805f803373ffffffffffffffffffffffffffffffffffffffff1673ffffffffffffffffffffffffffffffffffffffff1681526020019081526020015f205f8282546101429190610481565b925050819055508060015f82825461015a9190610481565b925050819055505f3373ffffffffffffffffffffffffffffffffffffffff1682604051610186906104e1565b5f6040518083038185875af1925050503d805f81146101c0576040519150601f19603f3d011682016040523d82523d5f602084013e6101c5565b606091505b5050905080610209576040517f08c379a00000000000000000000000000000000000000000000000000000000081526004016102009061054f565b60405180910390fd5b5050565b60015481565b345f803373ffffffffffffffffffffffffffffffffffffffff1673ffffffffffffffffffffffffffffffffffffffff1681526020019081526020015f205f82825461025e919061056d565b925050819055503460015f828254610276919061056d565b92505081905550565b805f803373ffffffffffffffffffffffffffffffffffffffff1673ffffffffffffffffffffffffffffffffffffffff1681526020019081526020015f205410156102fe576040517f08c379a00000000000000000000000000000000000000000000000000000000081526004016102f5906105ea565b60405180910390fd5b6001544714610342576040517f08c379a000000000000000000000000000000000000000000000000000000000815260040161033990610652565b60405180910390fd5b50565b5f80fd5b5f73ffffffffffffffffffffffffffffffffffffffff82169050919050565b5f61037282610349565b9050919050565b61038281610368565b811461038c575f80fd5b50565b5f8135905061039d81610379565b92915050565b5f602082840312156103b8576103b7610345565b5b5f6103c58482850161038f565b91505092915050565b5f819050919050565b6103e0816103ce565b82525050565b5f6020820190506103f95f8301846103d7565b92915050565b610408816103ce565b8114610412575f80fd5b50565b5f81359050610423816103ff565b92915050565b5f6020828403121561043e5761043d610345565b5b5f61044b84828501610415565b91505092915050565b7f4e487b71000000000000000000000000000000000000000000000000000000005f52601160045260245ffd5b5f61048b826103ce565b9150610496836103ce565b92508282039050818111156104ae576104ad610454565b5b92915050565b5f81905092915050565b50565b5f6104cc5f836104b4565b91506104d7826104be565b5f82019050919050565b5f6104eb826104c1565b9150819050919050565b5f82825260208201905092915050565b7f7472616e73666572206661696c656400000000000000000000000000000000005f82015250565b5f610539600f836104f5565b915061054482610505565b602082019050919050565b5f6020820190508181035f8301526105668161052d565b9050919050565b5f610577826103ce565b9150610582836103ce565b925082820190508082111561059a57610599610454565b5b92915050565b7f696e73756666696369656e7400000000000000000000000000000000000000005f82015250565b5f6105d4600c836104f5565b91506105df826105a0565b602082019050919050565b5f6020820190508181035f830152610601816105c8565b9050919050565b7f696e76617269616e742062726f6b656e000000000000000000000000000000005f82015250565b5f61063c6010836104f5565b915061064782610608565b602082019050919050565b5f6020820190508181035f83015261066981610630565b905091905056fea26469706673582212203f8361286f329d92c6636b778fe54faeb8b962ea266171b9158ef0a10809779764736f6c63430008180033","linkReferences":{}},"methodIdentifiers":{"balances(address)":"27e235e3","deposit()":"d0e30db0","totalDeposits()":"7d882097","withdraw(uint256)":"2e1a7d4d"},"id":19}