{"abi":[{"type":"function","name":"bets","inputs":[{"name":"","type":"address","internalType":"address"}],"outputs":[{"name":"commitment","type":"bytes32","internalType":"bytes32"},{"name":"amount","type":"uint256","internalType":"uint256"},{"name":"commitBlock","type":"uint256","internalType":"uint256"}],"stateMutability":"view"},{"type":"function","name":"commitBet","inputs":[{"name":"commitment","type":"bytes32","internalType":"bytes32"}],"outputs":[],"stateMutability":"payable"},{"type":"function","name":"fund","inputs":[],"outputs":[],"stateMutability":"payable"},{"type":"function","name":"reveal","inputs":[{"name":"guessEven","type":"bool","internalType":"bool"},{"name":"salt","type":"bytes32","internalType":"bytes32"}],"outputs":[],"stateMutability":"nonpayable"}],"bytecode":{"object":"0x608060405234801561000f575f80fd5b50610b1a8061001d5f395ff3fe60806040526004361061003e575f3560e01c806389a78f1a14610042578063a6af982214610080578063b60d4288146100a8578063c61a25d4146100b2575b5f80fd5b34801561004d575f80fd5b506100686004803603810190610063919061055d565b6100ce565b604051610077939291906105b8565b60405180910390f35b34801561008b575f80fd5b506100a660048036038101906100a1919061064c565b6100f3565b005b6100b06103b9565b005b6100cc60048036038101906100c7919061068a565b6103bb565b005b5f602052805f5260405f205f91509050805f0154908060010154908060020154905083565b5f805f3373ffffffffffffffffffffffffffffffffffffffff1673ffffffffffffffffffffffffffffffffffffffff1681526020019081526020015f206040518060600160405290815f8201548152602001600182015481526020016002820154815250509050670de0b6b3a76400008160200151146101a8576040517f08c379a000000000000000000000000000000000000000000000000000000000815260040161019f9061070f565b60405180910390fd5b806040015143116101ee576040517f08c379a00000000000000000000000000000000000000000000000000000000081526004016101e590610777565b60405180910390fd5b805f015183836040516020016102059291906107fa565b604051602081830303815290604052805190602001201461025b576040517f08c379a00000000000000000000000000000000000000000000000000000000081526004016102529061086f565b60405180910390fd5b5f803373ffffffffffffffffffffffffffffffffffffffff1673ffffffffffffffffffffffffffffffffffffffff1681526020019081526020015f205f8082015f9055600182015f9055600282015f905550505f600282604001514033856040516020016102cb939291906108d2565b604051602081830303815290604052805190602001205f1c6102ed919061093b565b90505f8082149050841515811515036103b2575f3373ffffffffffffffffffffffffffffffffffffffff16671bc16d674ec8000060405161032d90610998565b5f6040518083038185875af1925050503d805f8114610367576040519150601f19603f3d011682016040523d82523d5f602084013e61036c565b606091505b50509050806103b0576040517f08c379a00000000000000000000000000000000000000000000000000000000081526004016103a7906109f6565b60405180910390fd5b505b5050505050565b565b670de0b6b3a76400003414610405576040517f08c379a00000000000000000000000000000000000000000000000000000000081526004016103fc90610a5e565b60405180910390fd5b5f805f3373ffffffffffffffffffffffffffffffffffffffff1673ffffffffffffffffffffffffffffffffffffffff1681526020019081526020015f206001015414610486576040517f08c379a000000000000000000000000000000000000000000000000000000000815260040161047d90610ac6565b60405180910390fd5b6040518060600160405280828152602001348152602001438152505f803373ffffffffffffffffffffffffffffffffffffffff1673ffffffffffffffffffffffffffffffffffffffff1681526020019081526020015f205f820151815f0155602082015181600101556040820151816002015590505050565b5f80fd5b5f73ffffffffffffffffffffffffffffffffffffffff82169050919050565b5f61052c82610503565b9050919050565b61053c81610522565b8114610546575f80fd5b50565b5f8135905061055781610533565b92915050565b5f60208284031215610572576105716104ff565b5b5f61057f84828501610549565b91505092915050565b5f819050919050565b61059a81610588565b82525050565b5f819050919050565b6105b2816105a0565b82525050565b5f6060820190506105cb5f830186610591565b6105d860208301856105a9565b6105e560408301846105a9565b949350505050565b5f8115159050919050565b610601816105ed565b811461060b575f80fd5b50565b5f8135905061061c816105f8565b92915050565b61062b81610588565b8114610635575f80fd5b50565b5f8135905061064681610622565b92915050565b5f8060408385031215610662576106616104ff565b5b5f61066f8582860161060e565b925050602061068085828601610638565b9150509250929050565b5f6020828403121561069f5761069e6104ff565b5b5f6106ac84828501610638565b91505092915050565b5f82825260208201905092915050565b7f6e6f2061637469766520626574000000000000000000000000000000000000005f82015250565b5f6106f9600d836106b5565b9150610704826106c5565b602082019050919050565b5f6020820190508181035f830152610726816106ed565b9050919050565b7f72657665616c206c6174657200000000000000000000000000000000000000005f82015250565b5f610761600c836106b5565b915061076c8261072d565b602082019050919050565b5f6020820190508181035f83015261078e81610755565b9050919050565b5f8160f81b9050919050565b5f6107ab82610795565b9050919050565b5f6107bc826107a1565b9050919050565b6107d46107cf826105ed565b6107b2565b82525050565b5f819050919050565b6107f46107ef82610588565b6107da565b82525050565b5f61080582856107c3565b60018201915061081582846107e3565b6020820191508190509392505050565b7f6261642072657665616c000000000000000000000000000000000000000000005f82015250565b5f610859600a836106b5565b915061086482610825565b602082019050919050565b5f6020820190508181035f8301526108868161084d565b9050919050565b5f8160601b9050919050565b5f6108a38261088d565b9050919050565b5f6108b482610899565b9050919050565b6108cc6108c782610522565b6108aa565b82525050565b5f6108dd82866107e3565b6020820191506108ed82856108bb565b6014820191506108fd82846107e3565b602082019150819050949350505050565b7f4e487b71000000000000000000000000000000000000000000000000000000005f52601260045260245ffd5b5f610945826105a0565b9150610950836105a0565b9250826109605761095f61090e565b5b828206905092915050565b5f81905092915050565b50565b5f6109835f8361096b565b915061098e82610975565b5f82019050919050565b5f6109a282610978565b9150819050919050565b7f7061796f7574206661696c6564000000000000000000000000000000000000005f82015250565b5f6109e0600d836106b5565b91506109eb826109ac565b602082019050919050565b5f6020820190508181035f830152610a0d816109d4565b9050919050565b7f626574206d7573742062652031206574686572000000000000000000000000005f82015250565b5f610a486013836106b5565b9150610a5382610a14565b602082019050919050565b5f6020820190508181035f830152610a7581610a3c565b9050919050565b7f61637469766520626574206578697374730000000000000000000000000000005f82015250565b5f610ab06011836106b5565b9150610abb82610a7c565b602082019050919050565b5f6020820190508181035f830152610add81610aa4565b905091905056fea26469706673582212200084a4799e33a420656eceec07f8cccc04be7584131a64b2e54696ac89f3cd7764736f6c63430008180033","linkReferences":{}},"methodIdentifiers":{"bets(address)":"89a78f1a","commitBet(bytes32)":"c61a25d4","fund()":"b60d4288","reveal(bool,bytes32)":"a6af9822"},"id":21}