{"abi":[{"type":"function","name":"flip","inputs":[{"name":"guessEven","type":"bool","internalType":"bool"}],"outputs":[],"stateMutability":"payable"}],"bytecode":{"object":"0x608060405234801561000f575f80fd5b506103f58061001d5f395ff3fe60806040526004361061001d575f3560e01c80631d263f6714610021575b5f80fd5b61003b600480360381019061003691906101c2565b61003d565b005b670de0b6b3a76400003414610087576040517f08c379a000000000000000000000000000000000000000000000000000000000815260040161007e90610247565b60405180910390fd5b5f6002424460405160200161009d92919061028e565b604051602081830303815290604052805190602001205f1c6100bf91906102e6565b90505f808214905082151581151503610184575f3373ffffffffffffffffffffffffffffffffffffffff16671bc16d674ec800006040516100ff90610343565b5f6040518083038185875af1925050503d805f8114610139576040519150601f19603f3d011682016040523d82523d5f602084013e61013e565b606091505b5050905080610182576040517f08c379a0000000000000000000000000000000000000000000000000000000008152600401610179906103a1565b60405180910390fd5b505b505050565b5f80fd5b5f8115159050919050565b6101a18161018d565b81146101ab575f80fd5b50565b5f813590506101bc81610198565b92915050565b5f602082840312156101d7576101d6610189565b5b5f6101e4848285016101ae565b91505092915050565b5f82825260208201905092915050565b7f626574206d7573742062652031206574686572000000000000000000000000005f82015250565b5f6102316013836101ed565b915061023c826101fd565b602082019050919050565b5f6020820190508181035f83015261025e81610225565b9050919050565b5f819050919050565b5f819050919050565b61028861028382610265565b61026e565b82525050565b5f6102998285610277565b6020820191506102a98284610277565b6020820191508190509392505050565b7f4e487b71000000000000000000000000000000000000000000000000000000005f52601260045260245ffd5b5f6102f082610265565b91506102fb83610265565b92508261030b5761030a6102b9565b5b828206905092915050565b5f81905092915050565b50565b5f61032e5f83610316565b915061033982610320565b5f82019050919050565b5f61034d82610323565b9150819050919050565b7f7061796f7574206661696c6564000000000000000000000000000000000000005f82015250565b5f61038b600d836101ed565b915061039682610357565b602082019050919050565b5f6020820190508181035f8301526103b88161037f565b905091905056fea26469706673582212201535000815324f8f361ec030c86577a5db4818683ee57cd22eb48c31dd21218664736f6c63430008180033","linkReferences":{}},"methodIdentifiers":{"flip(bool)":"1d263f67"},"id":19}