{"abi":[{"type":"function","name":"betOnEven","inputs":[{"name":"guessEven","type":"bool","internalType":"bool"}],"outputs":[],"stateMutability":"payable"},{"type":"function","name":"fund","inputs":[],"outputs":[],"stateMutability":"payable"}],"bytecode":{"object":"0x608060405234801561000f575f80fd5b5061040c8061001d5f395ff3fe608060405260043610610028575f3560e01c80633d0b479d1461002c578063b60d428814610048575b5f80fd5b610046600480360381019061004191906101d9565b610052565b005b61005061019e565b005b670de0b6b3a7640000341461009c576040517f08c379a00000000000000000000000000000000000000000000000000000000081526004016100939061025e565b60405180910390fd5b5f600242446040516020016100b29291906102a5565b604051602081830303815290604052805190602001205f1c6100d491906102fd565b90505f808214905082151581151503610199575f3373ffffffffffffffffffffffffffffffffffffffff16671bc16d674ec800006040516101149061035a565b5f6040518083038185875af1925050503d805f811461014e576040519150601f19603f3d011682016040523d82523d5f602084013e610153565b606091505b5050905080610197576040517f08c379a000000000000000000000000000000000000000000000000000000000815260040161018e906103b8565b60405180910390fd5b505b505050565b565b5f80fd5b5f8115159050919050565b6101b8816101a4565b81146101c2575f80fd5b50565b5f813590506101d3816101af565b92915050565b5f602082840312156101ee576101ed6101a0565b5b5f6101fb848285016101c5565b91505092915050565b5f82825260208201905092915050565b7f626574206d7573742062652031206574686572000000000000000000000000005f82015250565b5f610248601383610204565b915061025382610214565b602082019050919050565b5f6020820190508181035f8301526102758161023c565b9050919050565b5f819050919050565b5f819050919050565b61029f61029a8261027c565b610285565b82525050565b5f6102b0828561028e565b6020820191506102c0828461028e565b6020820191508190509392505050565b7f4e487b71000000000000000000000000000000000000000000000000000000005f52601260045260245ffd5b5f6103078261027c565b91506103128361027c565b925082610322576103216102d0565b5b828206905092915050565b5f81905092915050565b50565b5f6103455f8361032d565b915061035082610337565b5f82019050919050565b5f6103648261033a565b9150819050919050565b7f7061796f7574206661696c6564000000000000000000000000000000000000005f82015250565b5f6103a2600d83610204565b91506103ad8261036e565b602082019050919050565b5f6020820190508181035f8301526103cf81610396565b905091905056fea2646970667358221220b4a5cd8a55e7318edcf9f2f76b0f942b3e95a9a6afd2a1cc23f54b5c3530d0e064736f6c63430008180033","linkReferences":{}},"methodIdentifiers":{"betOnEven(bool)":"3d0b479d","fund()":"b60d4288"},"id":21}