{"abi":[{"type":"constructor","inputs":[{"name":"impl","type":"address","internalType":"address"}],"stateMutability":"nonpayable"},{"type":"fallback","stateMutability":"payable"},{"type":"receive","stateMutability":"payable"},{"type":"function","name":"PROXY_ADMIN","inputs":[],"outputs":[{"name":"","type":"address","internalType":"address"}],"stateMutability":"view"},{"type":"function","name":"implementation","inputs":[],"outputs":[{"name":"","type":"address","internalType":"address"}],"stateMutability":"view"},{"type":"function","name":"proxyAdmin","inputs":[],"outputs":[{"name":"","type":"address","internalType":"address"}],"stateMutability":"view"},{"type":"function","name":"upgradeTo","inputs":[{"name":"newImpl","type":"address","internalType":"address"}],"outputs":[],"stateMutability":"nonpayable"}],"bytecode":{"object":"0x60a060405234801561000f575f80fd5b506040516106ad3803806106ad83398181016040528101906100319190610194565b80805f806101000a81548173ffffffffffffffffffffffffffffffffffffffff021916908373ffffffffffffffffffffffffffffffffffffffff1602179055503360015f6101000a81548173ffffffffffffffffffffffffffffffffffffffff021916908373ffffffffffffffffffffffffffffffffffffffff160217905550503373ffffffffffffffffffffffffffffffffffffffff1660808173ffffffffffffffffffffffffffffffffffffffff16815250506100f5816100fb60201b60201c565b50610228565b5f60017f9d8dafb011e3f66fae6464b31726a7fb44687e5d670e7a3a86418662db4819f45f1c61012b91906101f5565b5f1b90508181555050565b5f80fd5b5f73ffffffffffffffffffffffffffffffffffffffff82169050919050565b5f6101638261013a565b9050919050565b61017381610159565b811461017d575f80fd5b50565b5f8151905061018e8161016a565b92915050565b5f602082840312156101a9576101a8610136565b5b5f6101b684828501610180565b91505092915050565b5f819050919050565b7f4e487b71000000000000000000000000000000000000000000000000000000005f52601160045260245ffd5b5f6101ff826101bf565b915061020a836101bf565b9250828203905081811115610222576102216101c8565b5b92915050565b6080516104666102475f395f818161015f015261024101526104665ff3fe608060405260043610610042575f3560e01c80633659cfe61461005b5780633e47158c146100835780635c60da1b146100ad578063ed9bc82a146100d757610049565b3661004957005b610059610054610101565b61013e565b005b348015610066575f80fd5b50610081600480360381019061007c91906102fc565b61015d565b005b34801561008e575f80fd5b506100976101f7565b6040516100a49190610336565b60405180910390f35b3480156100b8575f80fd5b506100c161021c565b6040516100ce9190610336565b60405180910390f35b3480156100e2575f80fd5b506100eb61023f565b6040516100f89190610336565b60405180910390f35b5f8060017f9d8dafb011e3f66fae6464b31726a7fb44687e5d670e7a3a86418662db4819f45f1c6101329190610385565b5f1b9050805491505090565b365f80375f80365f845af43d5f803e805f8114610159573d5ff35b3d5ffd5b7f000000000000000000000000000000000000000000000000000000000000000073ffffffffffffffffffffffffffffffffffffffff163373ffffffffffffffffffffffffffffffffffffffff16146101eb576040517f08c379a00000000000000000000000000000000000000000000000000000000081526004016101e290610412565b60405180910390fd5b6101f481610263565b50565b60015f9054906101000a900473ffffffffffffffffffffffffffffffffffffffff1681565b5f8054906101000a900473ffffffffffffffffffffffffffffffffffffffff1681565b7f000000000000000000000000000000000000000000000000000000000000000081565b5f60017f9d8dafb011e3f66fae6464b31726a7fb44687e5d670e7a3a86418662db4819f45f1c6102939190610385565b5f1b90508181555050565b5f80fd5b5f73ffffffffffffffffffffffffffffffffffffffff82169050919050565b5f6102cb826102a2565b9050919050565b6102db816102c1565b81146102e5575f80fd5b50565b5f813590506102f6816102d2565b92915050565b5f602082840312156103115761031061029e565b5b5f61031e848285016102e8565b91505092915050565b610330816102c1565b82525050565b5f6020820190506103495f830184610327565b92915050565b5f819050919050565b7f4e487b71000000000000000000000000000000000000000000000000000000005f52601160045260245ffd5b5f61038f8261034f565b915061039a8361034f565b92508282039050818111156103b2576103b1610358565b5b92915050565b5f82825260208201905092915050565b7f6e6f742061646d696e00000000000000000000000000000000000000000000005f82015250565b5f6103fc6009836103b8565b9150610407826103c8565b602082019050919050565b5f6020820190508181035f830152610429816103f0565b905091905056fea26469706673582212209ed04496ce165d32b77dd7993f70160186397113f4a08a30968173e4cc8a036d64736f6c63430008180033","linkReferences":{}},"methodIdentifiers":{"PROXY_ADMIN()":"ed9bc82a","implementation()":"5c60da1b","proxyAdmin()":"3e47158c","upgradeTo(address)":"3659cfe6"},"id":19}