{"abi":[{"type":"function","name":"miscVar","inputs":[],"outputs":[{"name":"","type":"address","internalType":"address"}],"stateMutability":"view"},{"type":"function","name":"setMiscVar","inputs":[{"name":"newMiscVar","type":"address","internalType":"address"}],"outputs":[],"stateMutability":"nonpayable"}],"bytecode":{"object":"0x608060405234801561000f575f80fd5b506101be8061001d5f395ff3fe608060405234801561000f575f80fd5b5060043610610034575f3560e01c806330ea656014610038578063ded42f0614610056575b5f80fd5b610040610072565b60405161004d9190610116565b60405180910390f35b610070600480360381019061006b919061015d565b610095565b005b5f8054906101000a900473ffffffffffffffffffffffffffffffffffffffff1681565b805f806101000a81548173ffffffffffffffffffffffffffffffffffffffff021916908373ffffffffffffffffffffffffffffffffffffffff16021790555050565b5f73ffffffffffffffffffffffffffffffffffffffff82169050919050565b5f610100826100d7565b9050919050565b610110816100f6565b82525050565b5f6020820190506101295f830184610107565b92915050565b5f80fd5b61013c816100f6565b8114610146575f80fd5b50565b5f8135905061015781610133565b92915050565b5f602082840312156101725761017161012f565b5b5f61017f84828501610149565b9150509291505056fea2646970667358221220d6fb8039208aefc80254030dbec6e419b71daab11eb458b2cec9d8634b8ad60764736f6c63430008180033","linkReferences":{}},"methodIdentifiers":{"miscVar()":"30ea6560","setMiscVar(address)":"ded42f06"},"id":19}