{"abi":[{"type":"constructor","inputs":[{"name":"impl","type":"address","internalType":"address"}],"stateMutability":"nonpayable"},{"type":"fallback","stateMutability":"payable"},{"type":"receive","stateMutability":"payable"},{"type":"function","name":"implementation","inputs":[],"outputs":[{"name":"","type":"address","internalType":"address"}],"stateMutability":"view"},{"type":"function","name":"proxyAdmin","inputs":[],"outputs":[{"name":"","type":"address","internalType":"address"}],"stateMutability":"view"}],"bytecode":{"object":"0x608060405234801561000f575f80fd5b5060405161030138038061030183398181016040528101906100319190610114565b805f806101000a81548173ffffffffffffffffffffffffffffffffffffffff021916908373ffffffffffffffffffffffffffffffffffffffff1602179055503360015f6101000a81548173ffffffffffffffffffffffffffffffffffffffff021916908373ffffffffffffffffffffffffffffffffffffffff1602179055505061013f565b5f80fd5b5f73ffffffffffffffffffffffffffffffffffffffff82169050919050565b5f6100e3826100ba565b9050919050565b6100f3816100d9565b81146100fd575f80fd5b50565b5f8151905061010e816100ea565b92915050565b5f60208284031215610129576101286100b6565b5b5f61013684828501610100565b91505092915050565b6101b58061014c5f395ff3fe60806040526004361061002c575f3560e01c80633e47158c146100455780635c60da1b1461006f57610033565b3661003357005b61004361003e610099565b6100c0565b005b348015610050575f80fd5b506100596100df565b6040516100669190610166565b60405180910390f35b34801561007a575f80fd5b50610083610104565b6040516100909190610166565b60405180910390f35b5f805f9054906101000a900473ffffffffffffffffffffffffffffffffffffffff16905090565b365f80375f80365f845af43d5f803e805f81146100db573d5ff35b3d5ffd5b60015f9054906101000a900473ffffffffffffffffffffffffffffffffffffffff1681565b5f8054906101000a900473ffffffffffffffffffffffffffffffffffffffff1681565b5f73ffffffffffffffffffffffffffffffffffffffff82169050919050565b5f61015082610127565b9050919050565b61016081610146565b82525050565b5f6020820190506101795f830184610157565b9291505056fea26469706673582212207b15a602630cb8d98017b1685ae8522a9d01dafc516e99d05199a2abfebd839364736f6c63430008180033","linkReferences":{}},"methodIdentifiers":{"implementation()":"5c60da1b","proxyAdmin()":"3e47158c"},"id":19}