{"abi":[{"type":"constructor","inputs":[{"name":"trustedSigner","type":"address","internalType":"address"}],"stateMutability":"nonpayable"},{"type":"function","name":"SIGNER","inputs":[],"outputs":[{"name":"","type":"address","internalType":"address"}],"stateMutability":"view"},{"type":"function","name":"claim","inputs":[{"name":"recipient","type":"address","internalType":"address payable"},{"name":"amount","type":"uint256","internalType":"uint256"},{"name":"salt","type":"bytes32","internalType":"bytes32"},{"name":"signature","type":"bytes","internalType":"bytes"}],"outputs":[],"stateMutability":"nonpayable"},{"type":"function","name":"usedDigests","inputs":[{"name":"","type":"bytes32","internalType":"bytes32"}],"outputs":[{"name":"","type":"bool","internalType":"bool"}],"stateMutability":"view"}],"bytecode":{"object":"0x60a060405234801561000f575f80fd5b50604051610acc380380610acc833981810160405281019061003191906100cb565b808073ffffffffffffffffffffffffffffffffffffffff1660808173ffffffffffffffffffffffffffffffffffffffff168152505050506100f6565b5f80fd5b5f73ffffffffffffffffffffffffffffffffffffffff82169050919050565b5f61009a82610071565b9050919050565b6100aa81610090565b81146100b4575f80fd5b50565b5f815190506100c5816100a1565b92915050565b5f602082840312156100e0576100df61006d565b5b5f6100ed848285016100b7565b91505092915050565b6080516109b86101145f395f818160af01526101e901526109b85ff3fe608060405234801561000f575f80fd5b506004361061003f575f3560e01c8063582abd12146100435780638d9fa7bb14610061578063d39c4de71461007d575b5f80fd5b61004b6100ad565b6040516100589190610425565b60405180910390f35b61007b60048036038101906100769190610548565b6100d1565b005b610097600480360381019061009291906105cc565b61019b565b6040516100a49190610611565b60405180910390f35b7f000000000000000000000000000000000000000000000000000000000000000081565b5f858585306040516020016100e994939291906106d7565b6040516020818303038152906040528051906020012090505f808281526020019081526020015f205f9054906101000a900460ff161561015e576040517f08c379a00000000000000000000000000000000000000000000000000000000081526004016101559061077e565b60405180910390fd5b60015f808381526020019081526020015f205f6101000a81548160ff02191690831515021790555061019386868686866101b7565b505050505050565b5f602052805f5260405f205f915054906101000a900460ff1681565b5f858585306040516020016101cf94939291906106d7565b6040516020818303038152906040528051906020012090507f000000000000000000000000000000000000000000000000000000000000000073ffffffffffffffffffffffffffffffffffffffff16610229828585610330565b73ffffffffffffffffffffffffffffffffffffffff161461027f576040517f08c379a0000000000000000000000000000000000000000000000000000000008152600401610276906107e6565b60405180910390fd5b5f8673ffffffffffffffffffffffffffffffffffffffff16866040516102a490610831565b5f6040518083038185875af1925050503d805f81146102de576040519150601f19603f3d011682016040523d82523d5f602084013e6102e3565b606091505b5050905080610327576040517f08c379a000000000000000000000000000000000000000000000000000000000815260040161031e9061088f565b60405180910390fd5b50505050505050565b5f60418383905014610377576040517f08c379a000000000000000000000000000000000000000000000000000000000815260040161036e906108f7565b60405180910390fd5b5f805f853592506020860135915060408601355f1a90506001878285856040515f81526020016040526040516103b0949392919061093f565b6020604051602081039080840390855afa1580156103d0573d5f803e3d5ffd5b5050506020604051035193505050509392505050565b5f73ffffffffffffffffffffffffffffffffffffffff82169050919050565b5f61040f826103e6565b9050919050565b61041f81610405565b82525050565b5f6020820190506104385f830184610416565b92915050565b5f80fd5b5f80fd5b5f610450826103e6565b9050919050565b61046081610446565b811461046a575f80fd5b50565b5f8135905061047b81610457565b92915050565b5f819050919050565b61049381610481565b811461049d575f80fd5b50565b5f813590506104ae8161048a565b92915050565b5f819050919050565b6104c6816104b4565b81146104d0575f80fd5b50565b5f813590506104e1816104bd565b92915050565b5f80fd5b5f80fd5b5f80fd5b5f8083601f840112610508576105076104e7565b5b8235905067ffffffffffffffff811115610525576105246104eb565b5b602083019150836001820283011115610541576105406104ef565b5b9250929050565b5f805f805f608086880312156105615761056061043e565b5b5f61056e8882890161046d565b955050602061057f888289016104a0565b9450506040610590888289016104d3565b935050606086013567ffffffffffffffff8111156105b1576105b0610442565b5b6105bd888289016104f3565b92509250509295509295909350565b5f602082840312156105e1576105e061043e565b5b5f6105ee848285016104d3565b91505092915050565b5f8115159050919050565b61060b816105f7565b82525050565b5f6020820190506106245f830184610602565b92915050565b5f8160601b9050919050565b5f6106408261062a565b9050919050565b5f61065182610636565b9050919050565b61066961066482610446565b610647565b82525050565b5f819050919050565b61068961068482610481565b61066f565b82525050565b5f819050919050565b6106a96106a4826104b4565b61068f565b82525050565b5f6106b982610636565b9050919050565b6106d16106cc82610405565b6106af565b82525050565b5f6106e28287610658565b6014820191506106f28286610678565b6020820191506107028285610698565b60208201915061071282846106c0565b60148201915081905095945050505050565b5f82825260208201905092915050565b7f616c7265616479207573656400000000000000000000000000000000000000005f82015250565b5f610768600c83610724565b915061077382610734565b602082019050919050565b5f6020820190508181035f8301526107958161075c565b9050919050565b7f626164207369676e6174757265000000000000000000000000000000000000005f82015250565b5f6107d0600d83610724565b91506107db8261079c565b602082019050919050565b5f6020820190508181035f8301526107fd816107c4565b9050919050565b5f81905092915050565b50565b5f61081c5f83610804565b91506108278261080e565b5f82019050919050565b5f61083b82610811565b9150819050919050565b7f636c61696d207472616e73666572206661696c656400000000000000000000005f82015250565b5f610879601583610724565b915061088482610845565b602082019050919050565b5f6020820190508181035f8301526108a68161086d565b9050919050565b7f62616420736967206c656e6774680000000000000000000000000000000000005f82015250565b5f6108e1600e83610724565b91506108ec826108ad565b602082019050919050565b5f6020820190508181035f83015261090e816108d5565b9050919050565b61091e816104b4565b82525050565b5f60ff82169050919050565b61093981610924565b82525050565b5f6080820190506109525f830187610915565b61095f6020830186610930565b61096c6040830185610915565b6109796060830184610915565b9594505050505056fea2646970667358221220a3f0f1f5edceb1d5058325e0c2f2330152c75791630b9cc1445409930d89950964736f6c63430008180033","linkReferences":{}},"methodIdentifiers":{"SIGNER()":"582abd12","claim(address,uint256,bytes32,bytes)":"8d9fa7bb","usedDigests(bytes32)":"d39c4de7"},"id":19}