{"abi":[{"type":"receive","stateMutability":"payable"},{"type":"function","name":"attack","inputs":[{"name":"target","type":"address","internalType":"contract ExerciseB_VulnerableVault"}],"outputs":[],"stateMutability":"payable"}],"bytecode":{"object":"0x608060405234801561000f575f80fd5b5061024a8061001d5f395ff3fe608060405260043610610021575f3560e01c8063d018db3e1461002c57610028565b3661002857005b5f80fd5b61004660048036038101906100419190610185565b610048565b005b8073ffffffffffffffffffffffffffffffffffffffff1663d0e30db0346040518263ffffffff1660e01b81526004015f604051808303818588803b15801561008e575f80fd5b505af11580156100a0573d5f803e3d5ffd5b50505050508073ffffffffffffffffffffffffffffffffffffffff16632e1a7d4d671bc16d674ec800006040518263ffffffff1660e01b81526004016100e691906101fb565b5f604051808303815f87803b1580156100fd575f80fd5b505af115801561010f573d5f803e3d5ffd5b5050505050565b5f80fd5b5f73ffffffffffffffffffffffffffffffffffffffff82169050919050565b5f6101438261011a565b9050919050565b5f61015482610139565b9050919050565b6101648161014a565b811461016e575f80fd5b50565b5f8135905061017f8161015b565b92915050565b5f6020828403121561019a57610199610116565b5b5f6101a784828501610171565b91505092915050565b5f819050919050565b5f819050919050565b5f819050919050565b5f6101e56101e06101db846101b0565b6101c2565b6101b9565b9050919050565b6101f5816101cb565b82525050565b5f60208201905061020e5f8301846101ec565b9291505056fea2646970667358221220e8f4a5a51d6b1cb399dd2d0e56135250bd0a4441a285d7c57ad121325215bfcb64736f6c63430008180033","linkReferences":{}},"methodIdentifiers":{"attack(address)":"d018db3e"},"id":25}