{"abi":[{"type":"function","name":"contribute","inputs":[],"outputs":[],"stateMutability":"payable"},{"type":"function","name":"contributions","inputs":[{"name":"","type":"address","internalType":"address"}],"outputs":[{"name":"","type":"uint256","internalType":"uint256"}],"stateMutability":"view"},{"type":"function","name":"contributors","inputs":[{"name":"","type":"uint256","internalType":"uint256"}],"outputs":[{"name":"","type":"address","internalType":"address"}],"stateMutability":"view"},{"type":"function","name":"pendingRefunds","inputs":[{"name":"","type":"address","internalType":"address"}],"outputs":[{"name":"","type":"uint256","internalType":"uint256"}],"stateMutability":"view"},{"type":"function","name":"prepareRefunds","inputs":[],"outputs":[],"stateMutability":"nonpayable"},{"type":"function","name":"withdrawRefund","inputs":[],"outputs":[],"stateMutability":"nonpayable"}],"bytecode":{"object":"0x608060405234801561000f575f80fd5b5061086d8061001d5f395ff3fe608060405260043610610054575f3560e01c8063110f8874146100585780633cb5d1001461006e57806342e94c90146100aa5780634d3ddaf8146100e6578063b613b114146100fc578063d7bb99ba14610138575b5f80fd5b348015610063575f80fd5b5061006c610142565b005b348015610079575f80fd5b50610094600480360381019061008f9190610589565b6102b3565b6040516100a191906105f3565b60405180910390f35b3480156100b5575f80fd5b506100d060048036038101906100cb9190610636565b6102ee565b6040516100dd9190610670565b60405180910390f35b3480156100f1575f80fd5b506100fa610302565b005b348015610107575f80fd5b50610122600480360381019061011d9190610636565b610445565b60405161012f9190610670565b60405180910390f35b61014061045a565b005b5f60015f3373ffffffffffffffffffffffffffffffffffffffff1673ffffffffffffffffffffffffffffffffffffffff1681526020019081526020015f205490505f81116101c5576040517f08c379a00000000000000000000000000000000000000000000000000000000081526004016101bc906106e3565b60405180910390fd5b5f60015f3373ffffffffffffffffffffffffffffffffffffffff1673ffffffffffffffffffffffffffffffffffffffff1681526020019081526020015f20819055505f3373ffffffffffffffffffffffffffffffffffffffff168260405161022c9061072e565b5f6040518083038185875af1925050503d805f8114610266576040519150601f19603f3d011682016040523d82523d5f602084013e61026b565b606091505b50509050806102af576040517f08c379a00000000000000000000000000000000000000000000000000000000081526004016102a69061078c565b60405180910390fd5b5050565b600281815481106102c2575f80fd5b905f5260205f20015f915054906101000a900473ffffffffffffffffffffffffffffffffffffffff1681565b5f602052805f5260405f205f915090505481565b5f5b600280549050811015610442575f60028281548110610326576103256107aa565b5b905f5260205f20015f9054906101000a900473ffffffffffffffffffffffffffffffffffffffff1690505f805f8373ffffffffffffffffffffffffffffffffffffffff1673ffffffffffffffffffffffffffffffffffffffff1681526020019081526020015f205490505f810361039e575050610435565b8060015f8473ffffffffffffffffffffffffffffffffffffffff1673ffffffffffffffffffffffffffffffffffffffff1681526020019081526020015f205f8282546103ea9190610804565b925050819055505f805f8473ffffffffffffffffffffffffffffffffffffffff1673ffffffffffffffffffffffffffffffffffffffff1681526020019081526020015f208190555050505b8080600101915050610304565b50565b6001602052805f5260405f205f915090505481565b5f805f3373ffffffffffffffffffffffffffffffffffffffff1673ffffffffffffffffffffffffffffffffffffffff1681526020019081526020015f2054036104fe57600233908060018154018082558091505060019003905f5260205f20015f9091909190916101000a81548173ffffffffffffffffffffffffffffffffffffffff021916908373ffffffffffffffffffffffffffffffffffffffff1602179055505b345f803373ffffffffffffffffffffffffffffffffffffffff1673ffffffffffffffffffffffffffffffffffffffff1681526020019081526020015f205f8282546105499190610804565b92505081905550565b5f80fd5b5f819050919050565b61056881610556565b8114610572575f80fd5b50565b5f813590506105838161055f565b92915050565b5f6020828403121561059e5761059d610552565b5b5f6105ab84828501610575565b91505092915050565b5f73ffffffffffffffffffffffffffffffffffffffff82169050919050565b5f6105dd826105b4565b9050919050565b6105ed816105d3565b82525050565b5f6020820190506106065f8301846105e4565b92915050565b610615816105d3565b811461061f575f80fd5b50565b5f813590506106308161060c565b92915050565b5f6020828403121561064b5761064a610552565b5b5f61065884828501610622565b91505092915050565b61066a81610556565b82525050565b5f6020820190506106835f830184610661565b92915050565b5f82825260208201905092915050565b7f6e6f7468696e6720746f207769746864726177000000000000000000000000005f82015250565b5f6106cd601383610689565b91506106d882610699565b602082019050919050565b5f6020820190508181035f8301526106fa816106c1565b9050919050565b5f81905092915050565b50565b5f6107195f83610701565b91506107248261070b565b5f82019050919050565b5f6107388261070e565b9150819050919050565b7f726566756e64206661696c6564000000000000000000000000000000000000005f82015250565b5f610776600d83610689565b915061078182610742565b602082019050919050565b5f6020820190508181035f8301526107a38161076a565b9050919050565b7f4e487b71000000000000000000000000000000000000000000000000000000005f52603260045260245ffd5b7f4e487b71000000000000000000000000000000000000000000000000000000005f52601160045260245ffd5b5f61080e82610556565b915061081983610556565b9250828201905080821115610831576108306107d7565b5b9291505056fea2646970667358221220ddc8badb6439bf3b331609942c0e2dd9196807812f4501225027b8bf07a4b32e64736f6c63430008180033","linkReferences":{}},"methodIdentifiers":{"contribute()":"d7bb99ba","contributions(address)":"42e94c90","contributors(uint256)":"3cb5d100","pendingRefunds(address)":"b613b114","prepareRefunds()":"4d3ddaf8","withdrawRefund()":"110f8874"},"id":19}