{"abi":[{"type":"receive","stateMutability":"payable"},{"type":"function","name":"contributeToVulnerable","inputs":[{"name":"target","type":"address","internalType":"contract VulnerableRefundEscrow"}],"outputs":[],"stateMutability":"payable"}],"bytecode":{"object":"0x608060405234801561000f575f80fd5b506102298061001d5f395ff3fe608060405260043610610021575f3560e01c8063eb3ef6e31461006557610061565b36610061576040517f08c379a00000000000000000000000000000000000000000000000000000000081526004016100589061013b565b60405180910390fd5b5f80fd5b61007f600480360381019061007a91906101c8565b610081565b005b8073ffffffffffffffffffffffffffffffffffffffff1663d7bb99ba346040518263ffffffff1660e01b81526004015f604051808303818588803b1580156100c7575f80fd5b505af11580156100d9573d5f803e3d5ffd5b505050505050565b5f82825260208201905092915050565b7f726566756e6420626c6f636b65640000000000000000000000000000000000005f82015250565b5f610125600e836100e1565b9150610130826100f1565b602082019050919050565b5f6020820190508181035f83015261015281610119565b9050919050565b5f80fd5b5f73ffffffffffffffffffffffffffffffffffffffff82169050919050565b5f6101868261015d565b9050919050565b5f6101978261017c565b9050919050565b6101a78161018d565b81146101b1575f80fd5b50565b5f813590506101c28161019e565b92915050565b5f602082840312156101dd576101dc610159565b5b5f6101ea848285016101b4565b9150509291505056fea2646970667358221220336370ccc3e167e7f73d0afd57959fa4639443bb43793413820884d493a38b5764736f6c63430008180033","linkReferences":{}},"methodIdentifiers":{"contributeToVulnerable(address)":"eb3ef6e3"},"id":19}