{"abi":[{"type":"function","name":"contribute","inputs":[],"outputs":[],"stateMutability":"payable"},{"type":"function","name":"contributions","inputs":[{"name":"","type":"address","internalType":"address"}],"outputs":[{"name":"","type":"uint256","internalType":"uint256"}],"stateMutability":"view"},{"type":"function","name":"contributors","inputs":[{"name":"","type":"uint256","internalType":"uint256"}],"outputs":[{"name":"","type":"address","internalType":"address"}],"stateMutability":"view"},{"type":"function","name":"refundAll","inputs":[],"outputs":[],"stateMutability":"nonpayable"}],"bytecode":{"object":"0x608060405234801561000f575f80fd5b5061066d8061001d5f395ff3fe60806040526004361061003e575f3560e01c806338e771ab146100425780633cb5d1001461005857806342e94c9014610094578063d7bb99ba146100d0575b5f80fd5b34801561004d575f80fd5b506100566100da565b005b348015610063575f80fd5b5061007e600480360381019061007991906103f1565b610273565b60405161008b919061045b565b60405180910390f35b34801561009f575f80fd5b506100ba60048036038101906100b5919061049e565b6102ae565b6040516100c791906104d8565b60405180910390f35b6100d86102c2565b005b5f5b600180549050811015610270575f600182815481106100fe576100fd6104f1565b5b905f5260205f20015f9054906101000a900473ffffffffffffffffffffffffffffffffffffffff1690505f805f8373ffffffffffffffffffffffffffffffffffffffff1673ffffffffffffffffffffffffffffffffffffffff1681526020019081526020015f205490505f8103610176575050610263565b5f8273ffffffffffffffffffffffffffffffffffffffff168260405161019b9061054b565b5f6040518083038185875af1925050503d805f81146101d5576040519150601f19603f3d011682016040523d82523d5f602084013e6101da565b606091505b505090508061021e576040517f08c379a0000000000000000000000000000000000000000000000000000000008152600401610215906105b9565b60405180910390fd5b5f805f8573ffffffffffffffffffffffffffffffffffffffff1673ffffffffffffffffffffffffffffffffffffffff1681526020019081526020015f20819055505050505b80806001019150506100dc565b50565b60018181548110610282575f80fd5b905f5260205f20015f915054906101000a900473ffffffffffffffffffffffffffffffffffffffff1681565b5f602052805f5260405f205f915090505481565b5f805f3373ffffffffffffffffffffffffffffffffffffffff1673ffffffffffffffffffffffffffffffffffffffff1681526020019081526020015f20540361036657600133908060018154018082558091505060019003905f5260205f20015f9091909190916101000a81548173ffffffffffffffffffffffffffffffffffffffff021916908373ffffffffffffffffffffffffffffffffffffffff1602179055505b345f803373ffffffffffffffffffffffffffffffffffffffff1673ffffffffffffffffffffffffffffffffffffffff1681526020019081526020015f205f8282546103b19190610604565b92505081905550565b5f80fd5b5f819050919050565b6103d0816103be565b81146103da575f80fd5b50565b5f813590506103eb816103c7565b92915050565b5f60208284031215610406576104056103ba565b5b5f610413848285016103dd565b91505092915050565b5f73ffffffffffffffffffffffffffffffffffffffff82169050919050565b5f6104458261041c565b9050919050565b6104558161043b565b82525050565b5f60208201905061046e5f83018461044c565b92915050565b61047d8161043b565b8114610487575f80fd5b50565b5f8135905061049881610474565b92915050565b5f602082840312156104b3576104b26103ba565b5b5f6104c08482850161048a565b91505092915050565b6104d2816103be565b82525050565b5f6020820190506104eb5f8301846104c9565b92915050565b7f4e487b71000000000000000000000000000000000000000000000000000000005f52603260045260245ffd5b5f81905092915050565b50565b5f6105365f8361051e565b915061054182610528565b5f82019050919050565b5f6105558261052b565b9150819050919050565b5f82825260208201905092915050565b7f726566756e64206661696c6564000000000000000000000000000000000000005f82015250565b5f6105a3600d8361055f565b91506105ae8261056f565b602082019050919050565b5f6020820190508181035f8301526105d081610597565b9050919050565b7f4e487b71000000000000000000000000000000000000000000000000000000005f52601160045260245ffd5b5f61060e826103be565b9150610619836103be565b9250828201905080821115610631576106306105d7565b5b9291505056fea2646970667358221220f11ff84eab700988798bf25c9884138146be0d053c91b88c581e8fc854fd64f364736f6c63430008180033","linkReferences":{}},"methodIdentifiers":{"contribute()":"d7bb99ba","contributions(address)":"42e94c90","contributors(uint256)":"3cb5d100","refundAll()":"38e771ab"},"id":19}