{"abi":[{"type":"function","name":"bet","inputs":[{"name":"guessEven","type":"bool","internalType":"bool"}],"outputs":[],"stateMutability":"payable"},{"type":"function","name":"fund","inputs":[],"outputs":[],"stateMutability":"payable"}],"bytecode":{"object":"0x608060405234801561000f575f80fd5b506104078061001d5f395ff3fe608060405260043610610028575f3560e01c8063523afb0d1461002c578063b60d428814610048575b5f80fd5b610046600480360381019061004191906101d4565b610052565b005b610050610199565b005b670de0b6b3a7640000341461009c576040517f08c379a000000000000000000000000000000000000000000000000000000000815260040161009390610259565b60405180910390fd5b5f600242446040516020016100b29291906102a0565b604051602081830303815290604052805190602001205f1c6100d491906102f8565b90508115155f8214151503610195575f3373ffffffffffffffffffffffffffffffffffffffff16671bc16d674ec8000060405161011090610355565b5f6040518083038185875af1925050503d805f811461014a576040519150601f19603f3d011682016040523d82523d5f602084013e61014f565b606091505b5050905080610193576040517f08c379a000000000000000000000000000000000000000000000000000000000815260040161018a906103b3565b60405180910390fd5b505b5050565b565b5f80fd5b5f8115159050919050565b6101b38161019f565b81146101bd575f80fd5b50565b5f813590506101ce816101aa565b92915050565b5f602082840312156101e9576101e861019b565b5b5f6101f6848285016101c0565b91505092915050565b5f82825260208201905092915050565b7f626574206d7573742062652031206574686572000000000000000000000000005f82015250565b5f6102436013836101ff565b915061024e8261020f565b602082019050919050565b5f6020820190508181035f83015261027081610237565b9050919050565b5f819050919050565b5f819050919050565b61029a61029582610277565b610280565b82525050565b5f6102ab8285610289565b6020820191506102bb8284610289565b6020820191508190509392505050565b7f4e487b71000000000000000000000000000000000000000000000000000000005f52601260045260245ffd5b5f61030282610277565b915061030d83610277565b92508261031d5761031c6102cb565b5b828206905092915050565b5f81905092915050565b50565b5f6103405f83610328565b915061034b82610332565b5f82019050919050565b5f61035f82610335565b9150819050919050565b7f7061796f7574206661696c6564000000000000000000000000000000000000005f82015250565b5f61039d600d836101ff565b91506103a882610369565b602082019050919050565b5f6020820190508181035f8301526103ca81610391565b905091905056fea2646970667358221220ae39c03042581ca0b0375f63649807ad6a43395023578fa50b1340752265ae9664736f6c63430008180033","linkReferences":{}},"methodIdentifiers":{"bet(bool)":"523afb0d","fund()":"b60d4288"},"id":59}