{"abi":[{"type":"function","name":"balances","inputs":[{"name":"","type":"address","internalType":"address"}],"outputs":[{"name":"","type":"uint256","internalType":"uint256"}],"stateMutability":"view"},{"type":"function","name":"deposit","inputs":[],"outputs":[],"stateMutability":"payable"},{"type":"function","name":"withdraw","inputs":[],"outputs":[],"stateMutability":"nonpayable"}],"bytecode":{"object":"0x608060405234801561000f575f80fd5b506104db8061001d5f395ff3fe608060405260043610610033575f3560e01c806327e235e3146100375780633ccfd60b14610073578063d0e30db014610089575b5f80fd5b348015610042575f80fd5b5061005d600480360381019061005891906102c8565b610093565b60405161006a919061030b565b60405180910390f35b34801561007e575f80fd5b506100876100a7565b005b610091610216565b005b5f602052805f5260405f205f915090505481565b5f805f3373ffffffffffffffffffffffffffffffffffffffff1673ffffffffffffffffffffffffffffffffffffffff1681526020019081526020015f205490505f8111610129576040517f08c379a00000000000000000000000000000000000000000000000000000000081526004016101209061037e565b60405180910390fd5b5f3373ffffffffffffffffffffffffffffffffffffffff168260405161014e906103c9565b5f6040518083038185875af1925050503d805f8114610188576040519150601f19603f3d011682016040523d82523d5f602084013e61018d565b606091505b50509050806101d1576040517f08c379a00000000000000000000000000000000000000000000000000000000081526004016101c890610427565b60405180910390fd5b5f805f3373ffffffffffffffffffffffffffffffffffffffff1673ffffffffffffffffffffffffffffffffffffffff1681526020019081526020015f20819055505050565b345f803373ffffffffffffffffffffffffffffffffffffffff1673ffffffffffffffffffffffffffffffffffffffff1681526020019081526020015f205f8282546102619190610472565b92505081905550565b5f80fd5b5f73ffffffffffffffffffffffffffffffffffffffff82169050919050565b5f6102978261026e565b9050919050565b6102a78161028d565b81146102b1575f80fd5b50565b5f813590506102c28161029e565b92915050565b5f602082840312156102dd576102dc61026a565b5b5f6102ea848285016102b4565b91505092915050565b5f819050919050565b610305816102f3565b82525050565b5f60208201905061031e5f8301846102fc565b92915050565b5f82825260208201905092915050565b7f6e6f7468696e67000000000000000000000000000000000000000000000000005f82015250565b5f610368600783610324565b915061037382610334565b602082019050919050565b5f6020820190508181035f8301526103958161035c565b9050919050565b5f81905092915050565b50565b5f6103b45f8361039c565b91506103bf826103a6565b5f82019050919050565b5f6103d3826103a9565b9150819050919050565b7f7472616e73666572206661696c656400000000000000000000000000000000005f82015250565b5f610411600f83610324565b915061041c826103dd565b602082019050919050565b5f6020820190508181035f83015261043e81610405565b9050919050565b7f4e487b71000000000000000000000000000000000000000000000000000000005f52601160045260245ffd5b5f61047c826102f3565b9150610487836102f3565b925082820190508082111561049f5761049e610445565b5b9291505056fea26469706673582212208789f780f377607856eabe1050c17a9c19c7a09822fe5938a823e11e72013b6664736f6c63430008180033","linkReferences":{}},"methodIdentifiers":{"balances(address)":"27e235e3","deposit()":"d0e30db0","withdraw()":"3ccfd60b"},"id":39}