{"abi":[{"type":"function","name":"balances","inputs":[{"name":"","type":"address","internalType":"address"}],"outputs":[{"name":"","type":"uint256","internalType":"uint256"}],"stateMutability":"view"},{"type":"function","name":"deposit","inputs":[],"outputs":[],"stateMutability":"payable"},{"type":"function","name":"initialize","inputs":[{"name":"newOwner","type":"address","internalType":"address"}],"outputs":[],"stateMutability":"nonpayable"},{"type":"function","name":"owner","inputs":[],"outputs":[{"name":"","type":"address","internalType":"address"}],"stateMutability":"view"},{"type":"function","name":"sweep","inputs":[{"name":"to","type":"address","internalType":"address payable"}],"outputs":[],"stateMutability":"nonpayable"}],"bytecode":{"object":"0x608060405234801561000f575f80fd5b506107098061001d5f395ff3fe608060405260043610610049575f3560e01c806301681a621461004d57806327e235e3146100755780638da5cb5b146100b1578063c4d66de8146100db578063d0e30db014610103575b5f80fd5b348015610058575f80fd5b50610073600480360381019061006e9190610400565b61010d565b005b348015610080575f80fd5b5061009b60048036038101906100969190610466565b610246565b6040516100a891906104a9565b60405180910390f35b3480156100bc575f80fd5b506100c561025b565b6040516100d291906104d1565b60405180910390f35b3480156100e6575f80fd5b5061010160048036038101906100fc9190610466565b61027e565b005b61010b61034d565b005b5f8054906101000a900473ffffffffffffffffffffffffffffffffffffffff1673ffffffffffffffffffffffffffffffffffffffff163373ffffffffffffffffffffffffffffffffffffffff161461019a576040517f08c379a000000000000000000000000000000000000000000000000000000000815260040161019190610544565b60405180910390fd5b5f8173ffffffffffffffffffffffffffffffffffffffff16476040516101bf9061058f565b5f6040518083038185875af1925050503d805f81146101f9576040519150601f19603f3d011682016040523d82523d5f602084013e6101fe565b606091505b5050905080610242576040517f08c379a0000000000000000000000000000000000000000000000000000000008152600401610239906105ed565b60405180910390fd5b5050565b6001602052805f5260405f205f915090505481565b5f8054906101000a900473ffffffffffffffffffffffffffffffffffffffff1681565b5f73ffffffffffffffffffffffffffffffffffffffff165f8054906101000a900473ffffffffffffffffffffffffffffffffffffffff1673ffffffffffffffffffffffffffffffffffffffff161461030b576040517f08c379a000000000000000000000000000000000000000000000000000000000815260040161030290610655565b60405180910390fd5b805f806101000a81548173ffffffffffffffffffffffffffffffffffffffff021916908373ffffffffffffffffffffffffffffffffffffffff16021790555050565b3460015f3373ffffffffffffffffffffffffffffffffffffffff1673ffffffffffffffffffffffffffffffffffffffff1681526020019081526020015f205f82825461039991906106a0565b92505081905550565b5f80fd5b5f73ffffffffffffffffffffffffffffffffffffffff82169050919050565b5f6103cf826103a6565b9050919050565b6103df816103c5565b81146103e9575f80fd5b50565b5f813590506103fa816103d6565b92915050565b5f60208284031215610415576104146103a2565b5b5f610422848285016103ec565b91505092915050565b5f610435826103a6565b9050919050565b6104458161042b565b811461044f575f80fd5b50565b5f813590506104608161043c565b92915050565b5f6020828403121561047b5761047a6103a2565b5b5f61048884828501610452565b91505092915050565b5f819050919050565b6104a381610491565b82525050565b5f6020820190506104bc5f83018461049a565b92915050565b6104cb8161042b565b82525050565b5f6020820190506104e45f8301846104c2565b92915050565b5f82825260208201905092915050565b7f6e6f74206f776e657200000000000000000000000000000000000000000000005f82015250565b5f61052e6009836104ea565b9150610539826104fa565b602082019050919050565b5f6020820190508181035f83015261055b81610522565b9050919050565b5f81905092915050565b50565b5f61057a5f83610562565b91506105858261056c565b5f82019050919050565b5f6105998261056f565b9150819050919050565b7f7472616e73666572206661696c656400000000000000000000000000000000005f82015250565b5f6105d7600f836104ea565b91506105e2826105a3565b602082019050919050565b5f6020820190508181035f830152610604816105cb565b9050919050565b7f616c726561647920696e697469616c697a6564000000000000000000000000005f82015250565b5f61063f6013836104ea565b915061064a8261060b565b602082019050919050565b5f6020820190508181035f83015261066c81610633565b9050919050565b7f4e487b71000000000000000000000000000000000000000000000000000000005f52601160045260245ffd5b5f6106aa82610491565b91506106b583610491565b92508282019050808211156106cd576106cc610673565b5b9291505056fea2646970667358221220f1d3314ef9f81a8cefd7f457b05a92ed5921543347e8412806c016f723bff11864736f6c63430008180033","linkReferences":{}},"methodIdentifiers":{"balances(address)":"27e235e3","deposit()":"d0e30db0","initialize(address)":"c4d66de8","owner()":"8da5cb5b","sweep(address)":"01681a62"},"id":21}