{"abi":[{"type":"constructor","inputs":[{"name":"tokenAddress","type":"address","internalType":"address"},{"name":"treasuryAddress","type":"address","internalType":"address"}],"stateMutability":"nonpayable"},{"type":"function","name":"TOKEN","inputs":[],"outputs":[{"name":"","type":"address","internalType":"contract IExerciseToken"}],"stateMutability":"view"},{"type":"function","name":"TREASURY","inputs":[],"outputs":[{"name":"","type":"address","internalType":"address"}],"stateMutability":"view"},{"type":"function","name":"buy","inputs":[],"outputs":[],"stateMutability":"nonpayable"},{"type":"function","name":"purchased","inputs":[{"name":"","type":"address","internalType":"address"}],"outputs":[{"name":"","type":"bool","internalType":"bool"}],"stateMutability":"view"}],"bytecode":{"object":"0x60c060405234801561000f575f80fd5b50604051610601380380610601833981810160405281019061003191906100fe565b8173ffffffffffffffffffffffffffffffffffffffff1660808173ffffffffffffffffffffffffffffffffffffffff16815250508073ffffffffffffffffffffffffffffffffffffffff1660a08173ffffffffffffffffffffffffffffffffffffffff1681525050505061013c565b5f80fd5b5f73ffffffffffffffffffffffffffffffffffffffff82169050919050565b5f6100cd826100a4565b9050919050565b6100dd816100c3565b81146100e7575f80fd5b50565b5f815190506100f8816100d4565b92915050565b5f8060408385031215610114576101136100a0565b5b5f610121858286016100ea565b9250506020610132858286016100ea565b9150509250929050565b60805160a05161049761016a5f395f818160c6015261016701525f8181610106015261012a01526104975ff3fe608060405234801561000f575f80fd5b506004361061004a575f3560e01c80632d2c55651461004e578063522fe98e1461006c57806382bfefc81461009c578063a6f2ae3a146100ba575b5f80fd5b6100566100c4565b604051610063919061027c565b60405180910390f35b610086600480360381019061008191906102c3565b6100e8565b6040516100939190610308565b60405180910390f35b6100a4610104565b6040516100b1919061037c565b60405180910390f35b6100c2610128565b005b7f000000000000000000000000000000000000000000000000000000000000000081565b5f602052805f5260405f205f915054906101000a900460ff1681565b7f000000000000000000000000000000000000000000000000000000000000000081565b7f000000000000000000000000000000000000000000000000000000000000000073ffffffffffffffffffffffffffffffffffffffff166323b872dd337f000000000000000000000000000000000000000000000000000000000000000060646040518463ffffffff1660e01b81526004016101a6939291906103d7565b6020604051808303815f875af11580156101c2573d5f803e3d5ffd5b505050506040513d601f19601f820116820180604052508101906101e69190610436565b5060015f803373ffffffffffffffffffffffffffffffffffffffff1673ffffffffffffffffffffffffffffffffffffffff1681526020019081526020015f205f6101000a81548160ff021916908315150217905550565b5f73ffffffffffffffffffffffffffffffffffffffff82169050919050565b5f6102668261023d565b9050919050565b6102768161025c565b82525050565b5f60208201905061028f5f83018461026d565b92915050565b5f80fd5b6102a28161025c565b81146102ac575f80fd5b50565b5f813590506102bd81610299565b92915050565b5f602082840312156102d8576102d7610295565b5b5f6102e5848285016102af565b91505092915050565b5f8115159050919050565b610302816102ee565b82525050565b5f60208201905061031b5f8301846102f9565b92915050565b5f819050919050565b5f61034461033f61033a8461023d565b610321565b61023d565b9050919050565b5f6103558261032a565b9050919050565b5f6103668261034b565b9050919050565b6103768161035c565b82525050565b5f60208201905061038f5f83018461036d565b92915050565b5f819050919050565b5f819050919050565b5f6103c16103bc6103b784610395565b610321565b61039e565b9050919050565b6103d1816103a7565b82525050565b5f6060820190506103ea5f83018661026d565b6103f7602083018561026d565b61040460408301846103c8565b949350505050565b610415816102ee565b811461041f575f80fd5b50565b5f815190506104308161040c565b92915050565b5f6020828403121561044b5761044a610295565b5b5f61045884828501610422565b9150509291505056fea2646970667358221220329d57f25c328778d4ce69042cf071438e8ca88baf1b4854302b1246fbd8c96364736f6c63430008180033","linkReferences":{}},"methodIdentifiers":{"TOKEN()":"82bfefc8","TREASURY()":"2d2c5565","buy()":"a6f2ae3a","purchased(address)":"522fe98e"},"id":39}