{"abi":[{"type":"constructor","inputs":[{"name":"impl","type":"address","internalType":"address"}],"stateMutability":"nonpayable"},{"type":"fallback","stateMutability":"payable"},{"type":"receive","stateMutability":"payable"},{"type":"function","name":"admin","inputs":[],"outputs":[{"name":"","type":"address","internalType":"address"}],"stateMutability":"view"},{"type":"function","name":"implementation","inputs":[],"outputs":[{"name":"","type":"address","internalType":"address"}],"stateMutability":"view"}],"bytecode":{"object":"0x608060405234801561000f575f80fd5b506040516102ec3803806102ec83398181016040528101906100319190610114565b805f806101000a81548173ffffffffffffffffffffffffffffffffffffffff021916908373ffffffffffffffffffffffffffffffffffffffff1602179055503360015f6101000a81548173ffffffffffffffffffffffffffffffffffffffff021916908373ffffffffffffffffffffffffffffffffffffffff1602179055505061013f565b5f80fd5b5f73ffffffffffffffffffffffffffffffffffffffff82169050919050565b5f6100e3826100ba565b9050919050565b6100f3816100d9565b81146100fd575f80fd5b50565b5f8151905061010e816100ea565b92915050565b5f60208284031215610129576101286100b6565b5b5f61013684828501610100565b91505092915050565b6101a08061014c5f395ff3fe60806040526004361061002c575f3560e01c80635c60da1b14610076578063f851a440146100a057610033565b3661003357005b5f805f9054906101000a900473ffffffffffffffffffffffffffffffffffffffff169050365f80375f80365f845af43d5f803e805f8114610072573d5ff35b3d5ffd5b348015610081575f80fd5b5061008a6100ca565b6040516100979190610151565b60405180910390f35b3480156100ab575f80fd5b506100b46100ed565b6040516100c19190610151565b60405180910390f35b5f8054906101000a900473ffffffffffffffffffffffffffffffffffffffff1681565b60015f9054906101000a900473ffffffffffffffffffffffffffffffffffffffff1681565b5f73ffffffffffffffffffffffffffffffffffffffff82169050919050565b5f61013b82610112565b9050919050565b61014b81610131565b82525050565b5f6020820190506101645f830184610142565b9291505056fea26469706673582212200e504a16fba1e3ecf3b7e4c41c66cbd77fd3323eb237f0c684364b4f38b02edf64736f6c63430008180033","linkReferences":{}},"methodIdentifiers":{"admin()":"f851a440","implementation()":"5c60da1b"},"id":29}