{"abi":[{"type":"constructor","inputs":[{"name":"oracleAddress","type":"address","internalType":"address"}],"stateMutability":"payable"},{"type":"function","name":"ORACLE","inputs":[],"outputs":[{"name":"","type":"address","internalType":"contract ExerciseA_Oracle"}],"stateMutability":"view"},{"type":"function","name":"borrow","inputs":[{"name":"amountEth","type":"uint256","internalType":"uint256"}],"outputs":[],"stateMutability":"nonpayable"},{"type":"function","name":"collateralEth","inputs":[{"name":"","type":"address","internalType":"address"}],"outputs":[{"name":"","type":"uint256","internalType":"uint256"}],"stateMutability":"view"},{"type":"function","name":"debtEth","inputs":[{"name":"","type":"address","internalType":"address"}],"outputs":[{"name":"","type":"uint256","internalType":"uint256"}],"stateMutability":"view"},{"type":"function","name":"depositCollateral","inputs":[],"outputs":[],"stateMutability":"payable"}],"bytecode":{"object":"0x60a0604052604051610956380380610956833981810160405281019061002591906100bd565b8073ffffffffffffffffffffffffffffffffffffffff1660808173ffffffffffffffffffffffffffffffffffffffff1681525050506100e8565b5f80fd5b5f73ffffffffffffffffffffffffffffffffffffffff82169050919050565b5f61008c82610063565b9050919050565b61009c81610082565b81146100a6575f80fd5b50565b5f815190506100b781610093565b92915050565b5f602082840312156100d2576100d161005f565b5b5f6100df848285016100a9565b91505092915050565b60805161084f6101075f395f818161013701526101cf015261084f5ff3fe608060405260043610610049575f3560e01c8063291150121461004d57806338013f02146100895780636e23c465146100b35780636f758140146100ef578063c5ebeaec146100f9575b5f80fd5b348015610058575f80fd5b50610073600480360381019061006e9190610496565b610121565b60405161008091906104d9565b60405180910390f35b348015610094575f80fd5b5061009d610135565b6040516100aa919061054d565b60405180910390f35b3480156100be575f80fd5b506100d960048036038101906100d49190610496565b610159565b6040516100e691906104d9565b60405180910390f35b6100f761016e565b005b348015610104575f80fd5b5061011f600480360381019061011a9190610590565b6101c2565b005b5f602052805f5260405f205f915090505481565b7f000000000000000000000000000000000000000000000000000000000000000081565b6001602052805f5260405f205f915090505481565b345f803373ffffffffffffffffffffffffffffffffffffffff1673ffffffffffffffffffffffffffffffffffffffff1681526020019081526020015f205f8282546101b991906105e8565b92505081905550565b5f68c328093e61ee4000007f000000000000000000000000000000000000000000000000000000000000000073ffffffffffffffffffffffffffffffffffffffff16633a06703c6040518163ffffffff1660e01b8152600401602060405180830381865afa158015610236573d5f803e3d5ffd5b505050506040513d601f19601f8201168201806040525081019061025a919061062f565b5f803373ffffffffffffffffffffffffffffffffffffffff1673ffffffffffffffffffffffffffffffffffffffff1681526020019081526020015f20546102a1919061065a565b6102ab91906106c8565b9050808260015f3373ffffffffffffffffffffffffffffffffffffffff1673ffffffffffffffffffffffffffffffffffffffff1681526020019081526020015f20546102f791906105e8565b1115610338576040517f08c379a000000000000000000000000000000000000000000000000000000000815260040161032f90610752565b60405180910390fd5b8160015f3373ffffffffffffffffffffffffffffffffffffffff1673ffffffffffffffffffffffffffffffffffffffff1681526020019081526020015f205f82825461038491906105e8565b925050819055505f3373ffffffffffffffffffffffffffffffffffffffff16836040516103b09061079d565b5f6040518083038185875af1925050503d805f81146103ea576040519150601f19603f3d011682016040523d82523d5f602084013e6103ef565b606091505b5050905080610433576040517f08c379a000000000000000000000000000000000000000000000000000000000815260040161042a906107fb565b60405180910390fd5b505050565b5f80fd5b5f73ffffffffffffffffffffffffffffffffffffffff82169050919050565b5f6104658261043c565b9050919050565b6104758161045b565b811461047f575f80fd5b50565b5f813590506104908161046c565b92915050565b5f602082840312156104ab576104aa610438565b5b5f6104b884828501610482565b91505092915050565b5f819050919050565b6104d3816104c1565b82525050565b5f6020820190506104ec5f8301846104ca565b92915050565b5f819050919050565b5f61051561051061050b8461043c565b6104f2565b61043c565b9050919050565b5f610526826104fb565b9050919050565b5f6105378261051c565b9050919050565b6105478161052d565b82525050565b5f6020820190506105605f83018461053e565b92915050565b61056f816104c1565b8114610579575f80fd5b50565b5f8135905061058a81610566565b92915050565b5f602082840312156105a5576105a4610438565b5b5f6105b28482850161057c565b91505092915050565b7f4e487b71000000000000000000000000000000000000000000000000000000005f52601160045260245ffd5b5f6105f2826104c1565b91506105fd836104c1565b9250828201905080821115610615576106146105bb565b5b92915050565b5f8151905061062981610566565b92915050565b5f6020828403121561064457610643610438565b5b5f6106518482850161061b565b91505092915050565b5f610664826104c1565b915061066f836104c1565b925082820261067d816104c1565b91508282048414831517610694576106936105bb565b5b5092915050565b7f4e487b71000000000000000000000000000000000000000000000000000000005f52601260045260245ffd5b5f6106d2826104c1565b91506106dd836104c1565b9250826106ed576106ec61069b565b5b828204905092915050565b5f82825260208201905092915050565b7f696e73756666696369656e7420636f6c6c61746572616c0000000000000000005f82015250565b5f61073c6017836106f8565b915061074782610708565b602082019050919050565b5f6020820190508181035f83015261076981610730565b9050919050565b5f81905092915050565b50565b5f6107885f83610770565b91506107938261077a565b5f82019050919050565b5f6107a78261077d565b9150819050919050565b7f7472616e73666572206661696c656400000000000000000000000000000000005f82015250565b5f6107e5600f836106f8565b91506107f0826107b1565b602082019050919050565b5f6020820190508181035f830152610812816107d9565b905091905056fea2646970667358221220862a899df957bf263e812136d09ea40859465f2e6a1f4483611bf52e75b1ae0b64736f6c63430008180033","linkReferences":{}},"methodIdentifiers":{"ORACLE()":"38013f02","borrow(uint256)":"c5ebeaec","collateralEth(address)":"29115012","debtEth(address)":"6e23c465","depositCollateral()":"6f758140"},"id":25}