{"abi":[{"type":"constructor","inputs":[{"name":"oracleAddress","type":"address","internalType":"address"}],"stateMutability":"payable"},{"type":"function","name":"ORACLE","inputs":[],"outputs":[{"name":"","type":"address","internalType":"contract ExerciseB_VulnerableOracle"}],"stateMutability":"view"},{"type":"function","name":"borrow","inputs":[{"name":"amountEth","type":"uint256","internalType":"uint256"}],"outputs":[],"stateMutability":"nonpayable"},{"type":"function","name":"collateralEth","inputs":[{"name":"","type":"address","internalType":"address"}],"outputs":[{"name":"","type":"uint256","internalType":"uint256"}],"stateMutability":"view"},{"type":"function","name":"depositCollateral","inputs":[],"outputs":[],"stateMutability":"payable"}],"bytecode":{"object":"0x60a060405260405161085e38038061085e833981810160405281019061002591906100bd565b8073ffffffffffffffffffffffffffffffffffffffff1660808173ffffffffffffffffffffffffffffffffffffffff1681525050506100e8565b5f80fd5b5f73ffffffffffffffffffffffffffffffffffffffff82169050919050565b5f61008c82610063565b9050919050565b61009c81610082565b81146100a6575f80fd5b50565b5f815190506100b781610093565b92915050565b5f602082840312156100d2576100d161005f565b5b5f6100df848285016100a9565b91505092915050565b6080516107586101065f395f818160f0015261017301526107585ff3fe60806040526004361061003e575f3560e01c8063291150121461004257806338013f021461007e5780636f758140146100a8578063c5ebeaec146100b2575b5f80fd5b34801561004d575f80fd5b506100686004803603810190610063919061039f565b6100da565b60405161007591906103e2565b60405180910390f35b348015610089575f80fd5b506100926100ee565b60405161009f9190610456565b60405180910390f35b6100b0610112565b005b3480156100bd575f80fd5b506100d860048036038101906100d39190610499565b610166565b005b5f602052805f5260405f205f915090505481565b7f000000000000000000000000000000000000000000000000000000000000000081565b345f803373ffffffffffffffffffffffffffffffffffffffff1673ffffffffffffffffffffffffffffffffffffffff1681526020019081526020015f205f82825461015d91906104f1565b92505081905550565b5f68c328093e61ee4000007f000000000000000000000000000000000000000000000000000000000000000073ffffffffffffffffffffffffffffffffffffffff16633a06703c6040518163ffffffff1660e01b8152600401602060405180830381865afa1580156101da573d5f803e3d5ffd5b505050506040513d601f19601f820116820180604052508101906101fe9190610538565b5f803373ffffffffffffffffffffffffffffffffffffffff1673ffffffffffffffffffffffffffffffffffffffff1681526020019081526020015f20546102459190610563565b61024f91906105d1565b905080821115610294576040517f08c379a000000000000000000000000000000000000000000000000000000000815260040161028b9061065b565b60405180910390fd5b5f3373ffffffffffffffffffffffffffffffffffffffff16836040516102b9906106a6565b5f6040518083038185875af1925050503d805f81146102f3576040519150601f19603f3d011682016040523d82523d5f602084013e6102f8565b606091505b505090508061033c576040517f08c379a000000000000000000000000000000000000000000000000000000000815260040161033390610704565b60405180910390fd5b505050565b5f80fd5b5f73ffffffffffffffffffffffffffffffffffffffff82169050919050565b5f61036e82610345565b9050919050565b61037e81610364565b8114610388575f80fd5b50565b5f8135905061039981610375565b92915050565b5f602082840312156103b4576103b3610341565b5b5f6103c18482850161038b565b91505092915050565b5f819050919050565b6103dc816103ca565b82525050565b5f6020820190506103f55f8301846103d3565b92915050565b5f819050919050565b5f61041e61041961041484610345565b6103fb565b610345565b9050919050565b5f61042f82610404565b9050919050565b5f61044082610425565b9050919050565b61045081610436565b82525050565b5f6020820190506104695f830184610447565b92915050565b610478816103ca565b8114610482575f80fd5b50565b5f813590506104938161046f565b92915050565b5f602082840312156104ae576104ad610341565b5b5f6104bb84828501610485565b91505092915050565b7f4e487b71000000000000000000000000000000000000000000000000000000005f52601160045260245ffd5b5f6104fb826103ca565b9150610506836103ca565b925082820190508082111561051e5761051d6104c4565b5b92915050565b5f815190506105328161046f565b92915050565b5f6020828403121561054d5761054c610341565b5b5f61055a84828501610524565b91505092915050565b5f61056d826103ca565b9150610578836103ca565b9250828202610586816103ca565b9150828204841483151761059d5761059c6104c4565b5b5092915050565b7f4e487b71000000000000000000000000000000000000000000000000000000005f52601260045260245ffd5b5f6105db826103ca565b91506105e6836103ca565b9250826105f6576105f56105a4565b5b828204905092915050565b5f82825260208201905092915050565b7f746f6f206d7563680000000000000000000000000000000000000000000000005f82015250565b5f610645600883610601565b915061065082610611565b602082019050919050565b5f6020820190508181035f83015261067281610639565b9050919050565b5f81905092915050565b50565b5f6106915f83610679565b915061069c82610683565b5f82019050919050565b5f6106b082610686565b9150819050919050565b7f7472616e73666572206661696c656400000000000000000000000000000000005f82015250565b5f6106ee600f83610601565b91506106f9826106ba565b602082019050919050565b5f6020820190508181035f83015261071b816106e2565b905091905056fea264697066735822122058547b2dc6d10f65acb3142037f797319f9e6c9d3c5d8fcd9e848646a23c4f1e64736f6c63430008180033","linkReferences":{}},"methodIdentifiers":{"ORACLE()":"38013f02","borrow(uint256)":"c5ebeaec","collateralEth(address)":"29115012","depositCollateral()":"6f758140"},"id":25}