{"abi":[{"type":"function","name":"priceE18","inputs":[],"outputs":[{"name":"","type":"uint256","internalType":"uint256"}],"stateMutability":"view"},{"type":"function","name":"setPrice","inputs":[{"name":"newPriceE18","type":"uint256","internalType":"uint256"}],"outputs":[],"stateMutability":"nonpayable"}],"bytecode":{"object":"0x6080604052686194049f30f72000005f5534801561001b575f80fd5b50610126806100295f395ff3fe6080604052348015600e575f80fd5b50600436106030575f3560e01c80633a06703c14603457806391b7f5ed14604e575b5f80fd5b603a6066565b60405160459190608a565b60405180910390f35b606460048036038101906060919060ca565b606b565b005b5f5481565b805f8190555050565b5f819050919050565b6084816074565b82525050565b5f602082019050609b5f830184607d565b92915050565b5f80fd5b60ac816074565b811460b5575f80fd5b50565b5f8135905060c48160a5565b92915050565b5f6020828403121560dc5760db60a1565b5b5f60e78482850160b8565b9150509291505056fea2646970667358221220c3e7bb695117664f304045066690ed8a8447b4fa669d19f5f3c325228c98d5e264736f6c63430008180033","linkReferences":{}},"methodIdentifiers":{"priceE18()":"3a06703c","setPrice(uint256)":"91b7f5ed"},"id":25}