{"abi":[{"type":"constructor","inputs":[{"name":"trustedSigner","type":"address","internalType":"address"}],"stateMutability":"payable"},{"type":"function","name":"SIGNER","inputs":[],"outputs":[{"name":"","type":"address","internalType":"address"}],"stateMutability":"view"},{"type":"function","name":"claim","inputs":[{"name":"recipient","type":"address","internalType":"address payable"},{"name":"amount","type":"uint256","internalType":"uint256"},{"name":"salt","type":"bytes32","internalType":"bytes32"},{"name":"signature","type":"bytes","internalType":"bytes"}],"outputs":[],"stateMutability":"nonpayable"}],"bytecode":{"object":"0x60a06040526040516108d63803806108d6833981810160405281019061002591906100bd565b8073ffffffffffffffffffffffffffffffffffffffff1660808173ffffffffffffffffffffffffffffffffffffffff1681525050506100e8565b5f80fd5b5f73ffffffffffffffffffffffffffffffffffffffff82169050919050565b5f61008c82610063565b9050919050565b61009c81610082565b81146100a6575f80fd5b50565b5f815190506100b781610093565b92915050565b5f602082840312156100d2576100d161005f565b5b5f6100df848285016100a9565b91505092915050565b6080516107d16101055f395f81816074015260c801526107d15ff3fe608060405234801561000f575f80fd5b5060043610610034575f3560e01c8063582abd12146100385780638d9fa7bb14610056575b5f80fd5b610040610072565b60405161004d9190610304565b60405180910390f35b610070600480360381019061006b9190610427565b610096565b005b7f000000000000000000000000000000000000000000000000000000000000000081565b5f858585306040516020016100ae9493929190610558565b6040516020818303038152906040528051906020012090507f000000000000000000000000000000000000000000000000000000000000000073ffffffffffffffffffffffffffffffffffffffff1661010882858561020f565b73ffffffffffffffffffffffffffffffffffffffff161461015e576040517f08c379a0000000000000000000000000000000000000000000000000000000008152600401610155906105ff565b60405180910390fd5b5f8673ffffffffffffffffffffffffffffffffffffffff16866040516101839061064a565b5f6040518083038185875af1925050503d805f81146101bd576040519150601f19603f3d011682016040523d82523d5f602084013e6101c2565b606091505b5050905080610206576040517f08c379a00000000000000000000000000000000000000000000000000000000081526004016101fd906106a8565b60405180910390fd5b50505050505050565b5f60418383905014610256576040517f08c379a000000000000000000000000000000000000000000000000000000000815260040161024d90610710565b60405180910390fd5b5f805f853592506020860135915060408601355f1a90506001878285856040515f815260200160405260405161028f9493929190610758565b6020604051602081039080840390855afa1580156102af573d5f803e3d5ffd5b5050506020604051035193505050509392505050565b5f73ffffffffffffffffffffffffffffffffffffffff82169050919050565b5f6102ee826102c5565b9050919050565b6102fe816102e4565b82525050565b5f6020820190506103175f8301846102f5565b92915050565b5f80fd5b5f80fd5b5f61032f826102c5565b9050919050565b61033f81610325565b8114610349575f80fd5b50565b5f8135905061035a81610336565b92915050565b5f819050919050565b61037281610360565b811461037c575f80fd5b50565b5f8135905061038d81610369565b92915050565b5f819050919050565b6103a581610393565b81146103af575f80fd5b50565b5f813590506103c08161039c565b92915050565b5f80fd5b5f80fd5b5f80fd5b5f8083601f8401126103e7576103e66103c6565b5b8235905067ffffffffffffffff811115610404576104036103ca565b5b6020830191508360018202830111156104205761041f6103ce565b5b9250929050565b5f805f805f608086880312156104405761043f61031d565b5b5f61044d8882890161034c565b955050602061045e8882890161037f565b945050604061046f888289016103b2565b935050606086013567ffffffffffffffff8111156104905761048f610321565b5b61049c888289016103d2565b92509250509295509295909350565b5f8160601b9050919050565b5f6104c1826104ab565b9050919050565b5f6104d2826104b7565b9050919050565b6104ea6104e582610325565b6104c8565b82525050565b5f819050919050565b61050a61050582610360565b6104f0565b82525050565b5f819050919050565b61052a61052582610393565b610510565b82525050565b5f61053a826104b7565b9050919050565b61055261054d826102e4565b610530565b82525050565b5f61056382876104d9565b60148201915061057382866104f9565b6020820191506105838285610519565b6020820191506105938284610541565b60148201915081905095945050505050565b5f82825260208201905092915050565b7f626164207369676e6174757265000000000000000000000000000000000000005f82015250565b5f6105e9600d836105a5565b91506105f4826105b5565b602082019050919050565b5f6020820190508181035f830152610616816105dd565b9050919050565b5f81905092915050565b50565b5f6106355f8361061d565b915061064082610627565b5f82019050919050565b5f6106548261062a565b9150819050919050565b7f7472616e73666572206661696c656400000000000000000000000000000000005f82015250565b5f610692600f836105a5565b915061069d8261065e565b602082019050919050565b5f6020820190508181035f8301526106bf81610686565b9050919050565b7f62616420736967206c656e6774680000000000000000000000000000000000005f82015250565b5f6106fa600e836105a5565b9150610705826106c6565b602082019050919050565b5f6020820190508181035f830152610727816106ee565b9050919050565b61073781610393565b82525050565b5f60ff82169050919050565b6107528161073d565b82525050565b5f60808201905061076b5f83018761072e565b6107786020830186610749565b610785604083018561072e565b610792606083018461072e565b9594505050505056fea2646970667358221220b3818ec72ead62cb3442e929cc478a450572c833e2fbe619d5c01e968aa9df7064736f6c63430008180033","linkReferences":{}},"methodIdentifiers":{"SIGNER()":"582abd12","claim(address,uint256,bytes32,bytes)":"8d9fa7bb"},"id":31}