{"abi":[{"type":"constructor","inputs":[],"stateMutability":"payable"},{"type":"function","name":"forceSend","inputs":[{"name":"target","type":"address","internalType":"address payable"}],"outputs":[],"stateMutability":"nonpayable"}],"bytecode":{"object":"0x608060405261010e806100115f395ff3fe6080604052348015600e575f80fd5b50600436106026575f3560e01c8063f2adf1cb14602a575b5f80fd5b60406004803603810190603c919060b2565b6042565b005b8073ffffffffffffffffffffffffffffffffffffffff16ff5b5f80fd5b5f73ffffffffffffffffffffffffffffffffffffffff82169050919050565b5f608682605f565b9050919050565b609481607e565b8114609d575f80fd5b50565b5f8135905060ac81608d565b92915050565b5f6020828403121560c45760c3605b565b5b5f60cf8482850160a0565b9150509291505056fea2646970667358221220bac1b0363d4381e260847e45bd342f54ff77fd8d76872423e6282f94c6ab70b764736f6c63430008180033","linkReferences":{}},"methodIdentifiers":{"forceSend(address)":"f2adf1cb"},"id":43}