{"abi":[{"type":"function","name":"exploit","inputs":[{"name":"shop","type":"address","internalType":"contract ExerciseB_VulnerableShop"}],"outputs":[],"stateMutability":"nonpayable"}],"bytecode":{"object":"0x608060405234801561000f575f80fd5b506101778061001d5f395ff3fe608060405234801561000f575f80fd5b5060043610610029575f3560e01c80630aeb4ddf1461002d575b5f80fd5b61004760048036038101906100429190610116565b610049565b005b8073ffffffffffffffffffffffffffffffffffffffff1663a6f2ae3a6040518163ffffffff1660e01b81526004015f604051808303815f87803b15801561008e575f80fd5b505af11580156100a0573d5f803e3d5ffd5b5050505050565b5f80fd5b5f73ffffffffffffffffffffffffffffffffffffffff82169050919050565b5f6100d4826100ab565b9050919050565b5f6100e5826100ca565b9050919050565b6100f5816100db565b81146100ff575f80fd5b50565b5f81359050610110816100ec565b92915050565b5f6020828403121561012b5761012a6100a7565b5b5f61013884828501610102565b9150509291505056fea2646970667358221220ce619cddf37ea5dbf75828db8d6f938fa5c1fee057b32f10689b334b6ce8763864736f6c63430008180033","linkReferences":{}},"methodIdentifiers":{"exploit(address)":"0aeb4ddf"},"id":39}