{"abi":[{"type":"function","name":"rug","inputs":[{"name":"thief","type":"address","internalType":"address payable"}],"outputs":[],"stateMutability":"nonpayable"}],"bytecode":{"object":"0x608060405234801561000f575f80fd5b5061026d8061001d5f395ff3fe608060405234801561000f575f80fd5b5060043610610029575f3560e01c80632af458321461002d575b5f80fd5b61004760048036038101906100429190610153565b610049565b005b5f8173ffffffffffffffffffffffffffffffffffffffff164760405161006e906101ab565b5f6040518083038185875af1925050503d805f81146100a8576040519150601f19603f3d011682016040523d82523d5f602084013e6100ad565b606091505b50509050806100f1576040517f08c379a00000000000000000000000000000000000000000000000000000000081526004016100e890610219565b60405180910390fd5b5050565b5f80fd5b5f73ffffffffffffffffffffffffffffffffffffffff82169050919050565b5f610122826100f9565b9050919050565b61013281610118565b811461013c575f80fd5b50565b5f8135905061014d81610129565b92915050565b5f60208284031215610168576101676100f5565b5b5f6101758482850161013f565b91505092915050565b5f81905092915050565b50565b5f6101965f8361017e565b91506101a182610188565b5f82019050919050565b5f6101b58261018b565b9150819050919050565b5f82825260208201905092915050565b7f727567206661696c6564000000000000000000000000000000000000000000005f82015250565b5f610203600a836101bf565b915061020e826101cf565b602082019050919050565b5f6020820190508181035f830152610230816101f7565b905091905056fea2646970667358221220e9475a945d5ae6ac64bab1db9b322de7e70e8ffb509be715baa9880da87cb21264736f6c63430008180033","linkReferences":{}},"methodIdentifiers":{"rug(address)":"2af45832"},"id":29}