{"abi":[{"type":"constructor","inputs":[],"stateMutability":"payable"},{"type":"function","name":"breakInvariant","inputs":[{"name":"target","type":"address","internalType":"address payable"}],"outputs":[],"stateMutability":"nonpayable"}],"bytecode":{"object":"0x608060405261010e806100115f395ff3fe6080604052348015600e575f80fd5b50600436106026575f3560e01c806352a8da3714602a575b5f80fd5b60406004803603810190603c919060b2565b6042565b005b8073ffffffffffffffffffffffffffffffffffffffff16ff5b5f80fd5b5f73ffffffffffffffffffffffffffffffffffffffff82169050919050565b5f608682605f565b9050919050565b609481607e565b8114609d575f80fd5b50565b5f8135905060ac81608d565b92915050565b5f6020828403121560c45760c3605b565b5b5f60cf8482850160a0565b9150509291505056fea2646970667358221220f4d1b8f7857a7b57e6ba237825d982d2cdd71c90939c20b941c80153cdf6208964736f6c63430008180033","linkReferences":{}},"methodIdentifiers":{"breakInvariant(address)":"52a8da37"},"id":43}