{"abi":[{"type":"receive","stateMutability":"payable"},{"type":"function","name":"join","inputs":[{"name":"escrow","type":"address","internalType":"contract ExerciseA_VulnerableEscrow"}],"outputs":[],"stateMutability":"payable"}],"bytecode":{"object":"0x608060405234801561000f575f80fd5b506102298061001d5f395ff3fe608060405260043610610021575f3560e01c806328ffe6c81461006557610061565b36610061576040517f08c379a00000000000000000000000000000000000000000000000000000000081526004016100589061013b565b60405180910390fd5b5f80fd5b61007f600480360381019061007a91906101c8565b610081565b005b8073ffffffffffffffffffffffffffffffffffffffff1663d7bb99ba346040518263ffffffff1660e01b81526004015f604051808303818588803b1580156100c7575f80fd5b505af11580156100d9573d5f803e3d5ffd5b505050505050565b5f82825260208201905092915050565b7f626c6f636b6564000000000000000000000000000000000000000000000000005f82015250565b5f6101256007836100e1565b9150610130826100f1565b602082019050919050565b5f6020820190508181035f83015261015281610119565b9050919050565b5f80fd5b5f73ffffffffffffffffffffffffffffffffffffffff82169050919050565b5f6101868261015d565b9050919050565b5f6101978261017c565b9050919050565b6101a78161018d565b81146101b1575f80fd5b50565b5f813590506101c28161019e565b92915050565b5f602082840312156101dd576101dc610159565b5b5f6101ea848285016101b4565b9150509291505056fea264697066735822122010bf337e848fdf491ceaeda5ee6985ae3d65f872fd09f3e1625e6dcca3732d2c64736f6c63430008180033","linkReferences":{}},"methodIdentifiers":{"join(address)":"28ffe6c8"},"id":33}