{"abi":[{"type":"function","name":"transferFrom","inputs":[{"name":"","type":"address","internalType":"address"},{"name":"","type":"address","internalType":"address"},{"name":"","type":"uint256","internalType":"uint256"}],"outputs":[{"name":"","type":"bool","internalType":"bool"}],"stateMutability":"pure"}],"bytecode":{"object":"0x608060405234801561000f575f80fd5b506101af8061001d5f395ff3fe608060405234801561000f575f80fd5b5060043610610029575f3560e01c806323b872dd1461002d575b5f80fd5b610047600480360381019061004291906100f6565b61005d565b6040516100549190610160565b60405180910390f35b5f9392505050565b5f80fd5b5f73ffffffffffffffffffffffffffffffffffffffff82169050919050565b5f61009282610069565b9050919050565b6100a281610088565b81146100ac575f80fd5b50565b5f813590506100bd81610099565b92915050565b5f819050919050565b6100d5816100c3565b81146100df575f80fd5b50565b5f813590506100f0816100cc565b92915050565b5f805f6060848603121561010d5761010c610065565b5b5f61011a868287016100af565b935050602061012b868287016100af565b925050604061013c868287016100e2565b9150509250925092565b5f8115159050919050565b61015a81610146565b82525050565b5f6020820190506101735f830184610151565b9291505056fea2646970667358221220da7be4759e4f052e5a2a9db8a73bccdcc8af69ab590d632d91fbe4c47a5f86ce64736f6c63430008180033","linkReferences":{}},"methodIdentifiers":{"transferFrom(address,address,uint256)":"23b872dd"},"id":39}