{"abi":[{"type":"function","name":"balances","inputs":[{"name":"","type":"address","internalType":"address"}],"outputs":[{"name":"","type":"uint256","internalType":"uint256"}],"stateMutability":"view"},{"type":"function","name":"deposit","inputs":[],"outputs":[],"stateMutability":"payable"},{"type":"function","name":"totalDeposits","inputs":[],"outputs":[{"name":"","type":"uint256","internalType":"uint256"}],"stateMutability":"view"},{"type":"function","name":"withdraw","inputs":[{"name":"amount","type":"uint256","internalType":"uint256"}],"outputs":[],"stateMutability":"nonpayable"}],"bytecode":{"object":"0x608060405234801561000f575f80fd5b5061069a8061001d5f395ff3fe60806040526004361061003e575f3560e01c806327e235e3146100425780632e1a7d4d1461007e5780637d882097146100a6578063d0e30db0146100d0575b5f80fd5b34801561004d575f80fd5b5061006860048036038101906100639190610397565b6100da565b60405161007591906103da565b60405180910390f35b348015610089575f80fd5b506100a4600480360381019061009f919061041d565b6100ee565b005b3480156100b1575f80fd5b506100ba6102c7565b6040516100c791906103da565b60405180910390f35b6100d86102cd565b005b5f602052805f5260405f205f915090505481565b805f803373ffffffffffffffffffffffffffffffffffffffff1673ffffffffffffffffffffffffffffffffffffffff1681526020019081526020015f2054101561016d576040517f08c379a0000000000000000000000000000000000000000000000000000000008152600401610164906104a2565b60405180910390fd5b60015447146101b1576040517f08c379a00000000000000000000000000000000000000000000000000000000081526004016101a89061050a565b60405180910390fd5b805f803373ffffffffffffffffffffffffffffffffffffffff1673ffffffffffffffffffffffffffffffffffffffff1681526020019081526020015f205f8282546101fc9190610555565b925050819055508060015f8282546102149190610555565b925050819055505f3373ffffffffffffffffffffffffffffffffffffffff1682604051610240906105b5565b5f6040518083038185875af1925050503d805f811461027a576040519150601f19603f3d011682016040523d82523d5f602084013e61027f565b606091505b50509050806102c3576040517f08c379a00000000000000000000000000000000000000000000000000000000081526004016102ba90610613565b60405180910390fd5b5050565b60015481565b345f803373ffffffffffffffffffffffffffffffffffffffff1673ffffffffffffffffffffffffffffffffffffffff1681526020019081526020015f205f8282546103189190610631565b925050819055503460015f8282546103309190610631565b92505081905550565b5f80fd5b5f73ffffffffffffffffffffffffffffffffffffffff82169050919050565b5f6103668261033d565b9050919050565b6103768161035c565b8114610380575f80fd5b50565b5f813590506103918161036d565b92915050565b5f602082840312156103ac576103ab610339565b5b5f6103b984828501610383565b91505092915050565b5f819050919050565b6103d4816103c2565b82525050565b5f6020820190506103ed5f8301846103cb565b92915050565b6103fc816103c2565b8114610406575f80fd5b50565b5f81359050610417816103f3565b92915050565b5f6020828403121561043257610431610339565b5b5f61043f84828501610409565b91505092915050565b5f82825260208201905092915050565b7f696e73756666696369656e7400000000000000000000000000000000000000005f82015250565b5f61048c600c83610448565b915061049782610458565b602082019050919050565b5f6020820190508181035f8301526104b981610480565b9050919050565b7f696e76617269616e742062726f6b656e000000000000000000000000000000005f82015250565b5f6104f4601083610448565b91506104ff826104c0565b602082019050919050565b5f6020820190508181035f830152610521816104e8565b9050919050565b7f4e487b71000000000000000000000000000000000000000000000000000000005f52601160045260245ffd5b5f61055f826103c2565b915061056a836103c2565b925082820390508181111561058257610581610528565b5b92915050565b5f81905092915050565b50565b5f6105a05f83610588565b91506105ab82610592565b5f82019050919050565b5f6105bf82610595565b9150819050919050565b7f7472616e73666572206661696c656400000000000000000000000000000000005f82015250565b5f6105fd600f83610448565b9150610608826105c9565b602082019050919050565b5f6020820190508181035f83015261062a816105f1565b9050919050565b5f61063b826103c2565b9150610646836103c2565b925082820190508082111561065e5761065d610528565b5b9291505056fea26469706673582212207896d5891c7ab5a900d263cd80a10900b1306c60483a6c8b8603a125e4c4a42a64736f6c63430008180033","linkReferences":{}},"methodIdentifiers":{"balances(address)":"27e235e3","deposit()":"d0e30db0","totalDeposits()":"7d882097","withdraw(uint256)":"2e1a7d4d"},"id":43}